<!doctype html>
<html lang="en-US">
  <head>
    <meta charset="utf-8">
    <meta http-equiv="X-UA-Compatible" content="IE=edge">

<!-- Begin Jekyll SEO tag v2.5.0 -->
<title>比特币交易签名过程详解 | 有组织在！</title>
<meta name="generator" content="Jekyll v3.8.5" />
<meta property="og:title" content="比特币交易签名过程详解" />
<meta property="og:locale" content="en_US" />
<meta name="description" content="最近在研究比特币交易签名计算，网上没有完整介绍签名过程的例子。本文力图提供一个完整例子，详细介绍比特币签名的计算过程。 1. 比特币交易的格式 交易数据格式 大小　　 字段名称　　数据类型 　　　　描述 4字节　　协议版本 　　uint32_t　　　 明确这笔交易参照的规则协议的版本号 1-9字节　输入数量　　　var_int　　　被包含的输入交易的数量 不定 　　输入列表　　　tx_in[]　　　 一个或多个输入交易构成的数组 1-9字节　输出数量　　　var_int　　　被包含的输出交易的数量 不定　　 输出列表　　　tx_out[]　　　一个或多个输出交易构成的数组 4字节　　锁定时间　　 uint32_t　　　 一个UNIX时间戳或区块号 tx_in 格式 其中tx_in 包括： 字段尺寸 描述 数据类型 说明 36 previous_output outpoint 对前一输出的引用 1+ script length var_int signature script 的长度 ? signature script uchar[] 用于确认交易授权的计算脚本 4 sequence unit32_t Used for locktime or disabled(0xFFFFFFFF) &nbsp; OutPoint结构的构成： 字段尺寸 描述 数据类型 说明 32 hash char[32] 引用的交易的散列 4 index uint32_t 指定输出的索引，第一笔输出的索引是0，以此类推 tx_out的构成： 字段尺寸 描述 数据类型 说明 8 value uint64_t 交易的比特币数量(单位是0.00000001) 1+ pk_script var_int pk_script的长度 ? pk_script uchar[] Usually contains the public key as a Bitcoin script setting up conditions to claim this output &nbsp; 2. 签名计算： 将其他输入的pkscript长度调整为0,并末尾加上四字节小端序的sighash_type，并进行两次sha256： 在对这个hash进行签名计算，得出签名数据（签名时不用再计算hash，直接调用ecdsa-sign-digest） 3. 计算示例 使用electrum生成的未签名数据示例： 0100000001b37b9eefc3fa245f5ce36cb51c2d18a2d16e19d20867b23130e00f5280ccf82d010000002401ff210395cf5234e602954cba693138f3ba94c1cde7337675f5a94931e6226802d74d16fdffffff02002d3101000000001976a91425dc469afb4654d27742e3669bb3f5812268f2a188ac9ec2c901000000001976a9142dbbbd8bcff08a549be21efae747592049c9dc2d88ac71221300 &nbsp; 签名后的数据： 0100000001b37b9eefc3fa245f5ce36cb51c2d18a2d16e19d20867b23130e00f5280ccf82d010000006a47304402202008714016f7e01c1a0010d7e6eb0b1f100b5a9b7c65a0506d62c1fbb9790cb102203daf6363c4039a739036ce152817f73d31319f060bbf5f354a0eeaf9f7ed3cd001210395cf5234e602954cba693138f3ba94c1cde7337675f5a94931e6226802d74d16fdffffff02002d3101000000001976a91425dc469afb4654d27742e3669bb3f5812268f2a188ac9ec2c901000000001976a9142dbbbd8bcff08a549be21efae747592049c9dc2d88ac71221300 交易记录： https://www.blocktrail.com/tBTC/tx/8c6375e4509a186539dbbc2936feef7671f256969c917b633ec5db6b23c78ed1 &nbsp; 计算过程： 协议版本：01000000 输入数量：01 输入列表： 32字节 前一次交易的hash &nbsp;&nbsp;&nbsp;&nbsp;&nbsp;&nbsp;&nbsp;&nbsp; b37b9eefc3fa245f5ce36cb51c2d18a2d16e19d20867b23130e00f5280ccf82d （默认是大端，要去网上查询详情的话，用的是小端 2df8cc80520fe03031b26708d2196ed1a2182d1cb56ce35c5f24fac3ef9e7bb3） 4字节 前一次交易的输出index : 01000000（序号从0开始） Pkscript 长度：VI （1字节）0x19（25字节） Pkscript： OP_DUP（76） OP_HASH160（a9） 20字节数据（14） 2dbbbd8bcff08a549be21efae747592049c9dc2d OP_EQUALVERIFY （88）OP_CHECKSIG（ac） &nbsp; 1976a9142dbbbd8bcff08a549be21efae747592049c9dc2d88ac Sequence： fdffffff 输出数量：02 输出列表： Value： 8字节 002d310100000000 Pkscript长度 0x19 （25） Pkscript：76a91425dc469afb4654d27742e3669bb3f5812268f2a188ac Value：8字节 9ec2c90100000000 Pkscript长度 0x19 （25） Pkscript：76a9142dbbbd8bcff08a549be21efae747592049c9dc2d88ac 锁定时间：71221300 HashType ：01000000（四字节） &nbsp; 两次hash值 （405c87d455f2f26e554c05b657769e2af253135367bcc69d4d772f873d39a23c） 进行2次sha256后，调用ecdsa_verify_digest计算签名，不需要在对2次sha256后的数据进行hash后再计算签名 签名值：r，s： 2008714016f7e01c1a0010d7e6eb0b1f100b5a9b7c65a0506d62c1fbb9790cb1 3daf6363c4039a739036ce152817f73d31319f060bbf5f354a0eeaf9f7ed3cd0 Pubk为0395cf5234e602954cba693138f3ba94c1cde7337675f5a94931e6226802d74d16 &nbsp; 阅读更多" />
<meta property="og:description" content="最近在研究比特币交易签名计算，网上没有完整介绍签名过程的例子。本文力图提供一个完整例子，详细介绍比特币签名的计算过程。 1. 比特币交易的格式 交易数据格式 大小　　 字段名称　　数据类型 　　　　描述 4字节　　协议版本 　　uint32_t　　　 明确这笔交易参照的规则协议的版本号 1-9字节　输入数量　　　var_int　　　被包含的输入交易的数量 不定 　　输入列表　　　tx_in[]　　　 一个或多个输入交易构成的数组 1-9字节　输出数量　　　var_int　　　被包含的输出交易的数量 不定　　 输出列表　　　tx_out[]　　　一个或多个输出交易构成的数组 4字节　　锁定时间　　 uint32_t　　　 一个UNIX时间戳或区块号 tx_in 格式 其中tx_in 包括： 字段尺寸 描述 数据类型 说明 36 previous_output outpoint 对前一输出的引用 1+ script length var_int signature script 的长度 ? signature script uchar[] 用于确认交易授权的计算脚本 4 sequence unit32_t Used for locktime or disabled(0xFFFFFFFF) &nbsp; OutPoint结构的构成： 字段尺寸 描述 数据类型 说明 32 hash char[32] 引用的交易的散列 4 index uint32_t 指定输出的索引，第一笔输出的索引是0，以此类推 tx_out的构成： 字段尺寸 描述 数据类型 说明 8 value uint64_t 交易的比特币数量(单位是0.00000001) 1+ pk_script var_int pk_script的长度 ? pk_script uchar[] Usually contains the public key as a Bitcoin script setting up conditions to claim this output &nbsp; 2. 签名计算： 将其他输入的pkscript长度调整为0,并末尾加上四字节小端序的sighash_type，并进行两次sha256： 在对这个hash进行签名计算，得出签名数据（签名时不用再计算hash，直接调用ecdsa-sign-digest） 3. 计算示例 使用electrum生成的未签名数据示例： 0100000001b37b9eefc3fa245f5ce36cb51c2d18a2d16e19d20867b23130e00f5280ccf82d010000002401ff210395cf5234e602954cba693138f3ba94c1cde7337675f5a94931e6226802d74d16fdffffff02002d3101000000001976a91425dc469afb4654d27742e3669bb3f5812268f2a188ac9ec2c901000000001976a9142dbbbd8bcff08a549be21efae747592049c9dc2d88ac71221300 &nbsp; 签名后的数据： 0100000001b37b9eefc3fa245f5ce36cb51c2d18a2d16e19d20867b23130e00f5280ccf82d010000006a47304402202008714016f7e01c1a0010d7e6eb0b1f100b5a9b7c65a0506d62c1fbb9790cb102203daf6363c4039a739036ce152817f73d31319f060bbf5f354a0eeaf9f7ed3cd001210395cf5234e602954cba693138f3ba94c1cde7337675f5a94931e6226802d74d16fdffffff02002d3101000000001976a91425dc469afb4654d27742e3669bb3f5812268f2a188ac9ec2c901000000001976a9142dbbbd8bcff08a549be21efae747592049c9dc2d88ac71221300 交易记录： https://www.blocktrail.com/tBTC/tx/8c6375e4509a186539dbbc2936feef7671f256969c917b633ec5db6b23c78ed1 &nbsp; 计算过程： 协议版本：01000000 输入数量：01 输入列表： 32字节 前一次交易的hash &nbsp;&nbsp;&nbsp;&nbsp;&nbsp;&nbsp;&nbsp;&nbsp; b37b9eefc3fa245f5ce36cb51c2d18a2d16e19d20867b23130e00f5280ccf82d （默认是大端，要去网上查询详情的话，用的是小端 2df8cc80520fe03031b26708d2196ed1a2182d1cb56ce35c5f24fac3ef9e7bb3） 4字节 前一次交易的输出index : 01000000（序号从0开始） Pkscript 长度：VI （1字节）0x19（25字节） Pkscript： OP_DUP（76） OP_HASH160（a9） 20字节数据（14） 2dbbbd8bcff08a549be21efae747592049c9dc2d OP_EQUALVERIFY （88）OP_CHECKSIG（ac） &nbsp; 1976a9142dbbbd8bcff08a549be21efae747592049c9dc2d88ac Sequence： fdffffff 输出数量：02 输出列表： Value： 8字节 002d310100000000 Pkscript长度 0x19 （25） Pkscript：76a91425dc469afb4654d27742e3669bb3f5812268f2a188ac Value：8字节 9ec2c90100000000 Pkscript长度 0x19 （25） Pkscript：76a9142dbbbd8bcff08a549be21efae747592049c9dc2d88ac 锁定时间：71221300 HashType ：01000000（四字节） &nbsp; 两次hash值 （405c87d455f2f26e554c05b657769e2af253135367bcc69d4d772f873d39a23c） 进行2次sha256后，调用ecdsa_verify_digest计算签名，不需要在对2次sha256后的数据进行hash后再计算签名 签名值：r，s： 2008714016f7e01c1a0010d7e6eb0b1f100b5a9b7c65a0506d62c1fbb9790cb1 3daf6363c4039a739036ce152817f73d31319f060bbf5f354a0eeaf9f7ed3cd0 Pubk为0395cf5234e602954cba693138f3ba94c1cde7337675f5a94931e6226802d74d16 &nbsp; 阅读更多" />
<meta property="og:site_name" content="有组织在！" />
<meta property="og:type" content="article" />
<meta property="article:published_time" content="2018-07-16T00:00:00+08:00" />
<script type="application/ld+json">
{"description":"最近在研究比特币交易签名计算，网上没有完整介绍签名过程的例子。本文力图提供一个完整例子，详细介绍比特币签名的计算过程。 1. 比特币交易的格式 交易数据格式 大小　　 字段名称　　数据类型 　　　　描述 4字节　　协议版本 　　uint32_t　　　 明确这笔交易参照的规则协议的版本号 1-9字节　输入数量　　　var_int　　　被包含的输入交易的数量 不定 　　输入列表　　　tx_in[]　　　 一个或多个输入交易构成的数组 1-9字节　输出数量　　　var_int　　　被包含的输出交易的数量 不定　　 输出列表　　　tx_out[]　　　一个或多个输出交易构成的数组 4字节　　锁定时间　　 uint32_t　　　 一个UNIX时间戳或区块号 tx_in 格式 其中tx_in 包括： 字段尺寸 描述 数据类型 说明 36 previous_output outpoint 对前一输出的引用 1+ script length var_int signature script 的长度 ? signature script uchar[] 用于确认交易授权的计算脚本 4 sequence unit32_t Used for locktime or disabled(0xFFFFFFFF) &nbsp; OutPoint结构的构成： 字段尺寸 描述 数据类型 说明 32 hash char[32] 引用的交易的散列 4 index uint32_t 指定输出的索引，第一笔输出的索引是0，以此类推 tx_out的构成： 字段尺寸 描述 数据类型 说明 8 value uint64_t 交易的比特币数量(单位是0.00000001) 1+ pk_script var_int pk_script的长度 ? pk_script uchar[] Usually contains the public key as a Bitcoin script setting up conditions to claim this output &nbsp; 2. 签名计算： 将其他输入的pkscript长度调整为0,并末尾加上四字节小端序的sighash_type，并进行两次sha256： 在对这个hash进行签名计算，得出签名数据（签名时不用再计算hash，直接调用ecdsa-sign-digest） 3. 计算示例 使用electrum生成的未签名数据示例： 0100000001b37b9eefc3fa245f5ce36cb51c2d18a2d16e19d20867b23130e00f5280ccf82d010000002401ff210395cf5234e602954cba693138f3ba94c1cde7337675f5a94931e6226802d74d16fdffffff02002d3101000000001976a91425dc469afb4654d27742e3669bb3f5812268f2a188ac9ec2c901000000001976a9142dbbbd8bcff08a549be21efae747592049c9dc2d88ac71221300 &nbsp; 签名后的数据： 0100000001b37b9eefc3fa245f5ce36cb51c2d18a2d16e19d20867b23130e00f5280ccf82d010000006a47304402202008714016f7e01c1a0010d7e6eb0b1f100b5a9b7c65a0506d62c1fbb9790cb102203daf6363c4039a739036ce152817f73d31319f060bbf5f354a0eeaf9f7ed3cd001210395cf5234e602954cba693138f3ba94c1cde7337675f5a94931e6226802d74d16fdffffff02002d3101000000001976a91425dc469afb4654d27742e3669bb3f5812268f2a188ac9ec2c901000000001976a9142dbbbd8bcff08a549be21efae747592049c9dc2d88ac71221300 交易记录： https://www.blocktrail.com/tBTC/tx/8c6375e4509a186539dbbc2936feef7671f256969c917b633ec5db6b23c78ed1 &nbsp; 计算过程： 协议版本：01000000 输入数量：01 输入列表： 32字节 前一次交易的hash &nbsp;&nbsp;&nbsp;&nbsp;&nbsp;&nbsp;&nbsp;&nbsp; b37b9eefc3fa245f5ce36cb51c2d18a2d16e19d20867b23130e00f5280ccf82d （默认是大端，要去网上查询详情的话，用的是小端 2df8cc80520fe03031b26708d2196ed1a2182d1cb56ce35c5f24fac3ef9e7bb3） 4字节 前一次交易的输出index : 01000000（序号从0开始） Pkscript 长度：VI （1字节）0x19（25字节） Pkscript： OP_DUP（76） OP_HASH160（a9） 20字节数据（14） 2dbbbd8bcff08a549be21efae747592049c9dc2d OP_EQUALVERIFY （88）OP_CHECKSIG（ac） &nbsp; 1976a9142dbbbd8bcff08a549be21efae747592049c9dc2d88ac Sequence： fdffffff 输出数量：02 输出列表： Value： 8字节 002d310100000000 Pkscript长度 0x19 （25） Pkscript：76a91425dc469afb4654d27742e3669bb3f5812268f2a188ac Value：8字节 9ec2c90100000000 Pkscript长度 0x19 （25） Pkscript：76a9142dbbbd8bcff08a549be21efae747592049c9dc2d88ac 锁定时间：71221300 HashType ：01000000（四字节） &nbsp; 两次hash值 （405c87d455f2f26e554c05b657769e2af253135367bcc69d4d772f873d39a23c） 进行2次sha256后，调用ecdsa_verify_digest计算签名，不需要在对2次sha256后的数据进行hash后再计算签名 签名值：r，s： 2008714016f7e01c1a0010d7e6eb0b1f100b5a9b7c65a0506d62c1fbb9790cb1 3daf6363c4039a739036ce152817f73d31319f060bbf5f354a0eeaf9f7ed3cd0 Pubk为0395cf5234e602954cba693138f3ba94c1cde7337675f5a94931e6226802d74d16 &nbsp; 阅读更多","@type":"BlogPosting","url":"/2018/07/16/fe5bb24164e332d7858b1548aea7b39e.html","headline":"比特币交易签名过程详解","dateModified":"2018-07-16T00:00:00+08:00","datePublished":"2018-07-16T00:00:00+08:00","mainEntityOfPage":{"@type":"WebPage","@id":"/2018/07/16/fe5bb24164e332d7858b1548aea7b39e.html"},"@context":"http://schema.org"}</script>
<!-- End Jekyll SEO tag -->


    <link rel="stylesheet" href="/assets/css/style.css?v=">
    <script src="/assets/js/scale.fix.js"></script>
    <meta name="viewport" content="width=device-width, initial-scale=1, user-scalable=no">

    <!--[if lt IE 9]>
    <script src="//html5shiv.googlecode.com/svn/trunk/html5.js"></script>
    <![endif]-->
    
    <!-- Global site tag (gtag.js) - Google Analytics -->
    <script async src="https://www.googletagmanager.com/gtag/js?id=UA-123344652-1"></script>
    <script>
      window.dataLayer = window.dataLayer || [];
      function gtag(){dataLayer.push(arguments);}
      gtag('js', new Date());

      gtag('config', 'UA-123344652-1');
    </script>
    
    <script async src="//pagead2.googlesyndication.com/pagead/js/adsbygoogle.js"></script>
    <script>
      (adsbygoogle = window.adsbygoogle || []).push({
        google_ad_client: "ca-pub-8889449066804352",
        enable_page_level_ads: true
      });
    </script>
    
    <script async custom-element="amp-auto-ads"
        src="https://cdn.ampproject.org/v0/amp-auto-ads-0.1.js">
    </script>
    
    <style>
      @media screen and (max-width:760px){
        .sm-hidden{display:none; }
      }
    </style>

  </head>
  <body>
    
        <amp-auto-ads type="adsense"
              data-ad-client="ca-pub-8889449066804352">
        </amp-auto-ads>
    
    <div class="wrapper">
      <header  class="without-description" >
        <h1>比特币交易签名过程详解</h1>
        
        
        <ul>
            <li><a href="https://uzshare.com/" style="line-height: unset;" target="_blank"><strong>柚子社区</strong></a></li>
        </ul>
        
        
        
      </header>
      <section>

<div style="margin:0 0 8px 0;">
<style>
table.gsc-input {
    margin: 0;
}
.cse .gsc-control-cse, .gsc-control-cse {
    padding: 0;
    width: auto;
}
.gsc-search-box td {
    border-bottom: none;
}
</style>
<script>
  (function() {
    var cx = '004431708863642777669:qan2_6ugotw';
    var gcse = document.createElement('script');
    gcse.type = 'text/javascript';
    gcse.async = true;
    gcse.src = 'https://cse.google.com/cse.js?cx=' + cx;
    var s = document.getElementsByTagName('script')[0];
    s.parentNode.insertBefore(gcse, s);
  })();
</script>
<gcse:search></gcse:search>
</div>
	

        <div id="article_content" class="article_content clearfix csdn-tracking-statistics" data-pid="blog" data-mod="popu_307" data-dsm="post"> 
 <link rel="stylesheet" href="https://csdnimg.cn/release/phoenix/template/css/ck_htmledit_views-e4c7a3727d.css"> 
 <div class="htmledit_views"> 
  <p>最近在研究比特币交易签名计算，网上没有完整介绍签名过程的例子。本文力图提供一个完整例子，详细介绍比特币签名的计算过程。</p> 
  <h1>1. 比特币交易的格式</h1> 
  <h2>交易数据格式</h2> 
  <p style="margin-left:0cm;">大小　　 字段名称　　数据类型 　　　　描述</p> 
  <p style="margin-left:0cm;">4字节　　协议版本 　　uint32_t　　　 明确这笔交易参照的规则协议的版本号</p> 
  <p style="margin-left:0cm;">1-9字节　输入数量　　　var_int　　　被包含的输入交易的数量</p> 
  <p style="margin-left:0cm;">不定 　　输入列表　　　tx_in[]　　　 一个或多个输入交易构成的数组</p> 
  <p style="margin-left:0cm;">1-9字节　输出数量　　　var_int　　　被包含的输出交易的数量</p> 
  <p style="margin-left:0cm;">不定　　 输出列表　　　tx_out[]　　　一个或多个输出交易构成的数组</p> 
  <p style="margin-left:0cm;">4字节　　锁定时间　　 uint32_t　　　 一个UNIX时间戳或区块号</p> 
  <h2 style="margin-left:0cm;">tx_in 格式</h2> 
  <p style="margin-left:0cm;">其中tx_in 包括：</p> 
  <table border="1" cellspacing="0">
   <tbody>
    <tr>
     <td style="vertical-align:top;width:42.3pt;"> <p style="margin-left:0cm;">字段尺寸</p> </td> 
     <td style="vertical-align:top;width:100.8pt;"> <p style="margin-left:0cm;">描述</p> </td> 
     <td style="vertical-align:top;width:69.3pt;"> <p style="margin-left:0cm;">数据类型</p> </td> 
     <td style="vertical-align:top;width:202.4pt;"> <p style="margin-left:0cm;">说明</p> </td> 
    </tr>
    <tr>
     <td style="vertical-align:top;width:42.3pt;"> <p style="margin-left:0cm;">36</p> </td> 
     <td style="vertical-align:top;width:100.8pt;"> <p style="margin-left:0cm;">previous_output</p> </td> 
     <td style="vertical-align:top;width:69.3pt;"> <p style="margin-left:0cm;">outpoint</p> </td> 
     <td style="vertical-align:top;width:202.4pt;"> <p style="margin-left:0cm;">对前一输出的引用</p> </td> 
    </tr>
    <tr>
     <td style="vertical-align:top;width:42.3pt;"> <p style="margin-left:0cm;">1+</p> </td> 
     <td style="vertical-align:top;width:100.8pt;"> <p style="margin-left:0cm;">script length</p> </td> 
     <td style="vertical-align:top;width:69.3pt;"> <p style="margin-left:0cm;">var_int</p> </td> 
     <td style="vertical-align:top;width:202.4pt;"> <p style="margin-left:0cm;">signature script 的长度</p> </td> 
    </tr>
    <tr>
     <td style="vertical-align:top;width:42.3pt;"> <p style="margin-left:0cm;">?</p> </td> 
     <td style="vertical-align:top;width:100.8pt;"> <p style="margin-left:0cm;">signature script</p> </td> 
     <td style="vertical-align:top;width:69.3pt;"> <p style="margin-left:0cm;">uchar[]</p> </td> 
     <td style="vertical-align:top;width:202.4pt;"> <p style="margin-left:0cm;">用于确认交易授权的计算脚本</p> </td> 
    </tr>
    <tr>
     <td style="vertical-align:top;width:42.3pt;"> <p style="margin-left:0cm;">4</p> </td> 
     <td style="vertical-align:top;width:100.8pt;"> <p style="margin-left:0cm;">sequence</p> </td> 
     <td style="vertical-align:top;width:69.3pt;"> <p style="margin-left:0cm;">unit32_t</p> </td> 
     <td style="vertical-align:top;width:202.4pt;"> <p style="margin-left:0cm;">Used for locktime or disabled(0xFFFFFFFF)</p> </td> 
    </tr>
   </tbody>
  </table>
  <p>&nbsp;</p> 
  <p style="margin-left:0cm;">OutPoint结构的构成：</p> 
  <table border="1" cellspacing="0">
   <tbody>
    <tr>
     <td style="width:63.55pt;"> <p style="margin-left:0cm;"><strong>字段尺寸</strong></p> </td> 
     <td style="width:2cm;"> <p style="margin-left:0cm;"><strong>描述</strong></p> </td> 
     <td style="width:63.8pt;"> <p style="margin-left:0cm;"><strong>数据类型</strong></p> </td> 
     <td style="width:230.75pt;"> <p style="margin-left:0cm;"><strong>说明</strong></p> </td> 
    </tr>
    <tr>
     <td style="width:63.55pt;"> <p style="margin-left:0cm;">32</p> </td> 
     <td style="width:2cm;"> <p style="margin-left:0cm;">hash</p> </td> 
     <td style="width:63.8pt;"> <p style="margin-left:0cm;">char[32]</p> </td> 
     <td style="width:230.75pt;"> <p style="margin-left:0cm;">引用的交易的散列</p> </td> 
    </tr>
    <tr>
     <td style="width:63.55pt;"> <p style="margin-left:0cm;">4</p> </td> 
     <td style="width:2cm;"> <p style="margin-left:0cm;">index</p> </td> 
     <td style="width:63.8pt;"> <p style="margin-left:0cm;">uint32_t</p> </td> 
     <td style="width:230.75pt;"> <p style="margin-left:0cm;"><strong>指定输出的索引，第一笔输出的索引是0，以此类推</strong></p> </td> 
    </tr>
   </tbody>
  </table>
  <h2 style="margin-left:0cm;">tx_out的构成：</h2> 
  <table border="1" cellspacing="0">
   <tbody>
    <tr>
     <td style="vertical-align:top;width:42.3pt;"> <p style="margin-left:0cm;">字段尺寸</p> </td> 
     <td style="vertical-align:top;width:64.8pt;"> <p style="margin-left:0cm;">描述</p> </td> 
     <td style="vertical-align:top;width:69.85pt;"> <p style="margin-left:0cm;">数据类型</p> </td> 
     <td style="vertical-align:top;width:237.85pt;"> <p style="margin-left:0cm;">说明</p> </td> 
    </tr>
    <tr>
     <td style="vertical-align:top;width:42.3pt;"> <p style="margin-left:0cm;">8</p> </td> 
     <td style="vertical-align:top;width:64.8pt;"> <p style="margin-left:0cm;">value</p> </td> 
     <td style="vertical-align:top;width:69.85pt;"> <p style="margin-left:0cm;">uint64_t</p> </td> 
     <td style="vertical-align:top;width:237.85pt;"> <p style="margin-left:0cm;">交易的比特币数量(单位是0.00000001)</p> </td> 
    </tr>
    <tr>
     <td style="vertical-align:top;width:42.3pt;"> <p style="margin-left:0cm;">1+</p> </td> 
     <td style="vertical-align:top;width:64.8pt;"> <p style="margin-left:0cm;">pk_script</p> </td> 
     <td style="vertical-align:top;width:69.85pt;"> <p style="margin-left:0cm;">var_int</p> </td> 
     <td style="vertical-align:top;width:237.85pt;"> <p style="margin-left:0cm;">pk_script的长度</p> </td> 
    </tr>
    <tr>
     <td style="vertical-align:top;width:42.3pt;"> <p style="margin-left:0cm;">?</p> </td> 
     <td style="vertical-align:top;width:64.8pt;"> <p style="margin-left:0cm;">pk_script</p> </td> 
     <td style="vertical-align:top;width:69.85pt;"> <p style="margin-left:0cm;">uchar[]</p> </td> 
     <td style="vertical-align:top;width:237.85pt;"> <p style="margin-left:0cm;">Usually contains the public key as a Bitcoin script setting up conditions to claim this output</p> </td> 
    </tr>
   </tbody>
  </table>
  <p>&nbsp;</p> 
  <h1>2. 签名计算：</h1> 
  <p style="margin-left:0cm;">将其他输入的pkscript长度调整为0,并末尾加上四字节小端序的sighash_type，并进行两次sha256：</p> 
  <p style="margin-left:0cm;"><img alt="" class="has" height="196" src="https://blog.uzzz.org/_p?https://img-blog.csdn.net/20180716191800230?watermark/2/text/aHR0cHM6Ly9ibG9nLmNzZG4ubmV0L2JlYmVzdDIwMTA=/font/5a6L5L2T/fontsize/400/fill/I0JBQkFCMA==/dissolve/70" width="456"></p> 
  <p style="margin-left:0cm;">在对这个hash进行签名计算，得出签名数据（签名时不用再计算hash，直接调用ecdsa-sign-digest）</p> 
  <h1 style="margin-left:0cm;">3. 计算示例</h1> 
  <p style="margin-left:0cm;">使用electrum生成的未签名数据示例：</p> 
  <p style="margin-left:0cm;">0100000001b37b9eefc3fa245f5ce36cb51c2d18a2d16e19d20867b23130e00f5280ccf82d010000002401ff210395cf5234e602954cba693138f3ba94c1cde7337675f5a94931e6226802d74d16fdffffff02002d3101000000001976a91425dc469afb4654d27742e3669bb3f5812268f2a188ac9ec2c901000000001976a9142dbbbd8bcff08a549be21efae747592049c9dc2d88ac71221300</p> 
  <p style="margin-left:0cm;">&nbsp;</p> 
  <p style="margin-left:0cm;">签名后的数据：</p> 
  <p style="margin-left:0cm;">0100000001b37b9eefc3fa245f5ce36cb51c2d18a2d16e19d20867b23130e00f5280ccf82d010000006a47304402202008714016f7e01c1a0010d7e6eb0b1f100b5a9b7c65a0506d62c1fbb9790cb102203daf6363c4039a739036ce152817f73d31319f060bbf5f354a0eeaf9f7ed3cd001210395cf5234e602954cba693138f3ba94c1cde7337675f5a94931e6226802d74d16fdffffff02002d3101000000001976a91425dc469afb4654d27742e3669bb3f5812268f2a188ac9ec2c901000000001976a9142dbbbd8bcff08a549be21efae747592049c9dc2d88ac71221300</p> 
  <p style="margin-left:0cm;">交易记录：</p> 
  <p style="margin-left:0cm;">https://www.blocktrail.com/tBTC/tx/8c6375e4509a186539dbbc2936feef7671f256969c917b633ec5db6b23c78ed1</p> 
  <p style="margin-left:0cm;">&nbsp;</p> 
  <p style="margin-left:0cm;">计算过程：</p> 
  <p style="margin-left:0cm;">协议版本：01000000</p> 
  <p style="margin-left:0cm;">输入数量：01</p> 
  <p style="margin-left:0cm;">输入列表：</p> 
  <ul>
   <li>32字节 前一次交易的hash</li> 
  </ul>
  <p style="margin-left:0cm;">&nbsp;&nbsp;&nbsp;&nbsp;&nbsp;&nbsp;&nbsp;&nbsp; b37b9eefc3fa245f5ce36cb51c2d18a2d16e19d20867b23130e00f5280ccf82d</p> 
  <p style="margin-left:0cm;">（默认是大端，要去网上查询详情的话，用的是小端</p> 
  <p style="margin-left:0cm;">2df8cc80520fe03031b26708d2196ed1a2182d1cb56ce35c5f24fac3ef9e7bb3）</p> 
  <ul>
   <li>4字节 前一次交易的输出index : 01000000（序号从0开始）</li> 
   <li>Pkscript 长度：VI （1字节）0x19（25字节）</li> 
   <li>Pkscript：</li> 
  </ul>
  <p style="margin-left:0cm;">OP_DUP（76） OP_HASH160（a9） 20字节数据（14）</p> 
  <p style="margin-left:0cm;">2dbbbd8bcff08a549be21efae747592049c9dc2d OP_EQUALVERIFY （88）OP_CHECKSIG（ac）</p> 
  <p style="margin-left:0cm;">&nbsp;</p> 
  <p style="margin-left:0cm;">1976a9142dbbbd8bcff08a549be21efae747592049c9dc2d88ac</p> 
  <ul>
   <li>Sequence： fdffffff</li> 
  </ul>
  <p style="margin-left:0cm;">输出数量：02</p> 
  <p style="margin-left:0cm;">输出列表：</p> 
  <ul>
   <li>Value： 8字节 002d310100000000</li> 
   <li>Pkscript长度 0x19 （25）</li> 
   <li>Pkscript：76a91425dc469afb4654d27742e3669bb3f5812268f2a188ac</li> 
   <li>Value：8字节 9ec2c90100000000</li> 
   <li>Pkscript长度 0x19 （25）</li> 
   <li>Pkscript：76a9142dbbbd8bcff08a549be21efae747592049c9dc2d88ac</li> 
  </ul>
  <p style="margin-left:0cm;">锁定时间：71221300</p> 
  <p style="margin-left:0cm;">HashType ：01000000（四字节）</p> 
  <p style="margin-left:0cm;">&nbsp;</p> 
  <p style="margin-left:0cm;">两次hash值 （405c87d455f2f26e554c05b657769e2af253135367bcc69d4d772f873d39a23c）</p> 
  <p style="margin-left:0cm;">进行2次sha256后，调用ecdsa_verify_digest计算签名，不需要在对2次sha256后的数据进行hash后再计算签名</p> 
  <p style="margin-left:0cm;">签名值：r，s：</p> 
  <p style="margin-left:0cm;">2008714016f7e01c1a0010d7e6eb0b1f100b5a9b7c65a0506d62c1fbb9790cb1</p> 
  <p style="margin-left:0cm;">3daf6363c4039a739036ce152817f73d31319f060bbf5f354a0eeaf9f7ed3cd0</p> 
  <p style="margin-left:0cm;">Pubk为0395cf5234e602954cba693138f3ba94c1cde7337675f5a94931e6226802d74d16</p> 
  <p>&nbsp;</p> 
 </div> 
</div> 
<div class="hide-article-box text-center"> 
 <a class="btn" id="btn-readmore" data-track-view="{&quot;mod&quot;:&quot;popu_376&quot;,&quot;con&quot;:&quot;,https://blog.csdn.net/bebest2010/article/details/81070071,&quot;}" data-track-click="{&quot;mod&quot;:&quot;popu_376&quot;,&quot;con&quot;:&quot;,https://blog.csdn.net/bebest2010/article/details/81070071,&quot;}">阅读更多</a> 
</div> 
<script>
						(function(){
							function setArticleH(btnReadmore,posi){
								var winH = $(window).height();
								var articleBox = $("div.article_content");
								var artH = articleBox.height();
								if(artH > winH*posi){
									articleBox.css({
										'height':winH*posi+'px',
										'overflow':'hidden'
									})
									btnReadmore.click(function(){
										articleBox.removeAttr("style");
										$(this).parent().remove();
									})
								}else{
									btnReadmore.parent().remove();
								}
							}
							var btnReadmore = $("#btn-readmore");
							if(btnReadmore.length>0){
								if(currentUserName){
									setArticleH(btnReadmore,3);
								}else{
									setArticleH(btnReadmore,1.2);
								}
							}
						})()
					</script>

	<script async src="//pagead2.googlesyndication.com/pagead/js/adsbygoogle.js"></script>
	<!-- 自定义广告 -->
	<ins class="adsbygoogle"
	     style="display:block"
	     data-ad-client="ca-pub-8889449066804352"
	     data-ad-slot="1494696990"
	     data-ad-format="auto"
	     data-full-width-responsive="true"></ins>
	<script>
		(adsbygoogle = window.adsbygoogle || []).push({});
	</script>


        <br />
        <a href="https://uzshare.com/">更多精彩内容</a>
      </section>
      
      <header style="right: 0;position: fixed;bottom: 60px;z-index: 100;background: none;border-bottom:none;">
        <ul style="display: block;">
          <li><a href="/" style="line-height: 40px;padding-top:0px;">回首页</a></li>
        </ul>
      </header>
      <header class="sm-hidden" style="right: 0;position: fixed;bottom: 60px;z-index: 100;background: none;border-bottom:none;">
          <img src="https://uzzz.org.cn/imgqcode.png" style="width:160px;" />
      </header>
      
      <header class="sm-hidden" style="left: 0;position: fixed;bottom: 60px;z-index: 100;background: none;border-bottom:none;">
          <img src="https://uzzz.org.cn/hou_imgqcode.png" style="width:160px;">
      </header>
    </div>
    
    <!--[if !IE]><script>fixScale(document);</script><![endif]-->

    <script>
    var _hmt = _hmt || [];
    (function() {
      var hm = document.createElement("script");
      hm.src = "https://hm.baidu.com/hm.js?ee64533f3c6a7a284cd39a37ee732c8b";
      var s = document.getElementsByTagName("script")[0]; 
      s.parentNode.insertBefore(hm, s);
    })();
    </script>

  </body>
</html>
