<!doctype html>
<html lang="en-US">
  <head>
    <meta charset="utf-8">
    <meta http-equiv="X-UA-Compatible" content="IE=edge">

<!-- Begin Jekyll SEO tag v2.5.0 -->
<title>pycoin学习笔记(5) 本地对交易签名(p2pkh) | 有组织在！</title>
<meta name="generator" content="Jekyll v3.8.5" />
<meta property="og:title" content="pycoin学习笔记(5) 本地对交易签名(p2pkh)" />
<meta property="og:locale" content="en_US" />
<meta name="description" content="注：本篇所有实验均在比特币测试网络（testnet）下进行 这次实验对交易进行本地签名，即不利用第三方钱包的签名功能。 本次的场景是，将mh4xx1pgjqLmjVUJxfdj3qV8BJaYARLdh9上的0.2btc转到2N113Ujyc6Pj7kvnZMyZNpAtAfj9EzoHStQ上去。 开始撸码： from pycoin.ecdsa import generator_secp256k1, public_pair_for_secret_exponent from pycoin.encoding import wif_to_secret_exponent, public_pair_to_sec from pycoin.tx.Tx import Tx from pycoin.tx.pay_to import build_hash160_lookup from pycoin.tx.tx_utils import create_tx exponent = wif_to_secret_exponent(&quot;KyBuY4RgVcvGfyqhv3DmET5UpYT3rA74nR3uY7cCA1JLXbDiSgsS&quot;) 初始化mh4xx1pgjqLmjVUJxfdj3qV8BJaYARLdh9的私钥。（这是十分机密的东西，绝对不能暴露在网络上，但由于是testnet，便无所谓了。） src_tx_hex = &quot;01000000000101d56e1e4579ac2b407c105eb02d9749a73defd082837229dc290260d199f8283501000000171600148c943eca5ee4d2fef125ba53efc267b1f012a7abffffffff02002d3101000000001976a9141105fb9ff85657afb12a5c814776346b23db3a6688ac3e62fb040000000017a9143d7b2397ebb714da591028219b1162d6f21b4037870247304402204069d19f33b5b3b2bbfd8808059b73fccb288d9bd7273eae9178c24232d0ab360220723dd5d2f16a63ff3794e4a8c5381a616c6f5266b4427dd9808674a51a914dc4012103edaad325dd4297b31a5953aec10e6a0240f404ba4a4eb72f51be2a4b7ae8c02100000000&quot; src_tx = Tx.from_hex(src_tx_hex) spendable = src_tx.tx_outs_as_spendable()[0] 初始化即将花费掉的交易。 to_address = &quot;2N113Ujyc6Pj7kvnZMyZNpAtAfj9EzoHStQ&quot; unsigned_new_tx = create_tx([spendable],[(to_address, 19990000)]) unsigned_new_tx_hex = unsigned_new_tx.as_hex() print(unsigned_new_tx_hex) #01000000013fe9b07e927cd99ec70c92cdb083a3cb133253c1106064b14727ff68a284be150000000000ffffffff01f00531010000000017a914551268f89b61451ad1bd9912d8277b31e17764d18700000000 创建待签名的交易，即将0.2btc转给2N113Ujyc6Pj7kvnZMyZNpAtAfj9EzoHStQ。此处实际是0.1999btc,少掉的0.0001btc其实是给矿工的辛苦费。 rom bitcoinrpc.authproxy import AuthServiceProxy conn = AuthServiceProxy(&quot;http://%s:%s@192.168.1.103:18332&quot;%(&quot;fftest&quot;,&quot;fftest123&quot;)) print(conn.decoderawtransaction(unsigned_new_tx_hex)) #{&#39;txid&#39;: &#39;80436f3af55c5940e6ff7babd98699b3a7b0f4a698b3eb61c3a9a561510e5ba3&#39;, &#39;hash&#39;: &#39;80436f3af55c5940e6ff7babd98699b3a7b0f4a698b3eb61c3a9a561510e5ba3&#39;, &#39;version&#39;: 1, &#39;size&#39;: 83, &#39;vsize&#39;: 83, &#39;locktime&#39;: 0, &#39;vin&#39;: [{&#39;txid&#39;: &#39;15be84a268ff2747b1646010c1533213cba383b0cd920cc79ed97c927eb0e93f&#39;, &#39;vout&#39;: 0, &#39;scriptSig&#39;: {&#39;asm&#39;: &#39;&#39;, &#39;hex&#39;: &#39;&#39;}, &#39;sequence&#39;: 4294967295}], &#39;vout&#39;: [{&#39;value&#39;: Decimal(&#39;0.19990000&#39;), &#39;n&#39;: 0, &#39;scriptPubKey&#39;: {&#39;asm&#39;: &#39;OP_HASH160 551268f89b61451ad1bd9912d8277b31e17764d1 OP_EQUAL&#39;, &#39;hex&#39;: &#39;a914551268f89b61451ad1bd9912d8277b31e17764d187&#39;, &#39;reqSigs&#39;: 1, &#39;type&#39;: &#39;scripthash&#39;, &#39;addresses&#39;: [&#39;2N113Ujyc6Pj7kvnZMyZNpAtAfj9EzoHStQ&#39;]}}]} 用jsonrpc查看下新交易，此步骤无关紧要。 solver = build_hash160_lookup([exponent]) signed_new_tx = unsigned_new_tx.sign(solver) print(signed_new_tx.bad_signature_count()) #0 signed_new_tx_hex = signed_new_tx.as_hex() print(signed_new_tx_hex) #01000000013fe9b07e927cd99ec70c92cdb083a3cb133253c1106064b14727ff68a284be15000000006a47304402201216e53509fccdd6d71a6a4f5ac029921cc3ef49196f64aeddc97660e8149755022039eb50609def923b09e43c9f5d08649a1349249afafc4cae918e350f8ac1f3370121027d3bac55298238844b087f727c63965f728bda4955c778c7609053646f03977dffffffff01f00531010000000017a914551268f89b61451ad1bd9912d8277b31e17764d18700000000 这里到了最关键的签名步骤了，首先构造出一个私钥的字典，然后直接调用sign进行签名，得到签好名后的交易。复杂的东西都被pycoin封装好了，更进一步需要对pycoin的实现源码好好研究。 txid = conn.sendrawtransaction(signed_new_tx_hex) print(txid) #dae85dc12e57d42bb6a7d8d3627fbff628751cfa44eb96c9edd467a1d82014b2 广播到比特币网络中：https://test-insight.bitpay.com/tx/dae85dc12e57d42bb6a7d8d3627fbff628751cfa44eb96c9edd467a1d82014b2 阅读更多" />
<meta property="og:description" content="注：本篇所有实验均在比特币测试网络（testnet）下进行 这次实验对交易进行本地签名，即不利用第三方钱包的签名功能。 本次的场景是，将mh4xx1pgjqLmjVUJxfdj3qV8BJaYARLdh9上的0.2btc转到2N113Ujyc6Pj7kvnZMyZNpAtAfj9EzoHStQ上去。 开始撸码： from pycoin.ecdsa import generator_secp256k1, public_pair_for_secret_exponent from pycoin.encoding import wif_to_secret_exponent, public_pair_to_sec from pycoin.tx.Tx import Tx from pycoin.tx.pay_to import build_hash160_lookup from pycoin.tx.tx_utils import create_tx exponent = wif_to_secret_exponent(&quot;KyBuY4RgVcvGfyqhv3DmET5UpYT3rA74nR3uY7cCA1JLXbDiSgsS&quot;) 初始化mh4xx1pgjqLmjVUJxfdj3qV8BJaYARLdh9的私钥。（这是十分机密的东西，绝对不能暴露在网络上，但由于是testnet，便无所谓了。） src_tx_hex = &quot;01000000000101d56e1e4579ac2b407c105eb02d9749a73defd082837229dc290260d199f8283501000000171600148c943eca5ee4d2fef125ba53efc267b1f012a7abffffffff02002d3101000000001976a9141105fb9ff85657afb12a5c814776346b23db3a6688ac3e62fb040000000017a9143d7b2397ebb714da591028219b1162d6f21b4037870247304402204069d19f33b5b3b2bbfd8808059b73fccb288d9bd7273eae9178c24232d0ab360220723dd5d2f16a63ff3794e4a8c5381a616c6f5266b4427dd9808674a51a914dc4012103edaad325dd4297b31a5953aec10e6a0240f404ba4a4eb72f51be2a4b7ae8c02100000000&quot; src_tx = Tx.from_hex(src_tx_hex) spendable = src_tx.tx_outs_as_spendable()[0] 初始化即将花费掉的交易。 to_address = &quot;2N113Ujyc6Pj7kvnZMyZNpAtAfj9EzoHStQ&quot; unsigned_new_tx = create_tx([spendable],[(to_address, 19990000)]) unsigned_new_tx_hex = unsigned_new_tx.as_hex() print(unsigned_new_tx_hex) #01000000013fe9b07e927cd99ec70c92cdb083a3cb133253c1106064b14727ff68a284be150000000000ffffffff01f00531010000000017a914551268f89b61451ad1bd9912d8277b31e17764d18700000000 创建待签名的交易，即将0.2btc转给2N113Ujyc6Pj7kvnZMyZNpAtAfj9EzoHStQ。此处实际是0.1999btc,少掉的0.0001btc其实是给矿工的辛苦费。 rom bitcoinrpc.authproxy import AuthServiceProxy conn = AuthServiceProxy(&quot;http://%s:%s@192.168.1.103:18332&quot;%(&quot;fftest&quot;,&quot;fftest123&quot;)) print(conn.decoderawtransaction(unsigned_new_tx_hex)) #{&#39;txid&#39;: &#39;80436f3af55c5940e6ff7babd98699b3a7b0f4a698b3eb61c3a9a561510e5ba3&#39;, &#39;hash&#39;: &#39;80436f3af55c5940e6ff7babd98699b3a7b0f4a698b3eb61c3a9a561510e5ba3&#39;, &#39;version&#39;: 1, &#39;size&#39;: 83, &#39;vsize&#39;: 83, &#39;locktime&#39;: 0, &#39;vin&#39;: [{&#39;txid&#39;: &#39;15be84a268ff2747b1646010c1533213cba383b0cd920cc79ed97c927eb0e93f&#39;, &#39;vout&#39;: 0, &#39;scriptSig&#39;: {&#39;asm&#39;: &#39;&#39;, &#39;hex&#39;: &#39;&#39;}, &#39;sequence&#39;: 4294967295}], &#39;vout&#39;: [{&#39;value&#39;: Decimal(&#39;0.19990000&#39;), &#39;n&#39;: 0, &#39;scriptPubKey&#39;: {&#39;asm&#39;: &#39;OP_HASH160 551268f89b61451ad1bd9912d8277b31e17764d1 OP_EQUAL&#39;, &#39;hex&#39;: &#39;a914551268f89b61451ad1bd9912d8277b31e17764d187&#39;, &#39;reqSigs&#39;: 1, &#39;type&#39;: &#39;scripthash&#39;, &#39;addresses&#39;: [&#39;2N113Ujyc6Pj7kvnZMyZNpAtAfj9EzoHStQ&#39;]}}]} 用jsonrpc查看下新交易，此步骤无关紧要。 solver = build_hash160_lookup([exponent]) signed_new_tx = unsigned_new_tx.sign(solver) print(signed_new_tx.bad_signature_count()) #0 signed_new_tx_hex = signed_new_tx.as_hex() print(signed_new_tx_hex) #01000000013fe9b07e927cd99ec70c92cdb083a3cb133253c1106064b14727ff68a284be15000000006a47304402201216e53509fccdd6d71a6a4f5ac029921cc3ef49196f64aeddc97660e8149755022039eb50609def923b09e43c9f5d08649a1349249afafc4cae918e350f8ac1f3370121027d3bac55298238844b087f727c63965f728bda4955c778c7609053646f03977dffffffff01f00531010000000017a914551268f89b61451ad1bd9912d8277b31e17764d18700000000 这里到了最关键的签名步骤了，首先构造出一个私钥的字典，然后直接调用sign进行签名，得到签好名后的交易。复杂的东西都被pycoin封装好了，更进一步需要对pycoin的实现源码好好研究。 txid = conn.sendrawtransaction(signed_new_tx_hex) print(txid) #dae85dc12e57d42bb6a7d8d3627fbff628751cfa44eb96c9edd467a1d82014b2 广播到比特币网络中：https://test-insight.bitpay.com/tx/dae85dc12e57d42bb6a7d8d3627fbff628751cfa44eb96c9edd467a1d82014b2 阅读更多" />
<meta property="og:site_name" content="有组织在！" />
<meta property="og:type" content="article" />
<meta property="article:published_time" content="2018-07-13T00:00:00+08:00" />
<script type="application/ld+json">
{"description":"注：本篇所有实验均在比特币测试网络（testnet）下进行 这次实验对交易进行本地签名，即不利用第三方钱包的签名功能。 本次的场景是，将mh4xx1pgjqLmjVUJxfdj3qV8BJaYARLdh9上的0.2btc转到2N113Ujyc6Pj7kvnZMyZNpAtAfj9EzoHStQ上去。 开始撸码： from pycoin.ecdsa import generator_secp256k1, public_pair_for_secret_exponent from pycoin.encoding import wif_to_secret_exponent, public_pair_to_sec from pycoin.tx.Tx import Tx from pycoin.tx.pay_to import build_hash160_lookup from pycoin.tx.tx_utils import create_tx exponent = wif_to_secret_exponent(&quot;KyBuY4RgVcvGfyqhv3DmET5UpYT3rA74nR3uY7cCA1JLXbDiSgsS&quot;) 初始化mh4xx1pgjqLmjVUJxfdj3qV8BJaYARLdh9的私钥。（这是十分机密的东西，绝对不能暴露在网络上，但由于是testnet，便无所谓了。） src_tx_hex = &quot;01000000000101d56e1e4579ac2b407c105eb02d9749a73defd082837229dc290260d199f8283501000000171600148c943eca5ee4d2fef125ba53efc267b1f012a7abffffffff02002d3101000000001976a9141105fb9ff85657afb12a5c814776346b23db3a6688ac3e62fb040000000017a9143d7b2397ebb714da591028219b1162d6f21b4037870247304402204069d19f33b5b3b2bbfd8808059b73fccb288d9bd7273eae9178c24232d0ab360220723dd5d2f16a63ff3794e4a8c5381a616c6f5266b4427dd9808674a51a914dc4012103edaad325dd4297b31a5953aec10e6a0240f404ba4a4eb72f51be2a4b7ae8c02100000000&quot; src_tx = Tx.from_hex(src_tx_hex) spendable = src_tx.tx_outs_as_spendable()[0] 初始化即将花费掉的交易。 to_address = &quot;2N113Ujyc6Pj7kvnZMyZNpAtAfj9EzoHStQ&quot; unsigned_new_tx = create_tx([spendable],[(to_address, 19990000)]) unsigned_new_tx_hex = unsigned_new_tx.as_hex() print(unsigned_new_tx_hex) #01000000013fe9b07e927cd99ec70c92cdb083a3cb133253c1106064b14727ff68a284be150000000000ffffffff01f00531010000000017a914551268f89b61451ad1bd9912d8277b31e17764d18700000000 创建待签名的交易，即将0.2btc转给2N113Ujyc6Pj7kvnZMyZNpAtAfj9EzoHStQ。此处实际是0.1999btc,少掉的0.0001btc其实是给矿工的辛苦费。 rom bitcoinrpc.authproxy import AuthServiceProxy conn = AuthServiceProxy(&quot;http://%s:%s@192.168.1.103:18332&quot;%(&quot;fftest&quot;,&quot;fftest123&quot;)) print(conn.decoderawtransaction(unsigned_new_tx_hex)) #{&#39;txid&#39;: &#39;80436f3af55c5940e6ff7babd98699b3a7b0f4a698b3eb61c3a9a561510e5ba3&#39;, &#39;hash&#39;: &#39;80436f3af55c5940e6ff7babd98699b3a7b0f4a698b3eb61c3a9a561510e5ba3&#39;, &#39;version&#39;: 1, &#39;size&#39;: 83, &#39;vsize&#39;: 83, &#39;locktime&#39;: 0, &#39;vin&#39;: [{&#39;txid&#39;: &#39;15be84a268ff2747b1646010c1533213cba383b0cd920cc79ed97c927eb0e93f&#39;, &#39;vout&#39;: 0, &#39;scriptSig&#39;: {&#39;asm&#39;: &#39;&#39;, &#39;hex&#39;: &#39;&#39;}, &#39;sequence&#39;: 4294967295}], &#39;vout&#39;: [{&#39;value&#39;: Decimal(&#39;0.19990000&#39;), &#39;n&#39;: 0, &#39;scriptPubKey&#39;: {&#39;asm&#39;: &#39;OP_HASH160 551268f89b61451ad1bd9912d8277b31e17764d1 OP_EQUAL&#39;, &#39;hex&#39;: &#39;a914551268f89b61451ad1bd9912d8277b31e17764d187&#39;, &#39;reqSigs&#39;: 1, &#39;type&#39;: &#39;scripthash&#39;, &#39;addresses&#39;: [&#39;2N113Ujyc6Pj7kvnZMyZNpAtAfj9EzoHStQ&#39;]}}]} 用jsonrpc查看下新交易，此步骤无关紧要。 solver = build_hash160_lookup([exponent]) signed_new_tx = unsigned_new_tx.sign(solver) print(signed_new_tx.bad_signature_count()) #0 signed_new_tx_hex = signed_new_tx.as_hex() print(signed_new_tx_hex) #01000000013fe9b07e927cd99ec70c92cdb083a3cb133253c1106064b14727ff68a284be15000000006a47304402201216e53509fccdd6d71a6a4f5ac029921cc3ef49196f64aeddc97660e8149755022039eb50609def923b09e43c9f5d08649a1349249afafc4cae918e350f8ac1f3370121027d3bac55298238844b087f727c63965f728bda4955c778c7609053646f03977dffffffff01f00531010000000017a914551268f89b61451ad1bd9912d8277b31e17764d18700000000 这里到了最关键的签名步骤了，首先构造出一个私钥的字典，然后直接调用sign进行签名，得到签好名后的交易。复杂的东西都被pycoin封装好了，更进一步需要对pycoin的实现源码好好研究。 txid = conn.sendrawtransaction(signed_new_tx_hex) print(txid) #dae85dc12e57d42bb6a7d8d3627fbff628751cfa44eb96c9edd467a1d82014b2 广播到比特币网络中：https://test-insight.bitpay.com/tx/dae85dc12e57d42bb6a7d8d3627fbff628751cfa44eb96c9edd467a1d82014b2 阅读更多","@type":"BlogPosting","url":"/2018/07/13/96c67b42e2b1af3e2b0d24a5305a251e.html","headline":"pycoin学习笔记(5) 本地对交易签名(p2pkh)","dateModified":"2018-07-13T00:00:00+08:00","datePublished":"2018-07-13T00:00:00+08:00","mainEntityOfPage":{"@type":"WebPage","@id":"/2018/07/13/96c67b42e2b1af3e2b0d24a5305a251e.html"},"@context":"http://schema.org"}</script>
<!-- End Jekyll SEO tag -->


    <link rel="stylesheet" href="/assets/css/style.css?v=">
    <script src="/assets/js/scale.fix.js"></script>
    <meta name="viewport" content="width=device-width, initial-scale=1, user-scalable=no">

    <!--[if lt IE 9]>
    <script src="//html5shiv.googlecode.com/svn/trunk/html5.js"></script>
    <![endif]-->
    
    <!-- Global site tag (gtag.js) - Google Analytics -->
    <script async src="https://www.googletagmanager.com/gtag/js?id=UA-123344652-1"></script>
    <script>
      window.dataLayer = window.dataLayer || [];
      function gtag(){dataLayer.push(arguments);}
      gtag('js', new Date());

      gtag('config', 'UA-123344652-1');
    </script>
    
    <script async src="//pagead2.googlesyndication.com/pagead/js/adsbygoogle.js"></script>
    <script>
      (adsbygoogle = window.adsbygoogle || []).push({
        google_ad_client: "ca-pub-8889449066804352",
        enable_page_level_ads: true
      });
    </script>
    
    <script async custom-element="amp-auto-ads"
        src="https://cdn.ampproject.org/v0/amp-auto-ads-0.1.js">
    </script>
    
    <style>
      @media screen and (max-width:760px){
        .sm-hidden{display:none; }
      }
    </style>

  </head>
  <body>
    
        <amp-auto-ads type="adsense"
              data-ad-client="ca-pub-8889449066804352">
        </amp-auto-ads>
    
    <div class="wrapper">
      <header  class="without-description" >
        <h1>pycoin学习笔记(5) 本地对交易签名(p2pkh)</h1>
        
        
        <ul>
            <li><a href="https://uzshare.com/" style="line-height: unset;" target="_blank"><strong>柚子社区</strong></a></li>
        </ul>
        
        
        
      </header>
      <section>

<div style="margin:0 0 8px 0;">
<style>
table.gsc-input {
    margin: 0;
}
.cse .gsc-control-cse, .gsc-control-cse {
    padding: 0;
    width: auto;
}
.gsc-search-box td {
    border-bottom: none;
}
</style>
<script>
  (function() {
    var cx = '004431708863642777669:qan2_6ugotw';
    var gcse = document.createElement('script');
    gcse.type = 'text/javascript';
    gcse.async = true;
    gcse.src = 'https://cse.google.com/cse.js?cx=' + cx;
    var s = document.getElementsByTagName('script')[0];
    s.parentNode.insertBefore(gcse, s);
  })();
</script>
<gcse:search></gcse:search>
</div>
	

        <div id="article_content" class="article_content clearfix csdn-tracking-statistics" data-pid="blog" data-mod="popu_307" data-dsm="post"> 
 <link rel="stylesheet" href="https://csdnimg.cn/release/phoenix/template/css/ck_htmledit_views-e2445db1a8.css"> 
 <div class="htmledit_views"> 
  <p><span style="font-weight:700;font-family:'-apple-system', 'SF UI Text', Arial, 'PingFang SC', 'Hiragino Sans GB', 'Microsoft YaHei', 'WenQuanYi Micro Hei', sans-serif, SimHei, SimSun;background-color:rgb(255,255,255);">注：本篇所有实验均在比特币测试网络（testnet）下进行</span><br></p>
  <p>这次实验对交易进行本地签名，即不利用第三方钱包的签名功能。</p>
  <p>本次的场景是，将mh4xx1pgjqLmjVUJxfdj3qV8BJaYARLdh9上的0.2btc转到2N113Ujyc6Pj7kvnZMyZNpAtAfj9EzoHStQ上去。</p>
  <p>开始撸码：</p>
  <pre><code class="language-python">from pycoin.ecdsa import generator_secp256k1, public_pair_for_secret_exponent
from pycoin.encoding import wif_to_secret_exponent, public_pair_to_sec
from pycoin.tx.Tx import Tx
from pycoin.tx.pay_to import build_hash160_lookup
from pycoin.tx.tx_utils import create_tx


exponent = wif_to_secret_exponent("KyBuY4RgVcvGfyqhv3DmET5UpYT3rA74nR3uY7cCA1JLXbDiSgsS")
</code></pre>
  <p>初始化mh4xx1pgjqLmjVUJxfdj3qV8BJaYARLdh9的私钥。（这是十分机密的东西，绝对不能暴露在网络上，但由于是testnet，便无所谓了。）</p>
  <p><br></p>
  <pre><code class="language-python">src_tx_hex = "01000000000101d56e1e4579ac2b407c105eb02d9749a73defd082837229dc290260d199f8283501000000171600148c943eca5ee4d2fef125ba53efc267b1f012a7abffffffff02002d3101000000001976a9141105fb9ff85657afb12a5c814776346b23db3a6688ac3e62fb040000000017a9143d7b2397ebb714da591028219b1162d6f21b4037870247304402204069d19f33b5b3b2bbfd8808059b73fccb288d9bd7273eae9178c24232d0ab360220723dd5d2f16a63ff3794e4a8c5381a616c6f5266b4427dd9808674a51a914dc4012103edaad325dd4297b31a5953aec10e6a0240f404ba4a4eb72f51be2a4b7ae8c02100000000"
src_tx = Tx.from_hex(src_tx_hex)
spendable = src_tx.tx_outs_as_spendable()[0]</code></pre>
  <p>初始化即将花费掉的交易。</p>
  <pre><code class="language-python">to_address = "2N113Ujyc6Pj7kvnZMyZNpAtAfj9EzoHStQ"
unsigned_new_tx = create_tx([spendable],[(to_address, 19990000)])
unsigned_new_tx_hex = unsigned_new_tx.as_hex()
print(unsigned_new_tx_hex)
#01000000013fe9b07e927cd99ec70c92cdb083a3cb133253c1106064b14727ff68a284be150000000000ffffffff01f00531010000000017a914551268f89b61451ad1bd9912d8277b31e17764d18700000000
</code></pre>
  <p>创建待签名的交易，即将0.2btc转给2N113Ujyc6Pj7kvnZMyZNpAtAfj9EzoHStQ。此处实际是0.1999btc,少掉的0.0001btc其实是给矿工的辛苦费。</p>
  <pre><code class="language-python">rom bitcoinrpc.authproxy import AuthServiceProxy
conn = AuthServiceProxy("http://%s:%s@192.168.1.103:18332"%("fftest","fftest123"))
print(conn.decoderawtransaction(unsigned_new_tx_hex))
#{'txid': '80436f3af55c5940e6ff7babd98699b3a7b0f4a698b3eb61c3a9a561510e5ba3', 'hash': '80436f3af55c5940e6ff7babd98699b3a7b0f4a698b3eb61c3a9a561510e5ba3', 'version': 1, 'size': 83, 'vsize': 83, 'locktime': 0, 'vin': [{'txid': '15be84a268ff2747b1646010c1533213cba383b0cd920cc79ed97c927eb0e93f', 'vout': 0, 'scriptSig': {'asm': '', 'hex': ''}, 'sequence': 4294967295}], 'vout': [{'value': Decimal('0.19990000'), 'n': 0, 'scriptPubKey': {'asm': 'OP_HASH160 551268f89b61451ad1bd9912d8277b31e17764d1 OP_EQUAL', 'hex': 'a914551268f89b61451ad1bd9912d8277b31e17764d187', 'reqSigs': 1, 'type': 'scripthash', 'addresses': ['2N113Ujyc6Pj7kvnZMyZNpAtAfj9EzoHStQ']}}]}
</code></pre>
  <p>用jsonrpc查看下新交易，此步骤无关紧要。</p>
  <pre><code class="language-python">solver = build_hash160_lookup([exponent])
signed_new_tx = unsigned_new_tx.sign(solver)
print(signed_new_tx.bad_signature_count())
#0
signed_new_tx_hex = signed_new_tx.as_hex()
print(signed_new_tx_hex)
#01000000013fe9b07e927cd99ec70c92cdb083a3cb133253c1106064b14727ff68a284be15000000006a47304402201216e53509fccdd6d71a6a4f5ac029921cc3ef49196f64aeddc97660e8149755022039eb50609def923b09e43c9f5d08649a1349249afafc4cae918e350f8ac1f3370121027d3bac55298238844b087f727c63965f728bda4955c778c7609053646f03977dffffffff01f00531010000000017a914551268f89b61451ad1bd9912d8277b31e17764d18700000000</code></pre>
  <p>这里到了最关键的签名步骤了，首先构造出一个私钥的字典，然后直接调用sign进行签名，得到签好名后的交易。复杂的东西都被pycoin封装好了，更进一步需要对pycoin的实现源码好好研究。</p>
  <pre><code class="language-python">txid = conn.sendrawtransaction(signed_new_tx_hex)
print(txid)
#dae85dc12e57d42bb6a7d8d3627fbff628751cfa44eb96c9edd467a1d82014b2
</code></pre>
  <p>广播到比特币网络中：<a href="https://test-insight.bitpay.com/tx/dae85dc12e57d42bb6a7d8d3627fbff628751cfa44eb96c9edd467a1d82014b2" rel="nofollow">https://test-insight.bitpay.com/tx/dae85dc12e57d42bb6a7d8d3627fbff628751cfa44eb96c9edd467a1d82014b2</a></p> 
 </div> 
</div> 
<div class="hide-article-box text-center"> 
 <a class="btn btn-red-hollow" id="btn-readmore" data-track-view="{&quot;mod&quot;:&quot;popu_376&quot;,&quot;con&quot;:&quot;,https://blog.csdn.net/lucyTheSlayer/article/details/81032630,&quot;}" data-track-click="{&quot;mod&quot;:&quot;popu_376&quot;,&quot;con&quot;:&quot;,https://blog.csdn.net/lucyTheSlayer/article/details/81032630,&quot;}">阅读更多</a> 
</div>

	<script async src="//pagead2.googlesyndication.com/pagead/js/adsbygoogle.js"></script>
	<!-- 自定义广告 -->
	<ins class="adsbygoogle"
	     style="display:block"
	     data-ad-client="ca-pub-8889449066804352"
	     data-ad-slot="1494696990"
	     data-ad-format="auto"
	     data-full-width-responsive="true"></ins>
	<script>
		(adsbygoogle = window.adsbygoogle || []).push({});
	</script>


        <br />
        <a href="https://uzshare.com/">更多精彩内容</a>
      </section>
      
      <header style="right: 0;position: fixed;bottom: 60px;z-index: 100;background: none;border-bottom:none;">
        <ul style="display: block;">
          <li><a href="/" style="line-height: 40px;padding-top:0px;">回首页</a></li>
        </ul>
      </header>
      <header class="sm-hidden" style="right: 0;position: fixed;bottom: 60px;z-index: 100;background: none;border-bottom:none;">
          <img src="https://uzzz.org.cn/imgqcode.png" style="width:160px;" />
      </header>
      
      <header class="sm-hidden" style="left: 0;position: fixed;bottom: 60px;z-index: 100;background: none;border-bottom:none;">
          <img src="https://uzzz.org.cn/hou_imgqcode.png" style="width:160px;">
      </header>
    </div>
    
    <!--[if !IE]><script>fixScale(document);</script><![endif]-->

    <script>
    var _hmt = _hmt || [];
    (function() {
      var hm = document.createElement("script");
      hm.src = "https://hm.baidu.com/hm.js?ee64533f3c6a7a284cd39a37ee732c8b";
      var s = document.getElementsByTagName("script")[0]; 
      s.parentNode.insertBefore(hm, s);
    })();
    </script>

  </body>
</html>
