<!doctype html>
<html lang="en-US">
  <head>
    <meta charset="utf-8">
    <meta http-equiv="X-UA-Compatible" content="IE=edge">

<!-- Begin Jekyll SEO tag v2.5.0 -->
<title>隔离见证交易签名计算示例 | 有组织在！</title>
<meta name="generator" content="Jekyll v3.8.5" />
<meta property="og:title" content="隔离见证交易签名计算示例" />
<meta property="og:locale" content="en_US" />
<meta name="description" content="1.隔离见证交易的数据格式 隔离见证交易的数据格式如下： [nVersion][marker][flag][txins][txouts][witness][nLockTime] 每一个tx_in 有相应的一个witness字段，witness字段以一个vint开头，表明栈元素的数量。每一个栈元素以vint开头表示其长度。 2.隔离见证签名计算方法 &nbsp;签名为使用私钥对如下hash值，进行签名。 Double SHA256 of the serialization of: &nbsp;&nbsp;&nbsp;&nbsp; 1. nVersion of the transaction (4-byte little endian) &nbsp;&nbsp;&nbsp;&nbsp; 2. hashPrevouts (32-byte hash) &nbsp;&nbsp;&nbsp;&nbsp; 3. hashSequence (32-byte hash) &nbsp;&nbsp;&nbsp;&nbsp; 4. outpoint (32-byte hash + 4-byte little endian) &nbsp;&nbsp;&nbsp;&nbsp; 5. scriptCode of the input (serialized as scripts inside CTxOuts) &nbsp;&nbsp;&nbsp;&nbsp; 6. value of the output spent by this input (8-byte little endian) &nbsp;&nbsp;&nbsp;&nbsp; 7. nSequence of the input (4-byte little endian) &nbsp;&nbsp;&nbsp;&nbsp; 8. hashOutputs (32-byte hash) &nbsp;&nbsp;&nbsp;&nbsp; 9. nLocktime of the transaction (4-byte little endian) &nbsp; &nbsp; 10. sighash type of the signature (4-byte little endian) 3. 隔离见证签名计算示例 以下已隔离见证地址向另外一个隔离见证地址转账为例（test chain）： 地址 tb1qn7fgrgxlshl95c9n63hcgsn8sau6hcsr34y7yg 转账给tb1q8z6wvtv0cj88rtd6s2wupdycpurgj4723wrkrl 和 tb1qdpgfmqv5u5dt8zhuu07wt873xqjjshul69tmmc 转账信息见&nbsp;https://testnet.blockchain.info/tx/93bdfff3f9f36cfea4aab010d9d0289d1a5dec3c633a485d4bef953431129554?show_adv=true 3.1 签名后交易数据如下： 01000000000101966d7ffa9b293ac410d3bd26a99159adffe697223860e5ab3ed304a572a695f90100000000fdffffff02002d31010000000016001438b4e62d8fc48e71adba829dc0b4980f068957ca9ec2c9010000000016001468509d8194e51ab38afce3fce59fd13025285f9f0248304502210099c39c2801527700753cd74a1e9280fbc7a32ce935a1aaca8821876b7982f53b022075f47ed60906900e8f67be50580ec0e8d734603f4a35d3753d442eae1a428f98012102977de8036776186940a5485ed33db045e4685515e0fc352245dda1dd7cd554f55ce71300 &nbsp; 3.2 交易基本信息 nVersion: 01000000 输入数量：01 输入列表： 32字节 前一次交易的hash &nbsp;&nbsp;&nbsp;&nbsp;&nbsp;&nbsp;&nbsp;&nbsp; 966d7ffa9b293ac410d3bd26a99159adffe697223860e5ab3ed304a572a695f9 （默认是大端，要去网上查询详情的话，用的是小端 f995a672a504d33eabe560382297e6ffad5991a926bdd310c43a299bfa7f6d96） 4字节 前一次交易的输出index : 0100000000（序号从0开始） Pkscript 长度：VI （1字节）0x16（22字节） Pkscript： 0[] PUSHDATA(20)[9f9281a0df85fe5a60b3d46f8442678779abe203] 1600149f9281a0df85fe5a60b3d46f8442678779abe203（使用的时候需要转换下 1976a9149f9281a0df85fe5a60b3d46f8442678779abe20388ac） Sequence： fdffffff 输出数量：02 输出列表： Value： 8字节 002d310100000000 Pkscript长度 0x16 （22） Pkscript：16001438b4e62d8fc48e71adba829dc0b4980f068957ca Value：8字节 9ec2c90100000000 Pkscript长度 0x16 （22） Pkscript：16001468509d8194e51ab38afce3fce59fd13025285f9f 锁定时间：5ce71300 HashType ：01000000（四字节） &nbsp; 3.3 计算hash值 （1）nVersion:&nbsp;&nbsp;&nbsp; 01000000 （2） hashPrevouts: dSHA256（966d7ffa9b293ac410d3bd26a99159adffe697223860e5ab3ed304a572a695f901000000） = e54e21c0b72aa6409423de5bf165cd73f8a73f81b0a6f16e62e34ad054961ec8 （3）hashSequence:&nbsp; dSHA256（fdffffff） = caf35e5224de16efa3ccaf41070f6e7b9432b6f79551e629fca9d1c03b43bc52 （4）outpoint:&nbsp;&nbsp; 32-byte hash + 4-byte index 966d7ffa9b293ac410d3bd26a99159adffe697223860e5ab3ed304a572a695f901000000 （5）scriptCode: 对于&nbsp;P2WPKH 隔离见证 the scriptCode 为0x1976a914{20-byte-pubkey-hash}88ac. 600149f9281a0df85fe5a60b3d46f8442678779abe203 ====》 1976a9149f9281a0df85fe5a60b3d46f8442678779abe20388ac （6）amount: tx_in 的数量，需要从上个交易的tx_out 获取 80f0fa0200000000 （7）nSequence: fdffffff （8）hashOutputs: dSHA256(002d31010000000016001438b4e62d8fc48e71adba829dc0b4980f068957ca9ec2c9010000000016001468509d8194e51ab38afce3fce59fd13025285f9f)= 0a868ceb2f1b555a25d489ca6920d2d57e70c767ee5ac9f6b82636f99aa28884 （9）nLockTime:&nbsp;&nbsp;5ce71300 （10）nHashType:&nbsp; &nbsp;0x01000000 &nbsp; dsha256（1-10）=&nbsp;8fcff20cd3a63a32cb16ceb74bc893fbb2e59c3bf398c1eeafec0332c7cf8b8b 利用tb1qn7fgrgxlshl95c9n63hcgsn8sau6hcsr34y7yg地址对应的私钥计算出签名 R: 99c39c2801527700753cd74a1e9280fbc7a32ce935a1aaca8821876b7982f53b S: 75f47ed60906900e8f67be50580ec0e8d734603f4a35d3753d442eae1a428f98 地址对应的公钥为 02977DE8036776186940A5485ED33DB045E4685515E0FC352245DDA1DD7CD554F5 参考文档： https://github.com/bitcoin/bips/blob/master/bip-0143.mediawiki 阅读更多" />
<meta property="og:description" content="1.隔离见证交易的数据格式 隔离见证交易的数据格式如下： [nVersion][marker][flag][txins][txouts][witness][nLockTime] 每一个tx_in 有相应的一个witness字段，witness字段以一个vint开头，表明栈元素的数量。每一个栈元素以vint开头表示其长度。 2.隔离见证签名计算方法 &nbsp;签名为使用私钥对如下hash值，进行签名。 Double SHA256 of the serialization of: &nbsp;&nbsp;&nbsp;&nbsp; 1. nVersion of the transaction (4-byte little endian) &nbsp;&nbsp;&nbsp;&nbsp; 2. hashPrevouts (32-byte hash) &nbsp;&nbsp;&nbsp;&nbsp; 3. hashSequence (32-byte hash) &nbsp;&nbsp;&nbsp;&nbsp; 4. outpoint (32-byte hash + 4-byte little endian) &nbsp;&nbsp;&nbsp;&nbsp; 5. scriptCode of the input (serialized as scripts inside CTxOuts) &nbsp;&nbsp;&nbsp;&nbsp; 6. value of the output spent by this input (8-byte little endian) &nbsp;&nbsp;&nbsp;&nbsp; 7. nSequence of the input (4-byte little endian) &nbsp;&nbsp;&nbsp;&nbsp; 8. hashOutputs (32-byte hash) &nbsp;&nbsp;&nbsp;&nbsp; 9. nLocktime of the transaction (4-byte little endian) &nbsp; &nbsp; 10. sighash type of the signature (4-byte little endian) 3. 隔离见证签名计算示例 以下已隔离见证地址向另外一个隔离见证地址转账为例（test chain）： 地址 tb1qn7fgrgxlshl95c9n63hcgsn8sau6hcsr34y7yg 转账给tb1q8z6wvtv0cj88rtd6s2wupdycpurgj4723wrkrl 和 tb1qdpgfmqv5u5dt8zhuu07wt873xqjjshul69tmmc 转账信息见&nbsp;https://testnet.blockchain.info/tx/93bdfff3f9f36cfea4aab010d9d0289d1a5dec3c633a485d4bef953431129554?show_adv=true 3.1 签名后交易数据如下： 01000000000101966d7ffa9b293ac410d3bd26a99159adffe697223860e5ab3ed304a572a695f90100000000fdffffff02002d31010000000016001438b4e62d8fc48e71adba829dc0b4980f068957ca9ec2c9010000000016001468509d8194e51ab38afce3fce59fd13025285f9f0248304502210099c39c2801527700753cd74a1e9280fbc7a32ce935a1aaca8821876b7982f53b022075f47ed60906900e8f67be50580ec0e8d734603f4a35d3753d442eae1a428f98012102977de8036776186940a5485ed33db045e4685515e0fc352245dda1dd7cd554f55ce71300 &nbsp; 3.2 交易基本信息 nVersion: 01000000 输入数量：01 输入列表： 32字节 前一次交易的hash &nbsp;&nbsp;&nbsp;&nbsp;&nbsp;&nbsp;&nbsp;&nbsp; 966d7ffa9b293ac410d3bd26a99159adffe697223860e5ab3ed304a572a695f9 （默认是大端，要去网上查询详情的话，用的是小端 f995a672a504d33eabe560382297e6ffad5991a926bdd310c43a299bfa7f6d96） 4字节 前一次交易的输出index : 0100000000（序号从0开始） Pkscript 长度：VI （1字节）0x16（22字节） Pkscript： 0[] PUSHDATA(20)[9f9281a0df85fe5a60b3d46f8442678779abe203] 1600149f9281a0df85fe5a60b3d46f8442678779abe203（使用的时候需要转换下 1976a9149f9281a0df85fe5a60b3d46f8442678779abe20388ac） Sequence： fdffffff 输出数量：02 输出列表： Value： 8字节 002d310100000000 Pkscript长度 0x16 （22） Pkscript：16001438b4e62d8fc48e71adba829dc0b4980f068957ca Value：8字节 9ec2c90100000000 Pkscript长度 0x16 （22） Pkscript：16001468509d8194e51ab38afce3fce59fd13025285f9f 锁定时间：5ce71300 HashType ：01000000（四字节） &nbsp; 3.3 计算hash值 （1）nVersion:&nbsp;&nbsp;&nbsp; 01000000 （2） hashPrevouts: dSHA256（966d7ffa9b293ac410d3bd26a99159adffe697223860e5ab3ed304a572a695f901000000） = e54e21c0b72aa6409423de5bf165cd73f8a73f81b0a6f16e62e34ad054961ec8 （3）hashSequence:&nbsp; dSHA256（fdffffff） = caf35e5224de16efa3ccaf41070f6e7b9432b6f79551e629fca9d1c03b43bc52 （4）outpoint:&nbsp;&nbsp; 32-byte hash + 4-byte index 966d7ffa9b293ac410d3bd26a99159adffe697223860e5ab3ed304a572a695f901000000 （5）scriptCode: 对于&nbsp;P2WPKH 隔离见证 the scriptCode 为0x1976a914{20-byte-pubkey-hash}88ac. 600149f9281a0df85fe5a60b3d46f8442678779abe203 ====》 1976a9149f9281a0df85fe5a60b3d46f8442678779abe20388ac （6）amount: tx_in 的数量，需要从上个交易的tx_out 获取 80f0fa0200000000 （7）nSequence: fdffffff （8）hashOutputs: dSHA256(002d31010000000016001438b4e62d8fc48e71adba829dc0b4980f068957ca9ec2c9010000000016001468509d8194e51ab38afce3fce59fd13025285f9f)= 0a868ceb2f1b555a25d489ca6920d2d57e70c767ee5ac9f6b82636f99aa28884 （9）nLockTime:&nbsp;&nbsp;5ce71300 （10）nHashType:&nbsp; &nbsp;0x01000000 &nbsp; dsha256（1-10）=&nbsp;8fcff20cd3a63a32cb16ceb74bc893fbb2e59c3bf398c1eeafec0332c7cf8b8b 利用tb1qn7fgrgxlshl95c9n63hcgsn8sau6hcsr34y7yg地址对应的私钥计算出签名 R: 99c39c2801527700753cd74a1e9280fbc7a32ce935a1aaca8821876b7982f53b S: 75f47ed60906900e8f67be50580ec0e8d734603f4a35d3753d442eae1a428f98 地址对应的公钥为 02977DE8036776186940A5485ED33DB045E4685515E0FC352245DDA1DD7CD554F5 参考文档： https://github.com/bitcoin/bips/blob/master/bip-0143.mediawiki 阅读更多" />
<meta property="og:site_name" content="有组织在！" />
<meta property="og:type" content="article" />
<meta property="article:published_time" content="2018-07-19T00:00:00+08:00" />
<script type="application/ld+json">
{"description":"1.隔离见证交易的数据格式 隔离见证交易的数据格式如下： [nVersion][marker][flag][txins][txouts][witness][nLockTime] 每一个tx_in 有相应的一个witness字段，witness字段以一个vint开头，表明栈元素的数量。每一个栈元素以vint开头表示其长度。 2.隔离见证签名计算方法 &nbsp;签名为使用私钥对如下hash值，进行签名。 Double SHA256 of the serialization of: &nbsp;&nbsp;&nbsp;&nbsp; 1. nVersion of the transaction (4-byte little endian) &nbsp;&nbsp;&nbsp;&nbsp; 2. hashPrevouts (32-byte hash) &nbsp;&nbsp;&nbsp;&nbsp; 3. hashSequence (32-byte hash) &nbsp;&nbsp;&nbsp;&nbsp; 4. outpoint (32-byte hash + 4-byte little endian) &nbsp;&nbsp;&nbsp;&nbsp; 5. scriptCode of the input (serialized as scripts inside CTxOuts) &nbsp;&nbsp;&nbsp;&nbsp; 6. value of the output spent by this input (8-byte little endian) &nbsp;&nbsp;&nbsp;&nbsp; 7. nSequence of the input (4-byte little endian) &nbsp;&nbsp;&nbsp;&nbsp; 8. hashOutputs (32-byte hash) &nbsp;&nbsp;&nbsp;&nbsp; 9. nLocktime of the transaction (4-byte little endian) &nbsp; &nbsp; 10. sighash type of the signature (4-byte little endian) 3. 隔离见证签名计算示例 以下已隔离见证地址向另外一个隔离见证地址转账为例（test chain）： 地址 tb1qn7fgrgxlshl95c9n63hcgsn8sau6hcsr34y7yg 转账给tb1q8z6wvtv0cj88rtd6s2wupdycpurgj4723wrkrl 和 tb1qdpgfmqv5u5dt8zhuu07wt873xqjjshul69tmmc 转账信息见&nbsp;https://testnet.blockchain.info/tx/93bdfff3f9f36cfea4aab010d9d0289d1a5dec3c633a485d4bef953431129554?show_adv=true 3.1 签名后交易数据如下： 01000000000101966d7ffa9b293ac410d3bd26a99159adffe697223860e5ab3ed304a572a695f90100000000fdffffff02002d31010000000016001438b4e62d8fc48e71adba829dc0b4980f068957ca9ec2c9010000000016001468509d8194e51ab38afce3fce59fd13025285f9f0248304502210099c39c2801527700753cd74a1e9280fbc7a32ce935a1aaca8821876b7982f53b022075f47ed60906900e8f67be50580ec0e8d734603f4a35d3753d442eae1a428f98012102977de8036776186940a5485ed33db045e4685515e0fc352245dda1dd7cd554f55ce71300 &nbsp; 3.2 交易基本信息 nVersion: 01000000 输入数量：01 输入列表： 32字节 前一次交易的hash &nbsp;&nbsp;&nbsp;&nbsp;&nbsp;&nbsp;&nbsp;&nbsp; 966d7ffa9b293ac410d3bd26a99159adffe697223860e5ab3ed304a572a695f9 （默认是大端，要去网上查询详情的话，用的是小端 f995a672a504d33eabe560382297e6ffad5991a926bdd310c43a299bfa7f6d96） 4字节 前一次交易的输出index : 0100000000（序号从0开始） Pkscript 长度：VI （1字节）0x16（22字节） Pkscript： 0[] PUSHDATA(20)[9f9281a0df85fe5a60b3d46f8442678779abe203] 1600149f9281a0df85fe5a60b3d46f8442678779abe203（使用的时候需要转换下 1976a9149f9281a0df85fe5a60b3d46f8442678779abe20388ac） Sequence： fdffffff 输出数量：02 输出列表： Value： 8字节 002d310100000000 Pkscript长度 0x16 （22） Pkscript：16001438b4e62d8fc48e71adba829dc0b4980f068957ca Value：8字节 9ec2c90100000000 Pkscript长度 0x16 （22） Pkscript：16001468509d8194e51ab38afce3fce59fd13025285f9f 锁定时间：5ce71300 HashType ：01000000（四字节） &nbsp; 3.3 计算hash值 （1）nVersion:&nbsp;&nbsp;&nbsp; 01000000 （2） hashPrevouts: dSHA256（966d7ffa9b293ac410d3bd26a99159adffe697223860e5ab3ed304a572a695f901000000） = e54e21c0b72aa6409423de5bf165cd73f8a73f81b0a6f16e62e34ad054961ec8 （3）hashSequence:&nbsp; dSHA256（fdffffff） = caf35e5224de16efa3ccaf41070f6e7b9432b6f79551e629fca9d1c03b43bc52 （4）outpoint:&nbsp;&nbsp; 32-byte hash + 4-byte index 966d7ffa9b293ac410d3bd26a99159adffe697223860e5ab3ed304a572a695f901000000 （5）scriptCode: 对于&nbsp;P2WPKH 隔离见证 the scriptCode 为0x1976a914{20-byte-pubkey-hash}88ac. 600149f9281a0df85fe5a60b3d46f8442678779abe203 ====》 1976a9149f9281a0df85fe5a60b3d46f8442678779abe20388ac （6）amount: tx_in 的数量，需要从上个交易的tx_out 获取 80f0fa0200000000 （7）nSequence: fdffffff （8）hashOutputs: dSHA256(002d31010000000016001438b4e62d8fc48e71adba829dc0b4980f068957ca9ec2c9010000000016001468509d8194e51ab38afce3fce59fd13025285f9f)= 0a868ceb2f1b555a25d489ca6920d2d57e70c767ee5ac9f6b82636f99aa28884 （9）nLockTime:&nbsp;&nbsp;5ce71300 （10）nHashType:&nbsp; &nbsp;0x01000000 &nbsp; dsha256（1-10）=&nbsp;8fcff20cd3a63a32cb16ceb74bc893fbb2e59c3bf398c1eeafec0332c7cf8b8b 利用tb1qn7fgrgxlshl95c9n63hcgsn8sau6hcsr34y7yg地址对应的私钥计算出签名 R: 99c39c2801527700753cd74a1e9280fbc7a32ce935a1aaca8821876b7982f53b S: 75f47ed60906900e8f67be50580ec0e8d734603f4a35d3753d442eae1a428f98 地址对应的公钥为 02977DE8036776186940A5485ED33DB045E4685515E0FC352245DDA1DD7CD554F5 参考文档： https://github.com/bitcoin/bips/blob/master/bip-0143.mediawiki 阅读更多","@type":"BlogPosting","url":"/2018/07/19/91b2bed366cea5694c83c274135e6174.html","headline":"隔离见证交易签名计算示例","dateModified":"2018-07-19T00:00:00+08:00","datePublished":"2018-07-19T00:00:00+08:00","mainEntityOfPage":{"@type":"WebPage","@id":"/2018/07/19/91b2bed366cea5694c83c274135e6174.html"},"@context":"http://schema.org"}</script>
<!-- End Jekyll SEO tag -->


    <link rel="stylesheet" href="/assets/css/style.css?v=">
    <script src="/assets/js/scale.fix.js"></script>
    <meta name="viewport" content="width=device-width, initial-scale=1, user-scalable=no">

    <!--[if lt IE 9]>
    <script src="//html5shiv.googlecode.com/svn/trunk/html5.js"></script>
    <![endif]-->
    
    <!-- Global site tag (gtag.js) - Google Analytics -->
    <script async src="https://www.googletagmanager.com/gtag/js?id=UA-123344652-1"></script>
    <script>
      window.dataLayer = window.dataLayer || [];
      function gtag(){dataLayer.push(arguments);}
      gtag('js', new Date());

      gtag('config', 'UA-123344652-1');
    </script>
    
    <script async src="//pagead2.googlesyndication.com/pagead/js/adsbygoogle.js"></script>
    <script>
      (adsbygoogle = window.adsbygoogle || []).push({
        google_ad_client: "ca-pub-8889449066804352",
        enable_page_level_ads: true
      });
    </script>
    
    <script async custom-element="amp-auto-ads"
        src="https://cdn.ampproject.org/v0/amp-auto-ads-0.1.js">
    </script>
    
    <style>
      @media screen and (max-width:760px){
        .sm-hidden{display:none; }
      }
    </style>

  </head>
  <body>
    
        <amp-auto-ads type="adsense"
              data-ad-client="ca-pub-8889449066804352">
        </amp-auto-ads>
    
    <div class="wrapper">
      <header  class="without-description" >
        <h1>隔离见证交易签名计算示例</h1>
        
        
        <ul>
            <li><a href="https://uzshare.com/" style="line-height: unset;" target="_blank"><strong>柚子社区</strong></a></li>
        </ul>
        
        
        
      </header>
      <section>

<div style="margin:0 0 8px 0;">
<style>
table.gsc-input {
    margin: 0;
}
.cse .gsc-control-cse, .gsc-control-cse {
    padding: 0;
    width: auto;
}
.gsc-search-box td {
    border-bottom: none;
}
</style>
<script>
  (function() {
    var cx = '004431708863642777669:qan2_6ugotw';
    var gcse = document.createElement('script');
    gcse.type = 'text/javascript';
    gcse.async = true;
    gcse.src = 'https://cse.google.com/cse.js?cx=' + cx;
    var s = document.getElementsByTagName('script')[0];
    s.parentNode.insertBefore(gcse, s);
  })();
</script>
<gcse:search></gcse:search>
</div>
	

        <div id="article_content" class="article_content clearfix csdn-tracking-statistics" data-pid="blog" data-mod="popu_307" data-dsm="post"> 
 <link rel="stylesheet" href="https://csdnimg.cn/release/phoenix/template/css/ck_htmledit_views-e2445db1a8.css"> 
 <div class="htmledit_views"> 
  <h1>1.隔离见证交易的数据格式</h1> 
  <p>隔离见证交易的数据格式如下：</p> 
  <p style="margin-left:0cm;">[nVersion][marker][flag][txins][txouts][witness][nLockTime]</p> 
  <p style="margin-left:0cm;">每一个tx_in 有相应的一个witness字段，witness字段以一个vint开头，表明栈元素的数量。每一个栈元素以vint开头表示其长度。</p> 
  <h1 style="margin-left:0cm;">2.隔离见证签名计算方法</h1> 
  <p style="margin-left:0cm;">&nbsp;签名为使用私钥对如下hash值，进行签名。</p> 
  <p style="margin-left:0cm;">Double SHA256 of the serialization of:</p> 
  <p style="margin-left:0cm;">&nbsp;&nbsp;&nbsp;&nbsp; 1. nVersion of the transaction (4-byte little endian)</p> 
  <p style="margin-left:0cm;">&nbsp;&nbsp;&nbsp;&nbsp; 2. hashPrevouts (32-byte hash)</p> 
  <p style="margin-left:0cm;">&nbsp;&nbsp;&nbsp;&nbsp; 3. hashSequence (32-byte hash)</p> 
  <p style="margin-left:0cm;">&nbsp;&nbsp;&nbsp;&nbsp; 4. outpoint (32-byte hash + 4-byte little endian)</p> 
  <p style="margin-left:0cm;">&nbsp;&nbsp;&nbsp;&nbsp; 5. scriptCode of the input (serialized as scripts inside CTxOuts)</p> 
  <p style="margin-left:0cm;">&nbsp;&nbsp;&nbsp;&nbsp; 6. value of the output spent by this input (8-byte little endian)</p> 
  <p style="margin-left:0cm;">&nbsp;&nbsp;&nbsp;&nbsp; 7. nSequence of the input (4-byte little endian)</p> 
  <p style="margin-left:0cm;">&nbsp;&nbsp;&nbsp;&nbsp; 8. hashOutputs (32-byte hash)</p> 
  <p style="margin-left:0cm;">&nbsp;&nbsp;&nbsp;&nbsp; 9. nLocktime of the transaction (4-byte little endian)</p> 
  <p style="margin-left:0cm;">&nbsp; &nbsp; 10. sighash type of the signature (4-byte little endian)</p> 
  <h1 style="margin-left:0cm;">3. 隔离见证签名计算示例</h1> 
  <p>以下已隔离见证地址向另外一个隔离见证地址转账为例（test chain）：</p> 
  <p style="margin-left:0cm;">地址 tb1qn7fgrgxlshl95c9n63hcgsn8sau6hcsr34y7yg 转账给tb1q8z6wvtv0cj88rtd6s2wupdycpurgj4723wrkrl 和 tb1qdpgfmqv5u5dt8zhuu07wt873xqjjshul69tmmc</p> 
  <p style="margin-left:0cm;">转账信息见&nbsp;<span style="color:#0563c1;"><u><a href="https://testnet.blockchain.info/tx/93bdfff3f9f36cfea4aab010d9d0289d1a5dec3c633a485d4bef953431129554?show_adv=true" rel="nofollow">https://testnet.blockchain.info/tx/93bdfff3f9f36cfea4aab010d9d0289d1a5dec3c633a485d4bef953431129554?show_adv=true</a></u></span></p> 
  <p style="margin-left:0cm;">3.1 签名后交易数据如下：</p> 
  <p style="margin-left:0cm;">01000000000101966d7ffa9b293ac410d3bd26a99159adffe697223860e5ab3ed304a572a695f90100000000fdffffff02002d31010000000016001438b4e62d8fc48e71adba829dc0b4980f068957ca9ec2c9010000000016001468509d8194e51ab38afce3fce59fd13025285f9f0248304502210099c39c2801527700753cd74a1e9280fbc7a32ce935a1aaca8821876b7982f53b022075f47ed60906900e8f67be50580ec0e8d734603f4a35d3753d442eae1a428f98012102977de8036776186940a5485ed33db045e4685515e0fc352245dda1dd7cd554f55ce71300</p> 
  <p style="margin-left:0cm;">&nbsp;</p> 
  <p style="margin-left:0cm;">3.2 交易基本信息</p> 
  <p style="margin-left:0cm;">nVersion: 01000000</p> 
  <p style="margin-left:0cm;">输入数量：01</p> 
  <p style="margin-left:0cm;">输入列表：</p> 
  <ul>
   <li>32字节 前一次交易的hash</li> 
  </ul>
  <p style="margin-left:0cm;">&nbsp;&nbsp;&nbsp;&nbsp;&nbsp;&nbsp;&nbsp;&nbsp; 966d7ffa9b293ac410d3bd26a99159adffe697223860e5ab3ed304a572a695f9</p> 
  <p style="margin-left:0cm;">（默认是大端，要去网上查询详情的话，用的是小端</p> 
  <p style="margin-left:0cm;">f995a672a504d33eabe560382297e6ffad5991a926bdd310c43a299bfa7f6d96）</p> 
  <ul>
   <li>4字节 前一次交易的输出index : 0100000000（序号从0开始）</li> 
   <li>Pkscript 长度：VI （1字节）0x16（22字节）</li> 
   <li>Pkscript：</li> 
  </ul>
  <p style="margin-left:0cm;">0[] PUSHDATA(20)[9f9281a0df85fe5a60b3d46f8442678779abe203]</p> 
  <p style="margin-left:0cm;">1600149f9281a0df85fe5a60b3d46f8442678779abe203（使用的时候需要转换下</p> 
  <p style="margin-left:0cm;">1976a9149f9281a0df85fe5a60b3d46f8442678779abe20388ac）</p> 
  <ul>
   <li>Sequence： fdffffff</li> 
  </ul>
  <p style="margin-left:0cm;">输出数量：02</p> 
  <p style="margin-left:0cm;">输出列表：</p> 
  <ul>
   <li>Value： 8字节 002d310100000000</li> 
   <li>Pkscript长度 0x16 （22）</li> 
   <li>Pkscript：16001438b4e62d8fc48e71adba829dc0b4980f068957ca</li> 
   <li>Value：8字节 9ec2c90100000000</li> 
   <li>Pkscript长度 0x16 （22）</li> 
   <li>Pkscript：16001468509d8194e51ab38afce3fce59fd13025285f9f</li> 
  </ul>
  <p style="margin-left:0cm;">锁定时间：5ce71300</p> 
  <p style="margin-left:0cm;">HashType ：01000000（四字节）</p> 
  <p style="margin-left:0cm;">&nbsp;</p> 
  <p style="margin-left:0cm;">3.3 计算hash值</p> 
  <p style="margin-left:0cm;">（1）nVersion:&nbsp;&nbsp;&nbsp; 01000000</p> 
  <p style="margin-left:0cm;">（2）</p> 
  <p style="margin-left:0cm;">hashPrevouts:</p> 
  <p style="margin-left:0cm;">dSHA256（966d7ffa9b293ac410d3bd26a99159adffe697223860e5ab3ed304a572a695f901000000）</p> 
  <p style="margin-left:0cm;">= e54e21c0b72aa6409423de5bf165cd73f8a73f81b0a6f16e62e34ad054961ec8</p> 
  <p style="margin-left:0cm;">（3）hashSequence:&nbsp;</p> 
  <p style="margin-left:0cm;">dSHA256（fdffffff） =</p> 
  <p style="margin-left:0cm;">caf35e5224de16efa3ccaf41070f6e7b9432b6f79551e629fca9d1c03b43bc52</p> 
  <p style="margin-left:0cm;">（4）outpoint:&nbsp;&nbsp; 32-byte hash + 4-byte index</p> 
  <p style="margin-left:0cm;">966d7ffa9b293ac410d3bd26a99159adffe697223860e5ab3ed304a572a695f901000000</p> 
  <p style="margin-left:0cm;">（5）scriptCode: 对于&nbsp;P2WPKH 隔离见证 the scriptCode 为0x1976a914{20-byte-pubkey-hash}88ac.</p> 
  <p style="margin-left:0cm;">600149f9281a0df85fe5a60b3d46f8442678779abe203</p> 
  <p style="margin-left:0cm;">====》</p> 
  <p style="margin-left:0cm;">1976a9149f9281a0df85fe5a60b3d46f8442678779abe20388ac</p> 
  <p style="margin-left:0cm;">（6）amount: tx_in 的数量，需要从上个交易的tx_out 获取</p> 
  <p style="margin-left:0cm;">80f0fa0200000000</p> 
  <p style="margin-left:0cm;">（7）nSequence: fdffffff</p> 
  <p style="margin-left:0cm;">（8）hashOutputs:</p> 
  <p style="margin-left:0cm;">dSHA256(002d31010000000016001438b4e62d8fc48e71adba829dc0b4980f068957ca9ec2c9010000000016001468509d8194e51ab38afce3fce59fd13025285f9f)=</p> 
  <p style="margin-left:0cm;">0a868ceb2f1b555a25d489ca6920d2d57e70c767ee5ac9f6b82636f99aa28884</p> 
  <p style="margin-left:0cm;">（9）nLockTime:&nbsp;&nbsp;5ce71300</p> 
  <p style="margin-left:0cm;">（10）nHashType:&nbsp; &nbsp;0x01000000</p> 
  <p style="margin-left:0cm;">&nbsp;</p> 
  <p style="margin-left:0cm;">dsha256（1-10）=&nbsp;8fcff20cd3a63a32cb16ceb74bc893fbb2e59c3bf398c1eeafec0332c7cf8b8b</p> 
  <p style="margin-left:0cm;">利用tb1qn7fgrgxlshl95c9n63hcgsn8sau6hcsr34y7yg地址对应的私钥计算出签名</p> 
  <p style="margin-left:0cm;">R: 99c39c2801527700753cd74a1e9280fbc7a32ce935a1aaca8821876b7982f53b</p> 
  <p style="margin-left:0cm;">S: 75f47ed60906900e8f67be50580ec0e8d734603f4a35d3753d442eae1a428f98</p> 
  <p style="margin-left:0cm;">地址对应的公钥为</p> 
  <p style="margin-left:0cm;">02977DE8036776186940A5485ED33DB045E4685515E0FC352245DDA1DD7CD554F5</p> 
  <p style="margin-left:0cm;">参考文档：</p> 
  <p style="margin-left:0cm;">https://github.com/bitcoin/bips/blob/master/bip-0143.mediawiki</p> 
 </div> 
</div> 
<div class="hide-article-box text-center"> 
 <a class="btn btn-red-hollow" id="btn-readmore" data-track-view="{&quot;mod&quot;:&quot;popu_376&quot;,&quot;con&quot;:&quot;,https://blog.csdn.net/bebest2010/article/details/81122184,&quot;}" data-track-click="{&quot;mod&quot;:&quot;popu_376&quot;,&quot;con&quot;:&quot;,https://blog.csdn.net/bebest2010/article/details/81122184,&quot;}">阅读更多</a> 
</div>

	<script async src="//pagead2.googlesyndication.com/pagead/js/adsbygoogle.js"></script>
	<!-- 自定义广告 -->
	<ins class="adsbygoogle"
	     style="display:block"
	     data-ad-client="ca-pub-8889449066804352"
	     data-ad-slot="1494696990"
	     data-ad-format="auto"
	     data-full-width-responsive="true"></ins>
	<script>
		(adsbygoogle = window.adsbygoogle || []).push({});
	</script>


        <br />
        <a href="https://uzshare.com/">更多精彩内容</a>
      </section>
      
      <header style="right: 0;position: fixed;bottom: 60px;z-index: 100;background: none;border-bottom:none;">
        <ul style="display: block;">
          <li><a href="/" style="line-height: 40px;padding-top:0px;">回首页</a></li>
        </ul>
      </header>
      <header class="sm-hidden" style="right: 0;position: fixed;bottom: 60px;z-index: 100;background: none;border-bottom:none;">
          <img src="https://uzzz.org.cn/imgqcode.png" style="width:160px;" />
      </header>
      
      <header class="sm-hidden" style="left: 0;position: fixed;bottom: 60px;z-index: 100;background: none;border-bottom:none;">
          <img src="https://uzzz.org.cn/hou_imgqcode.png" style="width:160px;">
      </header>
    </div>
    
    <!--[if !IE]><script>fixScale(document);</script><![endif]-->

    <script>
    var _hmt = _hmt || [];
    (function() {
      var hm = document.createElement("script");
      hm.src = "https://hm.baidu.com/hm.js?ee64533f3c6a7a284cd39a37ee732c8b";
      var s = document.getElementsByTagName("script")[0]; 
      s.parentNode.insertBefore(hm, s);
    })();
    </script>

  </body>
</html>
