<!doctype html>
<html lang="en-US">
  <head>
    <meta charset="utf-8">
    <meta http-equiv="X-UA-Compatible" content="IE=edge">

<!-- Begin Jekyll SEO tag v2.5.0 -->
<title>从一个比特币的原生交易数据分析交易脚本的验证过程 | 有组织在！</title>
<meta name="generator" content="Jekyll v3.8.5" />
<meta property="og:title" content="从一个比特币的原生交易数据分析交易脚本的验证过程" />
<meta property="og:locale" content="en_US" />
<meta name="description" content="版权声明：本文为博主原创文章，未经博主允许不得转载。 https://blog.csdn.net/yzpbright/article/details/80585099 Alice与Bob’s Cafe的交易 txid：0627052b6f28912f2703066a912ea577f2ce4da4caa5a5fbd8a57286c345c2f2 在BitconCore的命令行执行如下命令： bitcoin-cli getrawtransaction 0627052b6f28912f2703066a912ea577f2ce4da4caa5a5fbd8a57286c345c2f2 0100000001186f9f998a5aa6f048e51dd8419a14d8a0f1a8a2836dd734d2804fe65fa35779000000008b483045022100884d142d86652a3f47ba4746ec719bbfbd040a570b1deccbb6498c75c4ae24cb02204b9f039ff08df09cbe9f6addac960298cad530a863ea8f53982c09db8f6e381301410484ecc0d46f1918b30928fa0e4ed99f16a0fb4fde0735e7ade8416ab9fe423cc5412336376789d172787ec3457eee41c04f4938de5cc17b4a10fa336a8d752adfffffffff0260e31600000000001976a914ab68025513c3dbd2f7b92a94e0581f5d50f654e788acd0ef8000000000001976a9147f9b1a7fb68d60c536c2fd8aeaa53a8f3cc025a888ac00000000 再执行： bitcoin-cli decoderawtransaction 0100000001186f9f998a5aa6f048e51dd8419a14d8a0f1a8a2836dd734d2804fe65fa35779000000008b483045022100884d142d86652a3f47ba4746ec719bbfbd040a570b1deccbb6498c75c4ae24cb02204b9f039ff08df09cbe9f6addac960298cad530a863ea8f53982c09db8f6e381301410484ecc0d46f1918b30928fa0e4ed99f16a0fb4fde0735e7ade8416ab9fe423cc5412336376789d172787ec3457eee41c04f4938de5cc17b4a10fa336a8d752adfffffffff0260e31600000000001976a914ab68025513c3dbd2f7b92a94e0581f5d50f654e788acd0ef8000000000001976a9147f9b1a7fb68d60c536c2fd8aeaa53a8f3cc025a888ac00000000 得到交易信息： yzp@ubuntu:~$ bitcoin-cli decoderawtransaction 0100000001186f9f998a5aa6f048e51dd8419a14d8a0f1a8a2836dd734d2804fe65fa35779000000008b483045022100884d142d86652a3f47ba4746ec719bbfbd040a570b1deccbb6498c75c4ae24cb02204b9f039ff08df09cbe9f6addac960298cad530a863ea8f53982c09db8f6e381301410484ecc0d46f1918b30928fa0e4ed99f16a0fb4fde0735e7ade8416ab9fe423cc5412336376789d172787ec3457eee41c04f4938de5cc17b4a10fa336a8d752adfffffffff0260e31600000000001976a914ab68025513c3dbd2f7b92a94e0581f5d50f654e788acd0ef8000000000001976a9147f9b1a7fb68d60c536c2fd8aeaa53a8f3cc025a888ac00000000 { &quot;txid&quot;: &quot;0627052b6f28912f2703066a912ea577f2ce4da4caa5a5fbd8a57286c345c2f2&quot;, &quot;hash&quot;: &quot;0627052b6f28912f2703066a912ea577f2ce4da4caa5a5fbd8a57286c345c2f2&quot;, &quot;version&quot;: 1, &quot;size&quot;: 258, &quot;vsize&quot;: 258, &quot;weight&quot;: 1032, &quot;locktime&quot;: 0, &quot;vin&quot;: [ { &quot;txid&quot;: &quot;7957a35fe64f80d234d76d83a2a8f1a0d8149a41d81de548f0a65a8a999f6f18&quot;, &quot;vout&quot;: 0, &quot;scriptSig&quot;: { &quot;asm&quot;: &quot;3045022100884d142d86652a3f47ba4746ec719bbfbd040a570b1deccbb6498c75c4ae24cb02204b9f039ff08df09cbe9f6addac960298cad530a863ea8f53982c09db8f6e3813[ALL] 0484ecc0d46f1918b30928fa0e4ed99f16a0fb4fde0735e7ade8416ab9fe423cc5412336376789d172787ec3457eee41c04f4938de5cc17b4a10fa336a8d752adf&quot;, &quot;hex&quot;: &quot;483045022100884d142d86652a3f47ba4746ec719bbfbd040a570b1deccbb6498c75c4ae24cb02204b9f039ff08df09cbe9f6addac960298cad530a863ea8f53982c09db8f6e381301410484ecc0d46f1918b30928fa0e4ed99f16a0fb4fde0735e7ade8416ab9fe423cc5412336376789d172787ec3457eee41c04f4938de5cc17b4a10fa336a8d752adf&quot; }, &quot;sequence&quot;: 4294967295 } ], &quot;vout&quot;: [ { &quot;value&quot;: 0.01500000, &quot;n&quot;: 0, &quot;scriptPubKey&quot;: { &quot;asm&quot;: &quot;OP_DUP OP_HASH160 ab68025513c3dbd2f7b92a94e0581f5d50f654e7 OP_EQUALVERIFY OP_CHECKSIG&quot;, &quot;hex&quot;: &quot;76a914ab68025513c3dbd2f7b92a94e0581f5d50f654e788ac&quot;, &quot;reqSigs&quot;: 1, &quot;type&quot;: &quot;pubkeyhash&quot;, &quot;addresses&quot;: [ &quot;1GdK9UzpHBzqzX2A9JFP3Di4weBwqgmoQA&quot; ] } }, { &quot;value&quot;: 0.08450000, &quot;n&quot;: 1, &quot;scriptPubKey&quot;: { &quot;asm&quot;: &quot;OP_DUP OP_HASH160 7f9b1a7fb68d60c536c2fd8aeaa53a8f3cc025a8 OP_EQUALVERIFY OP_CHECKSIG&quot;, &quot;hex&quot;: &quot;76a9147f9b1a7fb68d60c536c2fd8aeaa53a8f3cc025a888ac&quot;, &quot;reqSigs&quot;: 1, &quot;type&quot;: &quot;pubkeyhash&quot;, &quot;addresses&quot;: [ &quot;1Cdid9KFAaatwczBwBttQcwXYCpvK8h7FK&quot; ] } } ] } 对于输入中引用的前一个交易，txid：7957a35fe64f80d234d76d83a2a8f1a0d8149a41d81de548f0a65a8a999f6f18， 用同样的getrawtransaction和decoderawtransaction得到解码后的该交易，获取其UTXO： &quot;vout&quot;: [ { &quot;value&quot;: 0.10000000, &quot;scriptPubKey&quot;: &quot;OP_DUP OP_HASH160 7f9b1a7fb68d60c536c2fd8aeaa53a8f3cc025a8 OP_EQUALVERIFY OP_CHECKSIG&quot; } ] 查看Script，得知OP_HASH160 就是 The input is hashed twice: first with SHA-256 and then with RIPEMD-160，即先进行SHA-256哈希，再进行RIPEMD-160哈希。 参考： 实例展示比特币交易的脚本验证过程 比特币系统的脚本（Script)——交易生成和验证的原理（第一部分）（初稿） Script 第10课 交易安全性如何保证？ – scriptSig/scriptPubKey/Script Engine 技术流：比特币交易构成 http://www.atool.org/hash.php 阅读更多" />
<meta property="og:description" content="版权声明：本文为博主原创文章，未经博主允许不得转载。 https://blog.csdn.net/yzpbright/article/details/80585099 Alice与Bob’s Cafe的交易 txid：0627052b6f28912f2703066a912ea577f2ce4da4caa5a5fbd8a57286c345c2f2 在BitconCore的命令行执行如下命令： bitcoin-cli getrawtransaction 0627052b6f28912f2703066a912ea577f2ce4da4caa5a5fbd8a57286c345c2f2 0100000001186f9f998a5aa6f048e51dd8419a14d8a0f1a8a2836dd734d2804fe65fa35779000000008b483045022100884d142d86652a3f47ba4746ec719bbfbd040a570b1deccbb6498c75c4ae24cb02204b9f039ff08df09cbe9f6addac960298cad530a863ea8f53982c09db8f6e381301410484ecc0d46f1918b30928fa0e4ed99f16a0fb4fde0735e7ade8416ab9fe423cc5412336376789d172787ec3457eee41c04f4938de5cc17b4a10fa336a8d752adfffffffff0260e31600000000001976a914ab68025513c3dbd2f7b92a94e0581f5d50f654e788acd0ef8000000000001976a9147f9b1a7fb68d60c536c2fd8aeaa53a8f3cc025a888ac00000000 再执行： bitcoin-cli decoderawtransaction 0100000001186f9f998a5aa6f048e51dd8419a14d8a0f1a8a2836dd734d2804fe65fa35779000000008b483045022100884d142d86652a3f47ba4746ec719bbfbd040a570b1deccbb6498c75c4ae24cb02204b9f039ff08df09cbe9f6addac960298cad530a863ea8f53982c09db8f6e381301410484ecc0d46f1918b30928fa0e4ed99f16a0fb4fde0735e7ade8416ab9fe423cc5412336376789d172787ec3457eee41c04f4938de5cc17b4a10fa336a8d752adfffffffff0260e31600000000001976a914ab68025513c3dbd2f7b92a94e0581f5d50f654e788acd0ef8000000000001976a9147f9b1a7fb68d60c536c2fd8aeaa53a8f3cc025a888ac00000000 得到交易信息： yzp@ubuntu:~$ bitcoin-cli decoderawtransaction 0100000001186f9f998a5aa6f048e51dd8419a14d8a0f1a8a2836dd734d2804fe65fa35779000000008b483045022100884d142d86652a3f47ba4746ec719bbfbd040a570b1deccbb6498c75c4ae24cb02204b9f039ff08df09cbe9f6addac960298cad530a863ea8f53982c09db8f6e381301410484ecc0d46f1918b30928fa0e4ed99f16a0fb4fde0735e7ade8416ab9fe423cc5412336376789d172787ec3457eee41c04f4938de5cc17b4a10fa336a8d752adfffffffff0260e31600000000001976a914ab68025513c3dbd2f7b92a94e0581f5d50f654e788acd0ef8000000000001976a9147f9b1a7fb68d60c536c2fd8aeaa53a8f3cc025a888ac00000000 { &quot;txid&quot;: &quot;0627052b6f28912f2703066a912ea577f2ce4da4caa5a5fbd8a57286c345c2f2&quot;, &quot;hash&quot;: &quot;0627052b6f28912f2703066a912ea577f2ce4da4caa5a5fbd8a57286c345c2f2&quot;, &quot;version&quot;: 1, &quot;size&quot;: 258, &quot;vsize&quot;: 258, &quot;weight&quot;: 1032, &quot;locktime&quot;: 0, &quot;vin&quot;: [ { &quot;txid&quot;: &quot;7957a35fe64f80d234d76d83a2a8f1a0d8149a41d81de548f0a65a8a999f6f18&quot;, &quot;vout&quot;: 0, &quot;scriptSig&quot;: { &quot;asm&quot;: &quot;3045022100884d142d86652a3f47ba4746ec719bbfbd040a570b1deccbb6498c75c4ae24cb02204b9f039ff08df09cbe9f6addac960298cad530a863ea8f53982c09db8f6e3813[ALL] 0484ecc0d46f1918b30928fa0e4ed99f16a0fb4fde0735e7ade8416ab9fe423cc5412336376789d172787ec3457eee41c04f4938de5cc17b4a10fa336a8d752adf&quot;, &quot;hex&quot;: &quot;483045022100884d142d86652a3f47ba4746ec719bbfbd040a570b1deccbb6498c75c4ae24cb02204b9f039ff08df09cbe9f6addac960298cad530a863ea8f53982c09db8f6e381301410484ecc0d46f1918b30928fa0e4ed99f16a0fb4fde0735e7ade8416ab9fe423cc5412336376789d172787ec3457eee41c04f4938de5cc17b4a10fa336a8d752adf&quot; }, &quot;sequence&quot;: 4294967295 } ], &quot;vout&quot;: [ { &quot;value&quot;: 0.01500000, &quot;n&quot;: 0, &quot;scriptPubKey&quot;: { &quot;asm&quot;: &quot;OP_DUP OP_HASH160 ab68025513c3dbd2f7b92a94e0581f5d50f654e7 OP_EQUALVERIFY OP_CHECKSIG&quot;, &quot;hex&quot;: &quot;76a914ab68025513c3dbd2f7b92a94e0581f5d50f654e788ac&quot;, &quot;reqSigs&quot;: 1, &quot;type&quot;: &quot;pubkeyhash&quot;, &quot;addresses&quot;: [ &quot;1GdK9UzpHBzqzX2A9JFP3Di4weBwqgmoQA&quot; ] } }, { &quot;value&quot;: 0.08450000, &quot;n&quot;: 1, &quot;scriptPubKey&quot;: { &quot;asm&quot;: &quot;OP_DUP OP_HASH160 7f9b1a7fb68d60c536c2fd8aeaa53a8f3cc025a8 OP_EQUALVERIFY OP_CHECKSIG&quot;, &quot;hex&quot;: &quot;76a9147f9b1a7fb68d60c536c2fd8aeaa53a8f3cc025a888ac&quot;, &quot;reqSigs&quot;: 1, &quot;type&quot;: &quot;pubkeyhash&quot;, &quot;addresses&quot;: [ &quot;1Cdid9KFAaatwczBwBttQcwXYCpvK8h7FK&quot; ] } } ] } 对于输入中引用的前一个交易，txid：7957a35fe64f80d234d76d83a2a8f1a0d8149a41d81de548f0a65a8a999f6f18， 用同样的getrawtransaction和decoderawtransaction得到解码后的该交易，获取其UTXO： &quot;vout&quot;: [ { &quot;value&quot;: 0.10000000, &quot;scriptPubKey&quot;: &quot;OP_DUP OP_HASH160 7f9b1a7fb68d60c536c2fd8aeaa53a8f3cc025a8 OP_EQUALVERIFY OP_CHECKSIG&quot; } ] 查看Script，得知OP_HASH160 就是 The input is hashed twice: first with SHA-256 and then with RIPEMD-160，即先进行SHA-256哈希，再进行RIPEMD-160哈希。 参考： 实例展示比特币交易的脚本验证过程 比特币系统的脚本（Script)——交易生成和验证的原理（第一部分）（初稿） Script 第10课 交易安全性如何保证？ – scriptSig/scriptPubKey/Script Engine 技术流：比特币交易构成 http://www.atool.org/hash.php 阅读更多" />
<meta property="og:site_name" content="有组织在！" />
<meta property="og:type" content="article" />
<meta property="article:published_time" content="2018-06-05T00:00:00+08:00" />
<script type="application/ld+json">
{"description":"版权声明：本文为博主原创文章，未经博主允许不得转载。 https://blog.csdn.net/yzpbright/article/details/80585099 Alice与Bob’s Cafe的交易 txid：0627052b6f28912f2703066a912ea577f2ce4da4caa5a5fbd8a57286c345c2f2 在BitconCore的命令行执行如下命令： bitcoin-cli getrawtransaction 0627052b6f28912f2703066a912ea577f2ce4da4caa5a5fbd8a57286c345c2f2 0100000001186f9f998a5aa6f048e51dd8419a14d8a0f1a8a2836dd734d2804fe65fa35779000000008b483045022100884d142d86652a3f47ba4746ec719bbfbd040a570b1deccbb6498c75c4ae24cb02204b9f039ff08df09cbe9f6addac960298cad530a863ea8f53982c09db8f6e381301410484ecc0d46f1918b30928fa0e4ed99f16a0fb4fde0735e7ade8416ab9fe423cc5412336376789d172787ec3457eee41c04f4938de5cc17b4a10fa336a8d752adfffffffff0260e31600000000001976a914ab68025513c3dbd2f7b92a94e0581f5d50f654e788acd0ef8000000000001976a9147f9b1a7fb68d60c536c2fd8aeaa53a8f3cc025a888ac00000000 再执行： bitcoin-cli decoderawtransaction 0100000001186f9f998a5aa6f048e51dd8419a14d8a0f1a8a2836dd734d2804fe65fa35779000000008b483045022100884d142d86652a3f47ba4746ec719bbfbd040a570b1deccbb6498c75c4ae24cb02204b9f039ff08df09cbe9f6addac960298cad530a863ea8f53982c09db8f6e381301410484ecc0d46f1918b30928fa0e4ed99f16a0fb4fde0735e7ade8416ab9fe423cc5412336376789d172787ec3457eee41c04f4938de5cc17b4a10fa336a8d752adfffffffff0260e31600000000001976a914ab68025513c3dbd2f7b92a94e0581f5d50f654e788acd0ef8000000000001976a9147f9b1a7fb68d60c536c2fd8aeaa53a8f3cc025a888ac00000000 得到交易信息： yzp@ubuntu:~$ bitcoin-cli decoderawtransaction 0100000001186f9f998a5aa6f048e51dd8419a14d8a0f1a8a2836dd734d2804fe65fa35779000000008b483045022100884d142d86652a3f47ba4746ec719bbfbd040a570b1deccbb6498c75c4ae24cb02204b9f039ff08df09cbe9f6addac960298cad530a863ea8f53982c09db8f6e381301410484ecc0d46f1918b30928fa0e4ed99f16a0fb4fde0735e7ade8416ab9fe423cc5412336376789d172787ec3457eee41c04f4938de5cc17b4a10fa336a8d752adfffffffff0260e31600000000001976a914ab68025513c3dbd2f7b92a94e0581f5d50f654e788acd0ef8000000000001976a9147f9b1a7fb68d60c536c2fd8aeaa53a8f3cc025a888ac00000000 { &quot;txid&quot;: &quot;0627052b6f28912f2703066a912ea577f2ce4da4caa5a5fbd8a57286c345c2f2&quot;, &quot;hash&quot;: &quot;0627052b6f28912f2703066a912ea577f2ce4da4caa5a5fbd8a57286c345c2f2&quot;, &quot;version&quot;: 1, &quot;size&quot;: 258, &quot;vsize&quot;: 258, &quot;weight&quot;: 1032, &quot;locktime&quot;: 0, &quot;vin&quot;: [ { &quot;txid&quot;: &quot;7957a35fe64f80d234d76d83a2a8f1a0d8149a41d81de548f0a65a8a999f6f18&quot;, &quot;vout&quot;: 0, &quot;scriptSig&quot;: { &quot;asm&quot;: &quot;3045022100884d142d86652a3f47ba4746ec719bbfbd040a570b1deccbb6498c75c4ae24cb02204b9f039ff08df09cbe9f6addac960298cad530a863ea8f53982c09db8f6e3813[ALL] 0484ecc0d46f1918b30928fa0e4ed99f16a0fb4fde0735e7ade8416ab9fe423cc5412336376789d172787ec3457eee41c04f4938de5cc17b4a10fa336a8d752adf&quot;, &quot;hex&quot;: &quot;483045022100884d142d86652a3f47ba4746ec719bbfbd040a570b1deccbb6498c75c4ae24cb02204b9f039ff08df09cbe9f6addac960298cad530a863ea8f53982c09db8f6e381301410484ecc0d46f1918b30928fa0e4ed99f16a0fb4fde0735e7ade8416ab9fe423cc5412336376789d172787ec3457eee41c04f4938de5cc17b4a10fa336a8d752adf&quot; }, &quot;sequence&quot;: 4294967295 } ], &quot;vout&quot;: [ { &quot;value&quot;: 0.01500000, &quot;n&quot;: 0, &quot;scriptPubKey&quot;: { &quot;asm&quot;: &quot;OP_DUP OP_HASH160 ab68025513c3dbd2f7b92a94e0581f5d50f654e7 OP_EQUALVERIFY OP_CHECKSIG&quot;, &quot;hex&quot;: &quot;76a914ab68025513c3dbd2f7b92a94e0581f5d50f654e788ac&quot;, &quot;reqSigs&quot;: 1, &quot;type&quot;: &quot;pubkeyhash&quot;, &quot;addresses&quot;: [ &quot;1GdK9UzpHBzqzX2A9JFP3Di4weBwqgmoQA&quot; ] } }, { &quot;value&quot;: 0.08450000, &quot;n&quot;: 1, &quot;scriptPubKey&quot;: { &quot;asm&quot;: &quot;OP_DUP OP_HASH160 7f9b1a7fb68d60c536c2fd8aeaa53a8f3cc025a8 OP_EQUALVERIFY OP_CHECKSIG&quot;, &quot;hex&quot;: &quot;76a9147f9b1a7fb68d60c536c2fd8aeaa53a8f3cc025a888ac&quot;, &quot;reqSigs&quot;: 1, &quot;type&quot;: &quot;pubkeyhash&quot;, &quot;addresses&quot;: [ &quot;1Cdid9KFAaatwczBwBttQcwXYCpvK8h7FK&quot; ] } } ] } 对于输入中引用的前一个交易，txid：7957a35fe64f80d234d76d83a2a8f1a0d8149a41d81de548f0a65a8a999f6f18， 用同样的getrawtransaction和decoderawtransaction得到解码后的该交易，获取其UTXO： &quot;vout&quot;: [ { &quot;value&quot;: 0.10000000, &quot;scriptPubKey&quot;: &quot;OP_DUP OP_HASH160 7f9b1a7fb68d60c536c2fd8aeaa53a8f3cc025a8 OP_EQUALVERIFY OP_CHECKSIG&quot; } ] 查看Script，得知OP_HASH160 就是 The input is hashed twice: first with SHA-256 and then with RIPEMD-160，即先进行SHA-256哈希，再进行RIPEMD-160哈希。 参考： 实例展示比特币交易的脚本验证过程 比特币系统的脚本（Script)——交易生成和验证的原理（第一部分）（初稿） Script 第10课 交易安全性如何保证？ – scriptSig/scriptPubKey/Script Engine 技术流：比特币交易构成 http://www.atool.org/hash.php 阅读更多","@type":"BlogPosting","url":"/2018/06/05/a65cf5c17f37b76119348ee741f7c4c0.html","headline":"从一个比特币的原生交易数据分析交易脚本的验证过程","dateModified":"2018-06-05T00:00:00+08:00","datePublished":"2018-06-05T00:00:00+08:00","mainEntityOfPage":{"@type":"WebPage","@id":"/2018/06/05/a65cf5c17f37b76119348ee741f7c4c0.html"},"@context":"http://schema.org"}</script>
<!-- End Jekyll SEO tag -->


    <link rel="stylesheet" href="/assets/css/style.css?v=">
    <script src="/assets/js/scale.fix.js"></script>
    <meta name="viewport" content="width=device-width, initial-scale=1, user-scalable=no">

    <!--[if lt IE 9]>
    <script src="//html5shiv.googlecode.com/svn/trunk/html5.js"></script>
    <![endif]-->
    
    <!-- Global site tag (gtag.js) - Google Analytics -->
    <script async src="https://www.googletagmanager.com/gtag/js?id=UA-123344652-1"></script>
    <script>
      window.dataLayer = window.dataLayer || [];
      function gtag(){dataLayer.push(arguments);}
      gtag('js', new Date());

      gtag('config', 'UA-123344652-1');
    </script>
    
    <script async src="//pagead2.googlesyndication.com/pagead/js/adsbygoogle.js"></script>
    <script>
      (adsbygoogle = window.adsbygoogle || []).push({
        google_ad_client: "ca-pub-8889449066804352",
        enable_page_level_ads: true
      });
    </script>
    
    <script async custom-element="amp-auto-ads"
        src="https://cdn.ampproject.org/v0/amp-auto-ads-0.1.js">
    </script>
    
    <style>
      @media screen and (max-width:760px){
        .sm-hidden{display:none; }
      }
    </style>

  </head>
  <body>
    
        <amp-auto-ads type="adsense"
              data-ad-client="ca-pub-8889449066804352">
        </amp-auto-ads>
    
    <div class="wrapper">
      <header  class="without-description" >
        <h1>从一个比特币的原生交易数据分析交易脚本的验证过程</h1>
        
        
        <ul>
            <li><a href="https://uzshare.com/" style="line-height: unset;" target="_blank"><strong>柚子社区</strong></a></li>
        </ul>
        
        
        
      </header>
      <section>

<div style="margin:0 0 8px 0;">
<style>
table.gsc-input {
    margin: 0;
}
.cse .gsc-control-cse, .gsc-control-cse {
    padding: 0;
    width: auto;
}
.gsc-search-box td {
    border-bottom: none;
}
</style>
<script>
  (function() {
    var cx = '004431708863642777669:qan2_6ugotw';
    var gcse = document.createElement('script');
    gcse.type = 'text/javascript';
    gcse.async = true;
    gcse.src = 'https://cse.google.com/cse.js?cx=' + cx;
    var s = document.getElementsByTagName('script')[0];
    s.parentNode.insertBefore(gcse, s);
  })();
</script>
<gcse:search></gcse:search>
</div>
	

        <div id="article_content" class="article_content clearfix csdn-tracking-statistics" data-pid="blog" data-mod="popu_307" data-dsm="post"> 
 <div class="article-copyright">
   版权声明：本文为博主原创文章，未经博主允许不得转载。 https://blog.csdn.net/yzpbright/article/details/80585099 
 </div> 
 <div class="markdown_views prism-dracula"> 
  <!-- flowchart 箭头图标 勿删 --> 
  <svg xmlns="http://www.w3.org/2000/svg" style="display: none;">
   <path stroke-linecap="round" d="M5,0 0,2.5 5,5z" id="raphael-marker-block" style="-webkit-tap-highlight-color: rgba(0, 0, 0, 0);"></path>
  </svg> 
  <p><a href="https://blockchain.info/tx/0627052b6f28912f2703066a912ea577f2ce4da4caa5a5fbd8a57286c345c2f2" rel="nofollow">Alice与Bob’s Cafe的交易</a> <br> txid：0627052b6f28912f2703066a912ea577f2ce4da4caa5a5fbd8a57286c345c2f2 <br> 在BitconCore的命令行执行如下命令：</p> 
  <pre class="prettyprint"><code class=" hljs avrasm">bitcoin-<span class="hljs-keyword">cli</span> getrawtransaction <span class="hljs-number">0627052</span>b6f28912f2703066a912ea577f2ce4da4caa5a5fbd8a57286c345c2f2

<span class="hljs-number">0100000001186</span>f9f998a5aa6f048e51dd8419a14d8a0f1a8a2836dd734d2804fe65fa35779000000008b483045022100884d142d86652a3f47ba4746ec719bbfbd040a570b1deccbb6498c75c4ae24cb02204b9f039ff08df09cbe9f6addac960298cad530a863ea8f53982c09db8f6e381301410484ecc0d46f1918b30928fa0e4ed99f16a0fb4fde0735e7ade8416ab9fe423cc5412336376789d172787ec3457eee41c04f4938de5cc17b4a10fa336a8d752adfffffffff0260e31600000000001976a914ab68025513c3dbd2f7b92a94e0581f5d50f654e788acd0ef8000000000001976a9147f9b1a7fb68d60c536c2fd8aeaa53a8f3cc025a888ac00000000</code></pre> 
  <p>再执行：</p> 
  <pre class="prettyprint"><code class=" hljs avrasm">bitcoin-<span class="hljs-keyword">cli</span> decoderawtransaction <span class="hljs-number">0100000001186</span>f9f998a5aa6f048e51dd8419a14d8a0f1a8a2836dd734d2804fe65fa35779000000008b483045022100884d142d86652a3f47ba4746ec719bbfbd040a570b1deccbb6498c75c4ae24cb02204b9f039ff08df09cbe9f6addac960298cad530a863ea8f53982c09db8f6e381301410484ecc0d46f1918b30928fa0e4ed99f16a0fb4fde0735e7ade8416ab9fe423cc5412336376789d172787ec3457eee41c04f4938de5cc17b4a10fa336a8d752adfffffffff0260e31600000000001976a914ab68025513c3dbd2f7b92a94e0581f5d50f654e788acd0ef8000000000001976a9147f9b1a7fb68d60c536c2fd8aeaa53a8f3cc025a888ac00000000</code></pre> 
  <p>得到交易信息：</p> 
  <pre class="prettyprint"><code class=" hljs ruby">yzp<span class="hljs-variable">@ubuntu</span><span class="hljs-symbol">:~</span><span class="hljs-variable">$ </span>bitcoin-cli decoderawtransaction <span class="hljs-number">01000000011</span>86f9f998a5aa6f048e51dd8419a14d8a0f1a8a2836dd734d2804fe65fa35779000000008b483045022100884d142d86652a3f47ba4746ec719bbfbd040a570b1deccbb6498c75c4ae24cb02204b9f039ff08df09cbe9f6addac960298cad530a863ea8f53982c09db8f6e381301410484ecc0d46f1918b30928fa0e4ed99f16a0fb4fde0735e7ade8416ab9fe423cc5412336376789d172787ec3457eee41c04f4938de5cc17b4a10fa336a8d752adfffffffff0260e31600000000001976a914ab68025513c3dbd2f7b92a94e0581f5d50f654e788acd0ef8000000000001976a9147f9b1a7fb68d60c536c2fd8aeaa53a8f3cc025a888ac0000000<span class="hljs-number">0</span>
{
  <span class="hljs-string">"txid"</span><span class="hljs-symbol">:</span> <span class="hljs-string">"0627052b6f28912f2703066a912ea577f2ce4da4caa5a5fbd8a57286c345c2f2"</span>,
  <span class="hljs-string">"hash"</span><span class="hljs-symbol">:</span> <span class="hljs-string">"0627052b6f28912f2703066a912ea577f2ce4da4caa5a5fbd8a57286c345c2f2"</span>,
  <span class="hljs-string">"version"</span><span class="hljs-symbol">:</span> <span class="hljs-number">1</span>,
  <span class="hljs-string">"size"</span><span class="hljs-symbol">:</span> <span class="hljs-number">258</span>,
  <span class="hljs-string">"vsize"</span><span class="hljs-symbol">:</span> <span class="hljs-number">258</span>,
  <span class="hljs-string">"weight"</span><span class="hljs-symbol">:</span> <span class="hljs-number">1032</span>,
  <span class="hljs-string">"locktime"</span><span class="hljs-symbol">:</span> <span class="hljs-number">0</span>,
  <span class="hljs-string">"vin"</span><span class="hljs-symbol">:</span> [
    {
      <span class="hljs-string">"txid"</span><span class="hljs-symbol">:</span> <span class="hljs-string">"7957a35fe64f80d234d76d83a2a8f1a0d8149a41d81de548f0a65a8a999f6f18"</span>,
      <span class="hljs-string">"vout"</span><span class="hljs-symbol">:</span> <span class="hljs-number">0</span>,
      <span class="hljs-string">"scriptSig"</span><span class="hljs-symbol">:</span> {
        <span class="hljs-string">"asm"</span><span class="hljs-symbol">:</span> <span class="hljs-string">"3045022100884d142d86652a3f47ba4746ec719bbfbd040a570b1deccbb6498c75c4ae24cb02204b9f039ff08df09cbe9f6addac960298cad530a863ea8f53982c09db8f6e3813[ALL] 0484ecc0d46f1918b30928fa0e4ed99f16a0fb4fde0735e7ade8416ab9fe423cc5412336376789d172787ec3457eee41c04f4938de5cc17b4a10fa336a8d752adf"</span>,
        <span class="hljs-string">"hex"</span><span class="hljs-symbol">:</span> <span class="hljs-string">"483045022100884d142d86652a3f47ba4746ec719bbfbd040a570b1deccbb6498c75c4ae24cb02204b9f039ff08df09cbe9f6addac960298cad530a863ea8f53982c09db8f6e381301410484ecc0d46f1918b30928fa0e4ed99f16a0fb4fde0735e7ade8416ab9fe423cc5412336376789d172787ec3457eee41c04f4938de5cc17b4a10fa336a8d752adf"</span>
      },
      <span class="hljs-string">"sequence"</span><span class="hljs-symbol">:</span> <span class="hljs-number">4294967295</span>
    }
  ],
  <span class="hljs-string">"vout"</span><span class="hljs-symbol">:</span> [
    {
      <span class="hljs-string">"value"</span><span class="hljs-symbol">:</span> <span class="hljs-number">0</span>.<span class="hljs-number">01500000</span>,
      <span class="hljs-string">"n"</span><span class="hljs-symbol">:</span> <span class="hljs-number">0</span>,
      <span class="hljs-string">"scriptPubKey"</span><span class="hljs-symbol">:</span> {
        <span class="hljs-string">"asm"</span><span class="hljs-symbol">:</span> <span class="hljs-string">"OP_DUP OP_HASH160 ab68025513c3dbd2f7b92a94e0581f5d50f654e7 OP_EQUALVERIFY OP_CHECKSIG"</span>,
        <span class="hljs-string">"hex"</span><span class="hljs-symbol">:</span> <span class="hljs-string">"76a914ab68025513c3dbd2f7b92a94e0581f5d50f654e788ac"</span>,
        <span class="hljs-string">"reqSigs"</span><span class="hljs-symbol">:</span> <span class="hljs-number">1</span>,
        <span class="hljs-string">"type"</span><span class="hljs-symbol">:</span> <span class="hljs-string">"pubkeyhash"</span>,
        <span class="hljs-string">"addresses"</span><span class="hljs-symbol">:</span> [
          <span class="hljs-string">"1GdK9UzpHBzqzX2A9JFP3Di4weBwqgmoQA"</span>
        ]
      }
    },
    {
      <span class="hljs-string">"value"</span><span class="hljs-symbol">:</span> <span class="hljs-number">0</span>.0845000<span class="hljs-number">0</span>,
      <span class="hljs-string">"n"</span><span class="hljs-symbol">:</span> <span class="hljs-number">1</span>,
      <span class="hljs-string">"scriptPubKey"</span><span class="hljs-symbol">:</span> {
        <span class="hljs-string">"asm"</span><span class="hljs-symbol">:</span> <span class="hljs-string">"OP_DUP OP_HASH160 7f9b1a7fb68d60c536c2fd8aeaa53a8f3cc025a8 OP_EQUALVERIFY OP_CHECKSIG"</span>,
        <span class="hljs-string">"hex"</span><span class="hljs-symbol">:</span> <span class="hljs-string">"76a9147f9b1a7fb68d60c536c2fd8aeaa53a8f3cc025a888ac"</span>,
        <span class="hljs-string">"reqSigs"</span><span class="hljs-symbol">:</span> <span class="hljs-number">1</span>,
        <span class="hljs-string">"type"</span><span class="hljs-symbol">:</span> <span class="hljs-string">"pubkeyhash"</span>,
        <span class="hljs-string">"addresses"</span><span class="hljs-symbol">:</span> [
          <span class="hljs-string">"1Cdid9KFAaatwczBwBttQcwXYCpvK8h7FK"</span>
        ]
      }
    }
  ]
}
</code></pre> 
  <p>对于输入中引用的前一个交易，txid：7957a35fe64f80d234d76d83a2a8f1a0d8149a41d81de548f0a65a8a999f6f18， <br> 用同样的getrawtransaction和decoderawtransaction得到解码后的该交易，获取其UTXO：</p> 
  <pre class="prettyprint"><code class=" hljs bash"><span class="hljs-string">"vout"</span>: [
   {
     <span class="hljs-string">"value"</span>: <span class="hljs-number">0.10000000</span>,
     <span class="hljs-string">"scriptPubKey"</span>: <span class="hljs-string">"OP_DUP OP_HASH160 7f9b1a7fb68d60c536c2fd8aeaa53a8f3cc025a8 OP_EQUALVERIFY OP_CHECKSIG"</span>
   }
 ]</code></pre> 
  <p>查看<a href="https://en.bitcoin.it/wiki/Script" rel="nofollow">Script</a>，得知OP_HASH160 就是 The input is hashed twice: first with SHA-256 and then with RIPEMD-160，即先进行SHA-256哈希，再进行RIPEMD-160哈希。</p> 
  <p>参考： <br> <a href="http://blog.sina.com.cn/s/blog_a93b83380102z732.html" rel="nofollow">实例展示比特币交易的脚本验证过程</a> <br> <a href="http://www.8btc.com/bitcoin_script-concept" rel="nofollow">比特币系统的脚本（Script)——交易生成和验证的原理（第一部分）（初稿）</a> <br> <a href="https://en.bitcoin.it/wiki/Script" rel="nofollow">Script</a> <br> <a href="https://blog.csdn.net/chunlongyu/article/details/80298299" rel="nofollow">第10课 交易安全性如何保证？ – scriptSig/scriptPubKey/Script Engine</a> <br> <a href="http://www.8btc.com/transaction_coin_tech" rel="nofollow">技术流：比特币交易构成</a> <br> <a href="http://www.atool.org/hash.php" rel="nofollow">http://www.atool.org/hash.php</a></p> 
 </div> 
 <link href="https://csdnimg.cn/release/phoenix/mdeditor/markdown_views-7f770a53f2.css" rel="stylesheet"> 
</div> 
<div class="hide-article-box text-center"> 
 <a class="btn" id="btn-readmore" data-track-view="{&quot;mod&quot;:&quot;popu_376&quot;,&quot;con&quot;:&quot;,https://blog.csdn.net/yzpbright/article/details/80585099,&quot;}" data-track-click="{&quot;mod&quot;:&quot;popu_376&quot;,&quot;con&quot;:&quot;,https://blog.csdn.net/yzpbright/article/details/80585099,&quot;}">阅读更多</a> 
</div> 
<script>
						(function(){
							function setArticleH(btnReadmore,posi){
								var winH = $(window).height();
								var articleBox = $("div.article_content");
								var artH = articleBox.height();
								if(artH > winH*posi){
									articleBox.css({
										'height':winH*posi+'px',
										'overflow':'hidden'
									})
									btnReadmore.click(function(){
										articleBox.removeAttr("style");
										$(this).parent().remove();
									})
								}else{
									btnReadmore.parent().remove();
								}
							}
							var btnReadmore = $("#btn-readmore");
							if(btnReadmore.length>0){
								if(currentUserName){
									setArticleH(btnReadmore,3);
								}else{
									setArticleH(btnReadmore,1.2);
								}
							}
						})()
					</script>

	<script async src="//pagead2.googlesyndication.com/pagead/js/adsbygoogle.js"></script>
	<!-- 自定义广告 -->
	<ins class="adsbygoogle"
	     style="display:block"
	     data-ad-client="ca-pub-8889449066804352"
	     data-ad-slot="1494696990"
	     data-ad-format="auto"
	     data-full-width-responsive="true"></ins>
	<script>
		(adsbygoogle = window.adsbygoogle || []).push({});
	</script>


        <br />
        <a href="https://uzshare.com/">更多精彩内容</a>
      </section>
      
      <header style="right: 0;position: fixed;bottom: 60px;z-index: 100;background: none;border-bottom:none;">
        <ul style="display: block;">
          <li><a href="/" style="line-height: 40px;padding-top:0px;">回首页</a></li>
        </ul>
      </header>
      <header class="sm-hidden" style="right: 0;position: fixed;bottom: 60px;z-index: 100;background: none;border-bottom:none;">
          <img src="https://uzzz.org.cn/imgqcode.png" style="width:160px;" />
      </header>
      
      <header class="sm-hidden" style="left: 0;position: fixed;bottom: 60px;z-index: 100;background: none;border-bottom:none;">
          <img src="https://uzzz.org.cn/hou_imgqcode.png" style="width:160px;">
      </header>
    </div>
    
    <!--[if !IE]><script>fixScale(document);</script><![endif]-->

    <script>
    var _hmt = _hmt || [];
    (function() {
      var hm = document.createElement("script");
      hm.src = "https://hm.baidu.com/hm.js?ee64533f3c6a7a284cd39a37ee732c8b";
      var s = document.getElementsByTagName("script")[0]; 
      s.parentNode.insertBefore(hm, s);
    })();
    </script>

  </body>
</html>
