<!doctype html>
<html lang="en-US">
  <head>
    <meta charset="utf-8">
    <meta http-equiv="X-UA-Compatible" content="IE=edge">

<!-- Begin Jekyll SEO tag v2.5.0 -->
<title>比特币P2SH交易数据结构解析 | 有组织在！</title>
<meta name="generator" content="Jekyll v3.8.5" />
<meta property="og:title" content="比特币P2SH交易数据结构解析" />
<meta property="og:locale" content="en_US" />
<meta name="description" content="1、解析原生交易 decoderawtransaction 01000000000101708256c5896fb3f00ef37601f8e30c5b460dbcd1fca1cd7199f9b56fc4ecd54000000000232200201aaa5a03ce8d33280eb958c98430c2a6177f3604a5fae374e9ed5c4703f152c3ffffffff0100c5dc030000000017a91462426ef7c71e744780d9d7540573e736105fad1c87040047304402204a5be4397ffa09c4de16a180d8fc8b0723edca6fc1ff28447fde7ced40941f0802207f3a34e899b6e5730338825aa3666077886c6a5d23a3363bbb07f1ee3828efd70147304402207410638a0b28f359d63e8a07cbc8a36d3e2d8cedd289d815151befa1daf1988d0220545d3add1545682f60a828d1aad5f52a3bd1e6849c1ab736d4e4781425b9a2e60169522102ee9f84122a4c96b0b50c6ece628430208f527c94b5abb79450f520bab7ef088c21038220abc643545ba7c6fde337e08247785222ba5bcf8d69cf7cdd077d9bbbd0262103889848ac7b663b20d98bd9fbb15b0c6bfa16d986ad9c7ea8eec406a25ef25a6253ae00000000 { &quot;txid&quot;: &quot;b615db2e38a415ad1436ddbdee847584256a0630f8ebfe64548ea31ebefa9c97&quot;, &quot;hash&quot;: &quot;9ee60d6baf34857adc1b3096abbef18ee48f37c4416d095e95987291c771f67d&quot;, &quot;version&quot;: 1, &quot;size&quot;: 372, &quot;vsize&quot;: 182, &quot;locktime&quot;: 0, &quot;vin&quot;: [ { &quot;txid&quot;: &quot;40d5ecc46fb5f99971cda1fcd1bc0d465b0ce3f80176f30ef0b36f89c5568270&quot;, &quot;vout&quot;: 0,//为指定txid交易的0号输出 &quot;scriptSig&quot;: { &quot;asm&quot;: &quot;00201aaa5a03ce8d33280eb958c98430c2a6177f3604a5fae374e9ed5c4703f152c3&quot;,//解锁脚本 &quot;hex&quot;: &quot;2200201aaa5a03ce8d33280eb958c98430c2a6177f3604a5fae374e9ed5c4703f152c3&quot; }, &quot;txinwitness&quot;: [ &quot;&quot;, &quot;304402204a5be4397ffa09c4de16a180d8fc8b0723edca6fc1ff28447fde7ced40941f0802207f3a34e899b6e5730338825aa3666077886c6a5d23a3363bbb07f1ee3828efd701&quot;,//sign0 &quot;304402207410638a0b28f359d63e8a07cbc8a36d3e2d8cedd289d815151befa1daf1988d0220545d3add1545682f60a828d1aad5f52a3bd1e6849c1ab736d4e4781425b9a2e601&quot;,//sign1 &quot;522102ee9f84122a4c96b0b50c6ece628430208f527c94b5abb79450f520bab7ef088c21038220abc643545ba7c6fde337e08247785222ba5bcf8d69cf7cdd077d9bbbd0262103889848ac7b663b20d98bd9fbb15b0c6bfa16d986ad9c7ea8eec406a25ef25a6253ae&quot;//赎回脚本 ], &quot;sequence&quot;: 4294967295 } ], &quot;vout&quot;: [ { &quot;value&quot;: 0.64800000, &quot;n&quot;: 0, &quot;scriptPubKey&quot;: { &quot;asm&quot;: &quot;OP_HASH160 62426ef7c71e744780d9d7540573e736105fad1c OP_EQUAL&quot;,//锁定脚本 &quot;hex&quot;: &quot;a91462426ef7c71e744780d9d7540573e736105fad1c87&quot;, &quot;reqSigs&quot;: 1, &quot;type&quot;: &quot;scripthash&quot;, &quot;addresses&quot;: [ &quot;3AeZjDo9yvwweoK8atdsqxC5Pxg59j17JM&quot; ] } } ] } 2、解析p2sh的解锁脚本 decodescript 00201aaa5a03ce8d33280eb958c98430c2a6177f3604a5fae374e9ed5c4703f152c3 { &quot;asm&quot;: &quot;0 1aaa5a03ce8d33280eb958c98430c2a6177f3604a5fae374e9ed5c4703f152c3&quot;, &quot;reqSigs&quot;: 1, &quot;type&quot;: &quot;witness_v0_scripthash&quot;, &quot;addresses&quot;: [ &quot;bc1qr2495q7w35ejsr4etrycgvxz5cth7dsy5hawxa8fa4wywql32tps8whzel&quot; ], &quot;p2sh&quot;: &quot;3Q99PXASzaXweaLWD4x3bFn49KK9kGoTgK&quot; } 3、赎回脚本 decodescript 522102ee9f84122a4c96b0b50c6ece628430208f527c94b5abb79450f520bab7ef088c21038220abc643545ba7c6fde337e08247785222ba5bcf8d69cf7cdd077d9bbbd0262103889848ac7b663b20d98bd9fbb15b0c6bfa16d986ad9c7ea8eec406a25ef25a6253ae { &quot;asm&quot;: &quot;2 02ee9f84122a4c96b0b50c6ece628430208f527c94b5abb79450f520bab7ef088c 038220abc643545ba7c6fde337e08247785222ba5bcf8d69cf7cdd077d9bbbd026 03889848ac7b663b20d98bd9fbb15b0c6bfa16d986ad9c7ea8eec406a25ef25a62 3 OP_CHECKMULTISIG&quot;, &quot;reqSigs&quot;: 2, &quot;type&quot;: &quot;multisig&quot;, &quot;addresses&quot;: [ &quot;13HqBpC3FANBko4frrjyQhL3yzGYjz6Gyr&quot;, &quot;1Kg1ZxNdMTLLKgvi3LXXayQhtLX1D5sgxU&quot;, &quot;1DEbFEzHGF9mVT7xgQif8sKPfww228z2kf&quot; ], &quot;p2sh&quot;: &quot;3H43VoteM46NQmKnT9FSzR731Jgu5fndaE&quot; } 该交易的utxo由三个地址拥有，如果想花掉这笔交易，需要提供两个地址的签名，才能解锁脚本。 阅读更多" />
<meta property="og:description" content="1、解析原生交易 decoderawtransaction 01000000000101708256c5896fb3f00ef37601f8e30c5b460dbcd1fca1cd7199f9b56fc4ecd54000000000232200201aaa5a03ce8d33280eb958c98430c2a6177f3604a5fae374e9ed5c4703f152c3ffffffff0100c5dc030000000017a91462426ef7c71e744780d9d7540573e736105fad1c87040047304402204a5be4397ffa09c4de16a180d8fc8b0723edca6fc1ff28447fde7ced40941f0802207f3a34e899b6e5730338825aa3666077886c6a5d23a3363bbb07f1ee3828efd70147304402207410638a0b28f359d63e8a07cbc8a36d3e2d8cedd289d815151befa1daf1988d0220545d3add1545682f60a828d1aad5f52a3bd1e6849c1ab736d4e4781425b9a2e60169522102ee9f84122a4c96b0b50c6ece628430208f527c94b5abb79450f520bab7ef088c21038220abc643545ba7c6fde337e08247785222ba5bcf8d69cf7cdd077d9bbbd0262103889848ac7b663b20d98bd9fbb15b0c6bfa16d986ad9c7ea8eec406a25ef25a6253ae00000000 { &quot;txid&quot;: &quot;b615db2e38a415ad1436ddbdee847584256a0630f8ebfe64548ea31ebefa9c97&quot;, &quot;hash&quot;: &quot;9ee60d6baf34857adc1b3096abbef18ee48f37c4416d095e95987291c771f67d&quot;, &quot;version&quot;: 1, &quot;size&quot;: 372, &quot;vsize&quot;: 182, &quot;locktime&quot;: 0, &quot;vin&quot;: [ { &quot;txid&quot;: &quot;40d5ecc46fb5f99971cda1fcd1bc0d465b0ce3f80176f30ef0b36f89c5568270&quot;, &quot;vout&quot;: 0,//为指定txid交易的0号输出 &quot;scriptSig&quot;: { &quot;asm&quot;: &quot;00201aaa5a03ce8d33280eb958c98430c2a6177f3604a5fae374e9ed5c4703f152c3&quot;,//解锁脚本 &quot;hex&quot;: &quot;2200201aaa5a03ce8d33280eb958c98430c2a6177f3604a5fae374e9ed5c4703f152c3&quot; }, &quot;txinwitness&quot;: [ &quot;&quot;, &quot;304402204a5be4397ffa09c4de16a180d8fc8b0723edca6fc1ff28447fde7ced40941f0802207f3a34e899b6e5730338825aa3666077886c6a5d23a3363bbb07f1ee3828efd701&quot;,//sign0 &quot;304402207410638a0b28f359d63e8a07cbc8a36d3e2d8cedd289d815151befa1daf1988d0220545d3add1545682f60a828d1aad5f52a3bd1e6849c1ab736d4e4781425b9a2e601&quot;,//sign1 &quot;522102ee9f84122a4c96b0b50c6ece628430208f527c94b5abb79450f520bab7ef088c21038220abc643545ba7c6fde337e08247785222ba5bcf8d69cf7cdd077d9bbbd0262103889848ac7b663b20d98bd9fbb15b0c6bfa16d986ad9c7ea8eec406a25ef25a6253ae&quot;//赎回脚本 ], &quot;sequence&quot;: 4294967295 } ], &quot;vout&quot;: [ { &quot;value&quot;: 0.64800000, &quot;n&quot;: 0, &quot;scriptPubKey&quot;: { &quot;asm&quot;: &quot;OP_HASH160 62426ef7c71e744780d9d7540573e736105fad1c OP_EQUAL&quot;,//锁定脚本 &quot;hex&quot;: &quot;a91462426ef7c71e744780d9d7540573e736105fad1c87&quot;, &quot;reqSigs&quot;: 1, &quot;type&quot;: &quot;scripthash&quot;, &quot;addresses&quot;: [ &quot;3AeZjDo9yvwweoK8atdsqxC5Pxg59j17JM&quot; ] } } ] } 2、解析p2sh的解锁脚本 decodescript 00201aaa5a03ce8d33280eb958c98430c2a6177f3604a5fae374e9ed5c4703f152c3 { &quot;asm&quot;: &quot;0 1aaa5a03ce8d33280eb958c98430c2a6177f3604a5fae374e9ed5c4703f152c3&quot;, &quot;reqSigs&quot;: 1, &quot;type&quot;: &quot;witness_v0_scripthash&quot;, &quot;addresses&quot;: [ &quot;bc1qr2495q7w35ejsr4etrycgvxz5cth7dsy5hawxa8fa4wywql32tps8whzel&quot; ], &quot;p2sh&quot;: &quot;3Q99PXASzaXweaLWD4x3bFn49KK9kGoTgK&quot; } 3、赎回脚本 decodescript 522102ee9f84122a4c96b0b50c6ece628430208f527c94b5abb79450f520bab7ef088c21038220abc643545ba7c6fde337e08247785222ba5bcf8d69cf7cdd077d9bbbd0262103889848ac7b663b20d98bd9fbb15b0c6bfa16d986ad9c7ea8eec406a25ef25a6253ae { &quot;asm&quot;: &quot;2 02ee9f84122a4c96b0b50c6ece628430208f527c94b5abb79450f520bab7ef088c 038220abc643545ba7c6fde337e08247785222ba5bcf8d69cf7cdd077d9bbbd026 03889848ac7b663b20d98bd9fbb15b0c6bfa16d986ad9c7ea8eec406a25ef25a62 3 OP_CHECKMULTISIG&quot;, &quot;reqSigs&quot;: 2, &quot;type&quot;: &quot;multisig&quot;, &quot;addresses&quot;: [ &quot;13HqBpC3FANBko4frrjyQhL3yzGYjz6Gyr&quot;, &quot;1Kg1ZxNdMTLLKgvi3LXXayQhtLX1D5sgxU&quot;, &quot;1DEbFEzHGF9mVT7xgQif8sKPfww228z2kf&quot; ], &quot;p2sh&quot;: &quot;3H43VoteM46NQmKnT9FSzR731Jgu5fndaE&quot; } 该交易的utxo由三个地址拥有，如果想花掉这笔交易，需要提供两个地址的签名，才能解锁脚本。 阅读更多" />
<meta property="og:site_name" content="有组织在！" />
<meta property="og:type" content="article" />
<meta property="article:published_time" content="2018-07-12T00:00:00+08:00" />
<script type="application/ld+json">
{"description":"1、解析原生交易 decoderawtransaction 01000000000101708256c5896fb3f00ef37601f8e30c5b460dbcd1fca1cd7199f9b56fc4ecd54000000000232200201aaa5a03ce8d33280eb958c98430c2a6177f3604a5fae374e9ed5c4703f152c3ffffffff0100c5dc030000000017a91462426ef7c71e744780d9d7540573e736105fad1c87040047304402204a5be4397ffa09c4de16a180d8fc8b0723edca6fc1ff28447fde7ced40941f0802207f3a34e899b6e5730338825aa3666077886c6a5d23a3363bbb07f1ee3828efd70147304402207410638a0b28f359d63e8a07cbc8a36d3e2d8cedd289d815151befa1daf1988d0220545d3add1545682f60a828d1aad5f52a3bd1e6849c1ab736d4e4781425b9a2e60169522102ee9f84122a4c96b0b50c6ece628430208f527c94b5abb79450f520bab7ef088c21038220abc643545ba7c6fde337e08247785222ba5bcf8d69cf7cdd077d9bbbd0262103889848ac7b663b20d98bd9fbb15b0c6bfa16d986ad9c7ea8eec406a25ef25a6253ae00000000 { &quot;txid&quot;: &quot;b615db2e38a415ad1436ddbdee847584256a0630f8ebfe64548ea31ebefa9c97&quot;, &quot;hash&quot;: &quot;9ee60d6baf34857adc1b3096abbef18ee48f37c4416d095e95987291c771f67d&quot;, &quot;version&quot;: 1, &quot;size&quot;: 372, &quot;vsize&quot;: 182, &quot;locktime&quot;: 0, &quot;vin&quot;: [ { &quot;txid&quot;: &quot;40d5ecc46fb5f99971cda1fcd1bc0d465b0ce3f80176f30ef0b36f89c5568270&quot;, &quot;vout&quot;: 0,//为指定txid交易的0号输出 &quot;scriptSig&quot;: { &quot;asm&quot;: &quot;00201aaa5a03ce8d33280eb958c98430c2a6177f3604a5fae374e9ed5c4703f152c3&quot;,//解锁脚本 &quot;hex&quot;: &quot;2200201aaa5a03ce8d33280eb958c98430c2a6177f3604a5fae374e9ed5c4703f152c3&quot; }, &quot;txinwitness&quot;: [ &quot;&quot;, &quot;304402204a5be4397ffa09c4de16a180d8fc8b0723edca6fc1ff28447fde7ced40941f0802207f3a34e899b6e5730338825aa3666077886c6a5d23a3363bbb07f1ee3828efd701&quot;,//sign0 &quot;304402207410638a0b28f359d63e8a07cbc8a36d3e2d8cedd289d815151befa1daf1988d0220545d3add1545682f60a828d1aad5f52a3bd1e6849c1ab736d4e4781425b9a2e601&quot;,//sign1 &quot;522102ee9f84122a4c96b0b50c6ece628430208f527c94b5abb79450f520bab7ef088c21038220abc643545ba7c6fde337e08247785222ba5bcf8d69cf7cdd077d9bbbd0262103889848ac7b663b20d98bd9fbb15b0c6bfa16d986ad9c7ea8eec406a25ef25a6253ae&quot;//赎回脚本 ], &quot;sequence&quot;: 4294967295 } ], &quot;vout&quot;: [ { &quot;value&quot;: 0.64800000, &quot;n&quot;: 0, &quot;scriptPubKey&quot;: { &quot;asm&quot;: &quot;OP_HASH160 62426ef7c71e744780d9d7540573e736105fad1c OP_EQUAL&quot;,//锁定脚本 &quot;hex&quot;: &quot;a91462426ef7c71e744780d9d7540573e736105fad1c87&quot;, &quot;reqSigs&quot;: 1, &quot;type&quot;: &quot;scripthash&quot;, &quot;addresses&quot;: [ &quot;3AeZjDo9yvwweoK8atdsqxC5Pxg59j17JM&quot; ] } } ] } 2、解析p2sh的解锁脚本 decodescript 00201aaa5a03ce8d33280eb958c98430c2a6177f3604a5fae374e9ed5c4703f152c3 { &quot;asm&quot;: &quot;0 1aaa5a03ce8d33280eb958c98430c2a6177f3604a5fae374e9ed5c4703f152c3&quot;, &quot;reqSigs&quot;: 1, &quot;type&quot;: &quot;witness_v0_scripthash&quot;, &quot;addresses&quot;: [ &quot;bc1qr2495q7w35ejsr4etrycgvxz5cth7dsy5hawxa8fa4wywql32tps8whzel&quot; ], &quot;p2sh&quot;: &quot;3Q99PXASzaXweaLWD4x3bFn49KK9kGoTgK&quot; } 3、赎回脚本 decodescript 522102ee9f84122a4c96b0b50c6ece628430208f527c94b5abb79450f520bab7ef088c21038220abc643545ba7c6fde337e08247785222ba5bcf8d69cf7cdd077d9bbbd0262103889848ac7b663b20d98bd9fbb15b0c6bfa16d986ad9c7ea8eec406a25ef25a6253ae { &quot;asm&quot;: &quot;2 02ee9f84122a4c96b0b50c6ece628430208f527c94b5abb79450f520bab7ef088c 038220abc643545ba7c6fde337e08247785222ba5bcf8d69cf7cdd077d9bbbd026 03889848ac7b663b20d98bd9fbb15b0c6bfa16d986ad9c7ea8eec406a25ef25a62 3 OP_CHECKMULTISIG&quot;, &quot;reqSigs&quot;: 2, &quot;type&quot;: &quot;multisig&quot;, &quot;addresses&quot;: [ &quot;13HqBpC3FANBko4frrjyQhL3yzGYjz6Gyr&quot;, &quot;1Kg1ZxNdMTLLKgvi3LXXayQhtLX1D5sgxU&quot;, &quot;1DEbFEzHGF9mVT7xgQif8sKPfww228z2kf&quot; ], &quot;p2sh&quot;: &quot;3H43VoteM46NQmKnT9FSzR731Jgu5fndaE&quot; } 该交易的utxo由三个地址拥有，如果想花掉这笔交易，需要提供两个地址的签名，才能解锁脚本。 阅读更多","@type":"BlogPosting","url":"/2018/07/12/91fe93b6b95a6a4fed6be8053531826e.html","headline":"比特币P2SH交易数据结构解析","dateModified":"2018-07-12T00:00:00+08:00","datePublished":"2018-07-12T00:00:00+08:00","mainEntityOfPage":{"@type":"WebPage","@id":"/2018/07/12/91fe93b6b95a6a4fed6be8053531826e.html"},"@context":"http://schema.org"}</script>
<!-- End Jekyll SEO tag -->


    <link rel="stylesheet" href="/assets/css/style.css?v=">
    <script src="/assets/js/scale.fix.js"></script>
    <meta name="viewport" content="width=device-width, initial-scale=1, user-scalable=no">

    <!--[if lt IE 9]>
    <script src="//html5shiv.googlecode.com/svn/trunk/html5.js"></script>
    <![endif]-->
    
    <!-- Global site tag (gtag.js) - Google Analytics -->
    <script async src="https://www.googletagmanager.com/gtag/js?id=UA-123344652-1"></script>
    <script>
      window.dataLayer = window.dataLayer || [];
      function gtag(){dataLayer.push(arguments);}
      gtag('js', new Date());

      gtag('config', 'UA-123344652-1');
    </script>
    
    <script async src="//pagead2.googlesyndication.com/pagead/js/adsbygoogle.js"></script>
    <script>
      (adsbygoogle = window.adsbygoogle || []).push({
        google_ad_client: "ca-pub-8889449066804352",
        enable_page_level_ads: true
      });
    </script>
    
    <script async custom-element="amp-auto-ads"
        src="https://cdn.ampproject.org/v0/amp-auto-ads-0.1.js">
    </script>
    
    <style>
      @media screen and (max-width:760px){
        .sm-hidden{display:none; }
      }
    </style>

  </head>
  <body>
    
        <amp-auto-ads type="adsense"
              data-ad-client="ca-pub-8889449066804352">
        </amp-auto-ads>
    
    <div class="wrapper">
      <header  class="without-description" >
        <h1>比特币P2SH交易数据结构解析</h1>
        
        
        <ul>
            <li><a href="https://uzshare.com/" style="line-height: unset;" target="_blank"><strong>柚子社区</strong></a></li>
        </ul>
        
        
        
      </header>
      <section>

<div style="margin:0 0 8px 0;">
<style>
table.gsc-input {
    margin: 0;
}
.cse .gsc-control-cse, .gsc-control-cse {
    padding: 0;
    width: auto;
}
.gsc-search-box td {
    border-bottom: none;
}
</style>
<script>
  (function() {
    var cx = '004431708863642777669:qan2_6ugotw';
    var gcse = document.createElement('script');
    gcse.type = 'text/javascript';
    gcse.async = true;
    gcse.src = 'https://cse.google.com/cse.js?cx=' + cx;
    var s = document.getElementsByTagName('script')[0];
    s.parentNode.insertBefore(gcse, s);
  })();
</script>
<gcse:search></gcse:search>
</div>
	

        <div id="article_content" class="article_content clearfix csdn-tracking-statistics" data-pid="blog" data-mod="popu_307" data-dsm="post"> 
 <div class="markdown_views"> 
  <pre class="prettyprint"><code class=" hljs cs"><span class="hljs-number">1</span>、解析原生交易
decoderawtransaction <span class="hljs-number">01000000000101708256</span>c5896fb3f00ef37601f8e30c5b460dbcd1fca1cd7199f9b56fc4ecd54000000000232200201aaa5a03ce8d33280eb958c98430c2a6177f3604a5fae374e9ed5c4703f152c3ffffffff0100c5dc030000000017a91462426ef7c71e744780d9d7540573e736105fad1c87040047304402204a5be4397ffa09c4de16a180d8fc8b0723edca6fc1ff28447fde7ced40941f0802207f3a34e899b6e5730338825aa3666077886c6a5d23a3363bbb07f1ee3828efd70147304402207410638a0b28f359d63e8a07cbc8a36d3e2d8cedd289d815151befa1daf1988d0220545d3add1545682f60a828d1aad5f52a3bd1e6849c1ab736d4e4781425b9a2e60169522102ee9f84122a4c96b0b50c6ece628430208f527c94b5abb79450f520bab7ef088c21038220abc643545ba7c6fde337e08247785222ba5bcf8d69cf7cdd077d9bbbd0262103889848ac7b663b20d98bd9fbb15b0c6bfa16d986ad9c7ea8eec406a25ef25a6253ae00000000

{
  <span class="hljs-string">"txid"</span>: <span class="hljs-string">"b615db2e38a415ad1436ddbdee847584256a0630f8ebfe64548ea31ebefa9c97"</span>,
  <span class="hljs-string">"hash"</span>: <span class="hljs-string">"9ee60d6baf34857adc1b3096abbef18ee48f37c4416d095e95987291c771f67d"</span>,
  <span class="hljs-string">"version"</span>: <span class="hljs-number">1</span>,
  <span class="hljs-string">"size"</span>: <span class="hljs-number">372</span>,
  <span class="hljs-string">"vsize"</span>: <span class="hljs-number">182</span>,
  <span class="hljs-string">"locktime"</span>: <span class="hljs-number">0</span>,
  <span class="hljs-string">"vin"</span>: [
    {
      <span class="hljs-string">"txid"</span>: <span class="hljs-string">"40d5ecc46fb5f99971cda1fcd1bc0d465b0ce3f80176f30ef0b36f89c5568270"</span>,
      <span class="hljs-string">"vout"</span>: <span class="hljs-number">0</span>,<span class="hljs-comment">//为指定txid交易的0号输出</span>
      <span class="hljs-string">"scriptSig"</span>: {
        <span class="hljs-string">"asm"</span>: <span class="hljs-string">"00201aaa5a03ce8d33280eb958c98430c2a6177f3604a5fae374e9ed5c4703f152c3"</span>,<span class="hljs-comment">//解锁脚本</span>
        <span class="hljs-string">"hex"</span>: <span class="hljs-string">"2200201aaa5a03ce8d33280eb958c98430c2a6177f3604a5fae374e9ed5c4703f152c3"</span>
      },
      <span class="hljs-string">"txinwitness"</span>: [
        <span class="hljs-string">""</span>,
        <span class="hljs-string">"304402204a5be4397ffa09c4de16a180d8fc8b0723edca6fc1ff28447fde7ced40941f0802207f3a34e899b6e5730338825aa3666077886c6a5d23a3363bbb07f1ee3828efd701"</span>,<span class="hljs-comment">//sign0</span>
        <span class="hljs-string">"304402207410638a0b28f359d63e8a07cbc8a36d3e2d8cedd289d815151befa1daf1988d0220545d3add1545682f60a828d1aad5f52a3bd1e6849c1ab736d4e4781425b9a2e601"</span>,<span class="hljs-comment">//sign1</span>
        <span class="hljs-string">"522102ee9f84122a4c96b0b50c6ece628430208f527c94b5abb79450f520bab7ef088c21038220abc643545ba7c6fde337e08247785222ba5bcf8d69cf7cdd077d9bbbd0262103889848ac7b663b20d98bd9fbb15b0c6bfa16d986ad9c7ea8eec406a25ef25a6253ae"</span><span class="hljs-comment">//赎回脚本</span>
      ],
      <span class="hljs-string">"sequence"</span>: <span class="hljs-number">4294967295</span>
    }
  ],
  <span class="hljs-string">"vout"</span>: [
    {
      <span class="hljs-string">"value"</span>: <span class="hljs-number">0.64800000</span>,
      <span class="hljs-string">"n"</span>: <span class="hljs-number">0</span>,
      <span class="hljs-string">"scriptPubKey"</span>: {
        <span class="hljs-string">"asm"</span>: <span class="hljs-string">"OP_HASH160 62426ef7c71e744780d9d7540573e736105fad1c OP_EQUAL"</span>,<span class="hljs-comment">//锁定脚本</span>
        <span class="hljs-string">"hex"</span>: <span class="hljs-string">"a91462426ef7c71e744780d9d7540573e736105fad1c87"</span>,
        <span class="hljs-string">"reqSigs"</span>: <span class="hljs-number">1</span>,
        <span class="hljs-string">"type"</span>: <span class="hljs-string">"scripthash"</span>,
        <span class="hljs-string">"addresses"</span>: [
          <span class="hljs-string">"3AeZjDo9yvwweoK8atdsqxC5Pxg59j17JM"</span>
        ]
      }
    }
  ]
}


<span class="hljs-number">2</span>、解析p2sh的解锁脚本
decodescript <span class="hljs-number">00201</span>aaa5a03ce8d33280eb958c98430c2a6177f3604a5fae374e9ed5c4703f152c3

{
  <span class="hljs-string">"asm"</span>: <span class="hljs-string">"0 1aaa5a03ce8d33280eb958c98430c2a6177f3604a5fae374e9ed5c4703f152c3"</span>,
  <span class="hljs-string">"reqSigs"</span>: <span class="hljs-number">1</span>,
  <span class="hljs-string">"type"</span>: <span class="hljs-string">"witness_v0_scripthash"</span>,
  <span class="hljs-string">"addresses"</span>: [
    <span class="hljs-string">"bc1qr2495q7w35ejsr4etrycgvxz5cth7dsy5hawxa8fa4wywql32tps8whzel"</span>
  ],
  <span class="hljs-string">"p2sh"</span>: <span class="hljs-string">"3Q99PXASzaXweaLWD4x3bFn49KK9kGoTgK"</span>
}


<span class="hljs-number">3</span>、赎回脚本
decodescript <span class="hljs-number">522102</span>ee9f84122a4c96b0b50c6ece628430208f527c94b5abb79450f520bab7ef088c21038220abc643545ba7c6fde337e08247785222ba5bcf8d69cf7cdd077d9bbbd0262103889848ac7b663b20d98bd9fbb15b0c6bfa16d986ad9c7ea8eec406a25ef25a6253ae

{
  <span class="hljs-string">"asm"</span>: <span class="hljs-string">"2 02ee9f84122a4c96b0b50c6ece628430208f527c94b5abb79450f520bab7ef088c 038220abc643545ba7c6fde337e08247785222ba5bcf8d69cf7cdd077d9bbbd026 03889848ac7b663b20d98bd9fbb15b0c6bfa16d986ad9c7ea8eec406a25ef25a62 3 OP_CHECKMULTISIG"</span>,
  <span class="hljs-string">"reqSigs"</span>: <span class="hljs-number">2</span>,
  <span class="hljs-string">"type"</span>: <span class="hljs-string">"multisig"</span>,
  <span class="hljs-string">"addresses"</span>: [
    <span class="hljs-string">"13HqBpC3FANBko4frrjyQhL3yzGYjz6Gyr"</span>,
    <span class="hljs-string">"1Kg1ZxNdMTLLKgvi3LXXayQhtLX1D5sgxU"</span>,
    <span class="hljs-string">"1DEbFEzHGF9mVT7xgQif8sKPfww228z2kf"</span>
  ],
  <span class="hljs-string">"p2sh"</span>: <span class="hljs-string">"3H43VoteM46NQmKnT9FSzR731Jgu5fndaE"</span>
}
该交易的utxo由三个地址拥有，如果想花掉这笔交易，需要提供两个地址的签名，才能解锁脚本。</code></pre> 
 </div> 
 <link rel="stylesheet" href="https://csdnimg.cn/release/phoenix/template/css/markdown_views-ea0013b516.css"> 
</div> 
<div class="hide-article-box text-center"> 
 <a class="btn btn-red-hollow" id="btn-readmore" data-track-view="{&quot;mod&quot;:&quot;popu_376&quot;,&quot;con&quot;:&quot;,https://blog.csdn.net/anda0109/article/details/81018022,&quot;}" data-track-click="{&quot;mod&quot;:&quot;popu_376&quot;,&quot;con&quot;:&quot;,https://blog.csdn.net/anda0109/article/details/81018022,&quot;}">阅读更多</a> 
</div>

	<script async src="//pagead2.googlesyndication.com/pagead/js/adsbygoogle.js"></script>
	<!-- 自定义广告 -->
	<ins class="adsbygoogle"
	     style="display:block"
	     data-ad-client="ca-pub-8889449066804352"
	     data-ad-slot="1494696990"
	     data-ad-format="auto"
	     data-full-width-responsive="true"></ins>
	<script>
		(adsbygoogle = window.adsbygoogle || []).push({});
	</script>


        <br />
        <a href="https://uzshare.com/">更多精彩内容</a>
      </section>
      
      <header style="right: 0;position: fixed;bottom: 60px;z-index: 100;background: none;border-bottom:none;">
        <ul style="display: block;">
          <li><a href="/" style="line-height: 40px;padding-top:0px;">回首页</a></li>
        </ul>
      </header>
      <header class="sm-hidden" style="right: 0;position: fixed;bottom: 60px;z-index: 100;background: none;border-bottom:none;">
          <img src="https://uzzz.org.cn/imgqcode.png" style="width:160px;" />
      </header>
      
      <header class="sm-hidden" style="left: 0;position: fixed;bottom: 60px;z-index: 100;background: none;border-bottom:none;">
          <img src="https://uzzz.org.cn/hou_imgqcode.png" style="width:160px;">
      </header>
    </div>
    
    <!--[if !IE]><script>fixScale(document);</script><![endif]-->

    <script>
    var _hmt = _hmt || [];
    (function() {
      var hm = document.createElement("script");
      hm.src = "https://hm.baidu.com/hm.js?ee64533f3c6a7a284cd39a37ee732c8b";
      var s = document.getElementsByTagName("script")[0]; 
      s.parentNode.insertBefore(hm, s);
    })();
    </script>

  </body>
</html>
