<!doctype html>
<html lang="en-US">
  <head>
    <meta charset="utf-8">
    <meta http-equiv="X-UA-Compatible" content="IE=edge">

<!-- Begin Jekyll SEO tag v2.5.0 -->
<title>pycoin学习笔记(4) 生成交易，使用jsonrpc签名并广播 | 有组织在！</title>
<meta name="generator" content="Jekyll v3.8.5" />
<meta property="og:title" content="pycoin学习笔记(4) 生成交易，使用jsonrpc签名并广播" />
<meta property="og:locale" content="en_US" />
<meta name="description" content="注：本篇所有实验均在比特币测试网络（testnet）下进行 前置步骤： 1）下载比特币钱包客户端: bitcoin core. 选择testnet并开启jsonrpc的相关功能。 2）去网上乞讨一些比特币 这是我乞讨得到的1.03个比特币 该交易的hex表示为： 0200000001ae2e375fe76f30e3451e2f5fd7441c66ce884a189886abe1e6eccbeff6b6cda8000000006a473044022010ce551c1f7e1f8fa4a4a9d4d67c1acf9581ede52e0b1030c6974b798721c0ff02203191b63e3a19de477f30034c749056afce104d8d0e5365e95edc1aaa34392b360121037ca1f015fbaf30ca61d9a9e555c5fb35cb8ee63c6a5c4b28f6f1194ce289e408feffffff02f8ff43b3650000001976a91418022dedf153d20b8bf10adae95c12eb6deb8de488ac4eb62c060000000017a91418c1047730048de078cf35649aa6ef2b6827a07187c9a41400 接下里，实验一下将我乞讨得到的这1.03btc转出0.2btc到其他比特币地址上。 正式撸码： from pycoin.tx.Tx import Tx from pycoin.tx.tx_utils import create_tx tx_hex = &quot;0200000001ae2e375fe76f30e3451e2f5fd7441c66ce884a189886abe1e6eccbeff6b6cda8000000006a473044022010ce551c1f7e1f8fa4a4a9d4d67c1acf9581ede52e0b1030c6974b798721c0ff02203191b63e3a19de477f30034c749056afce104d8d0e5365e95edc1aaa34392b360121037ca1f015fbaf30ca61d9a9e555c5fb35cb8ee63c6a5c4b28f6f1194ce289e408feffffff02f8ff43b3650000001976a91418022dedf153d20b8bf10adae95c12eb6deb8de488ac4eb62c060000000017a91418c1047730048de078cf35649aa6ef2b6827a07187c9a41400&quot; tx = Tx.from_hex(tx_hex) spendable = tx.tx_outs_as_spendable()[1] to_address = &quot;mh4xx1pgjqLmjVUJxfdj3qV8BJaYARLdh9&quot; change_address = &quot;2MxrJiqSAhss8Hm8PJM76cFzX8RS6Ve3afn&quot; tx_hex即我乞讨的那次交易，将作为新交易的资金来源；to_address表示转账地址, change_address表示找零地址。 new_tx = create_tx([spendable],[(to_address, 20000000), change_address]) new_tx_hex = new_tx.as_hex() print(new_tx_hex) #0100000001d56e1e4579ac2b407c105eb02d9749a73defd082837229dc290260d199f828350100000000ffffffff02002d3101000000001976a9141105fb9ff85657afb12a5c814776346b23db3a6688ac3e62fb040000000017a9143d7b2397ebb714da591028219b1162d6f21b40378700000000 利用pycoin，创建此次转账交易，即new_tx。20000000的单位是聪，一聪是亿分之一btc，所以其等于0.2btc from bitcoinrpc.authproxy import AuthServiceProxy conn = AuthServiceProxy(&quot;http://%s:%s@192.168.1.103:18332&quot;%(&quot;fftest&quot;,&quot;fftest123&quot;)) print(conn.decoderawtransaction(new_tx_hex)) #{&#39;txid&#39;: &#39;d8088b4821057a3e9e168d58c7d4cbc85b1728b1145da3e4e773d0d65141effa&#39;, &#39;hash&#39;: &#39;d8088b4821057a3e9e168d58c7d4cbc85b1728b1145da3e4e773d0d65141effa&#39;, &#39;version&#39;: 1, &#39;size&#39;: 117, &#39;vsize&#39;: 117, &#39;locktime&#39;: 0, &#39;vin&#39;: [{&#39;txid&#39;: &#39;3528f899d1600229dc29728382d0ef3da749972db05e107c402bac79451e6ed5&#39;, &#39;vout&#39;: 1, &#39;scriptSig&#39;: {&#39;asm&#39;: &#39;&#39;, &#39;hex&#39;: &#39;&#39;}, &#39;sequence&#39;: 4294967295}], &#39;vout&#39;: [{&#39;value&#39;: Decimal(&#39;0.20000000&#39;), &#39;n&#39;: 0, &#39;scriptPubKey&#39;: {&#39;asm&#39;: &#39;OP_DUP OP_HASH160 1105fb9ff85657afb12a5c814776346b23db3a66 OP_EQUALVERIFY OP_CHECKSIG&#39;, &#39;hex&#39;: &#39;76a9141105fb9ff85657afb12a5c814776346b23db3a6688ac&#39;, &#39;reqSigs&#39;: 1, &#39;type&#39;: &#39;pubkeyhash&#39;, &#39;addresses&#39;: [&#39;mh4xx1pgjqLmjVUJxfdj3qV8BJaYARLdh9&#39;]}}, {&#39;value&#39;: Decimal(&#39;0.83583550&#39;), &#39;n&#39;: 1, &#39;scriptPubKey&#39;: {&#39;asm&#39;: &#39;OP_HASH160 3d7b2397ebb714da591028219b1162d6f21b4037 OP_EQUAL&#39;, &#39;hex&#39;: &#39;a9143d7b2397ebb714da591028219b1162d6f21b403787&#39;, &#39;reqSigs&#39;: 1, &#39;type&#39;: &#39;scripthash&#39;, &#39;addresses&#39;: [&#39;2MxrJiqSAhss8Hm8PJM76cFzX8RS6Ve3afn&#39;]}}]} print(conn.signrawtransaction(new_tx_hex)) #{&#39;hex&#39;: &#39;01000000000101d56e1e4579ac2b407c105eb02d9749a73defd082837229dc290260d199f8283501000000171600148c943eca5ee4d2fef125ba53efc267b1f012a7abffffffff02002d3101000000001976a9141105fb9ff85657afb12a5c814776346b23db3a6688ac3e62fb040000000017a9143d7b2397ebb714da591028219b1162d6f21b4037870247304402204069d19f33b5b3b2bbfd8808059b73fccb288d9bd7273eae9178c24232d0ab360220723dd5d2f16a63ff3794e4a8c5381a616c6f5266b4427dd9808674a51a914dc4012103edaad325dd4297b31a5953aec10e6a0240f404ba4a4eb72f51be2a4b7ae8c02100000000&#39;, &#39;complete&#39;: True} 此处连入bticoin core钱包提供的server，使用的库是python-bitcoinrpc。首先解码看一下new_tx，接下来对其进行签名。注意由于私钥在钱包里，所以此处不在本地离线签名，而是让钱包进行签名，并且返回签名结果。 signed_new_tx_hex = &quot;01000000000101d56e1e4579ac2b407c105eb02d9749a73defd082837229dc290260d199f8283501000000171600148c943eca5ee4d2fef125ba53efc267b1f012a7abffffffff02002d3101000000001976a9141105fb9ff85657afb12a5c814776346b23db3a6688ac3e62fb040000000017a9143d7b2397ebb714da591028219b1162d6f21b4037870247304402204069d19f33b5b3b2bbfd8808059b73fccb288d9bd7273eae9178c24232d0ab360220723dd5d2f16a63ff3794e4a8c5381a616c6f5266b4427dd9808674a51a914dc4012103edaad325dd4297b31a5953aec10e6a0240f404ba4a4eb72f51be2a4b7ae8c02100000000&quot; print(conn.sendrawtransaction(signed_new_tx_hex)) #15be84a268ff2747b1646010c1533213cba383b0cd920cc79ed97c927eb0e93f 这里也不用json解析签名结果了，直接手工黏贴，并且使用jsonrpc将签名好的交易广播到比特币网络中去。其返回结果即为交易id，再次查看之： 该交易已被比特币网络接受。地址mh4xx1pgjqLmjVUJxfdj3qV8BJaYARLdh9现在有了0.2btc。 本次实验中，最重要的一环“对交易进行签名“，是委托bitcoin core钱包做的，并且由于其地址是p2sh地址，如过要本地解锁，除了私钥外，还需要redeem script，这个还没研究如何获取。下一次实验，将使用地址mh4xx1pgjqLmjVUJxfdj3qV8BJaYARLdh9上的0.2btc作为资金来源，在本地离线对交易进行签名，然后再用jsonrpc将其广播出去。这样，第三方钱包的作用仅仅是广播交易，其重要性就不言而喻了。 阅读更多" />
<meta property="og:description" content="注：本篇所有实验均在比特币测试网络（testnet）下进行 前置步骤： 1）下载比特币钱包客户端: bitcoin core. 选择testnet并开启jsonrpc的相关功能。 2）去网上乞讨一些比特币 这是我乞讨得到的1.03个比特币 该交易的hex表示为： 0200000001ae2e375fe76f30e3451e2f5fd7441c66ce884a189886abe1e6eccbeff6b6cda8000000006a473044022010ce551c1f7e1f8fa4a4a9d4d67c1acf9581ede52e0b1030c6974b798721c0ff02203191b63e3a19de477f30034c749056afce104d8d0e5365e95edc1aaa34392b360121037ca1f015fbaf30ca61d9a9e555c5fb35cb8ee63c6a5c4b28f6f1194ce289e408feffffff02f8ff43b3650000001976a91418022dedf153d20b8bf10adae95c12eb6deb8de488ac4eb62c060000000017a91418c1047730048de078cf35649aa6ef2b6827a07187c9a41400 接下里，实验一下将我乞讨得到的这1.03btc转出0.2btc到其他比特币地址上。 正式撸码： from pycoin.tx.Tx import Tx from pycoin.tx.tx_utils import create_tx tx_hex = &quot;0200000001ae2e375fe76f30e3451e2f5fd7441c66ce884a189886abe1e6eccbeff6b6cda8000000006a473044022010ce551c1f7e1f8fa4a4a9d4d67c1acf9581ede52e0b1030c6974b798721c0ff02203191b63e3a19de477f30034c749056afce104d8d0e5365e95edc1aaa34392b360121037ca1f015fbaf30ca61d9a9e555c5fb35cb8ee63c6a5c4b28f6f1194ce289e408feffffff02f8ff43b3650000001976a91418022dedf153d20b8bf10adae95c12eb6deb8de488ac4eb62c060000000017a91418c1047730048de078cf35649aa6ef2b6827a07187c9a41400&quot; tx = Tx.from_hex(tx_hex) spendable = tx.tx_outs_as_spendable()[1] to_address = &quot;mh4xx1pgjqLmjVUJxfdj3qV8BJaYARLdh9&quot; change_address = &quot;2MxrJiqSAhss8Hm8PJM76cFzX8RS6Ve3afn&quot; tx_hex即我乞讨的那次交易，将作为新交易的资金来源；to_address表示转账地址, change_address表示找零地址。 new_tx = create_tx([spendable],[(to_address, 20000000), change_address]) new_tx_hex = new_tx.as_hex() print(new_tx_hex) #0100000001d56e1e4579ac2b407c105eb02d9749a73defd082837229dc290260d199f828350100000000ffffffff02002d3101000000001976a9141105fb9ff85657afb12a5c814776346b23db3a6688ac3e62fb040000000017a9143d7b2397ebb714da591028219b1162d6f21b40378700000000 利用pycoin，创建此次转账交易，即new_tx。20000000的单位是聪，一聪是亿分之一btc，所以其等于0.2btc from bitcoinrpc.authproxy import AuthServiceProxy conn = AuthServiceProxy(&quot;http://%s:%s@192.168.1.103:18332&quot;%(&quot;fftest&quot;,&quot;fftest123&quot;)) print(conn.decoderawtransaction(new_tx_hex)) #{&#39;txid&#39;: &#39;d8088b4821057a3e9e168d58c7d4cbc85b1728b1145da3e4e773d0d65141effa&#39;, &#39;hash&#39;: &#39;d8088b4821057a3e9e168d58c7d4cbc85b1728b1145da3e4e773d0d65141effa&#39;, &#39;version&#39;: 1, &#39;size&#39;: 117, &#39;vsize&#39;: 117, &#39;locktime&#39;: 0, &#39;vin&#39;: [{&#39;txid&#39;: &#39;3528f899d1600229dc29728382d0ef3da749972db05e107c402bac79451e6ed5&#39;, &#39;vout&#39;: 1, &#39;scriptSig&#39;: {&#39;asm&#39;: &#39;&#39;, &#39;hex&#39;: &#39;&#39;}, &#39;sequence&#39;: 4294967295}], &#39;vout&#39;: [{&#39;value&#39;: Decimal(&#39;0.20000000&#39;), &#39;n&#39;: 0, &#39;scriptPubKey&#39;: {&#39;asm&#39;: &#39;OP_DUP OP_HASH160 1105fb9ff85657afb12a5c814776346b23db3a66 OP_EQUALVERIFY OP_CHECKSIG&#39;, &#39;hex&#39;: &#39;76a9141105fb9ff85657afb12a5c814776346b23db3a6688ac&#39;, &#39;reqSigs&#39;: 1, &#39;type&#39;: &#39;pubkeyhash&#39;, &#39;addresses&#39;: [&#39;mh4xx1pgjqLmjVUJxfdj3qV8BJaYARLdh9&#39;]}}, {&#39;value&#39;: Decimal(&#39;0.83583550&#39;), &#39;n&#39;: 1, &#39;scriptPubKey&#39;: {&#39;asm&#39;: &#39;OP_HASH160 3d7b2397ebb714da591028219b1162d6f21b4037 OP_EQUAL&#39;, &#39;hex&#39;: &#39;a9143d7b2397ebb714da591028219b1162d6f21b403787&#39;, &#39;reqSigs&#39;: 1, &#39;type&#39;: &#39;scripthash&#39;, &#39;addresses&#39;: [&#39;2MxrJiqSAhss8Hm8PJM76cFzX8RS6Ve3afn&#39;]}}]} print(conn.signrawtransaction(new_tx_hex)) #{&#39;hex&#39;: &#39;01000000000101d56e1e4579ac2b407c105eb02d9749a73defd082837229dc290260d199f8283501000000171600148c943eca5ee4d2fef125ba53efc267b1f012a7abffffffff02002d3101000000001976a9141105fb9ff85657afb12a5c814776346b23db3a6688ac3e62fb040000000017a9143d7b2397ebb714da591028219b1162d6f21b4037870247304402204069d19f33b5b3b2bbfd8808059b73fccb288d9bd7273eae9178c24232d0ab360220723dd5d2f16a63ff3794e4a8c5381a616c6f5266b4427dd9808674a51a914dc4012103edaad325dd4297b31a5953aec10e6a0240f404ba4a4eb72f51be2a4b7ae8c02100000000&#39;, &#39;complete&#39;: True} 此处连入bticoin core钱包提供的server，使用的库是python-bitcoinrpc。首先解码看一下new_tx，接下来对其进行签名。注意由于私钥在钱包里，所以此处不在本地离线签名，而是让钱包进行签名，并且返回签名结果。 signed_new_tx_hex = &quot;01000000000101d56e1e4579ac2b407c105eb02d9749a73defd082837229dc290260d199f8283501000000171600148c943eca5ee4d2fef125ba53efc267b1f012a7abffffffff02002d3101000000001976a9141105fb9ff85657afb12a5c814776346b23db3a6688ac3e62fb040000000017a9143d7b2397ebb714da591028219b1162d6f21b4037870247304402204069d19f33b5b3b2bbfd8808059b73fccb288d9bd7273eae9178c24232d0ab360220723dd5d2f16a63ff3794e4a8c5381a616c6f5266b4427dd9808674a51a914dc4012103edaad325dd4297b31a5953aec10e6a0240f404ba4a4eb72f51be2a4b7ae8c02100000000&quot; print(conn.sendrawtransaction(signed_new_tx_hex)) #15be84a268ff2747b1646010c1533213cba383b0cd920cc79ed97c927eb0e93f 这里也不用json解析签名结果了，直接手工黏贴，并且使用jsonrpc将签名好的交易广播到比特币网络中去。其返回结果即为交易id，再次查看之： 该交易已被比特币网络接受。地址mh4xx1pgjqLmjVUJxfdj3qV8BJaYARLdh9现在有了0.2btc。 本次实验中，最重要的一环“对交易进行签名“，是委托bitcoin core钱包做的，并且由于其地址是p2sh地址，如过要本地解锁，除了私钥外，还需要redeem script，这个还没研究如何获取。下一次实验，将使用地址mh4xx1pgjqLmjVUJxfdj3qV8BJaYARLdh9上的0.2btc作为资金来源，在本地离线对交易进行签名，然后再用jsonrpc将其广播出去。这样，第三方钱包的作用仅仅是广播交易，其重要性就不言而喻了。 阅读更多" />
<meta property="og:site_name" content="有组织在！" />
<meta property="og:type" content="article" />
<meta property="article:published_time" content="2018-07-12T00:00:00+08:00" />
<script type="application/ld+json">
{"description":"注：本篇所有实验均在比特币测试网络（testnet）下进行 前置步骤： 1）下载比特币钱包客户端: bitcoin core. 选择testnet并开启jsonrpc的相关功能。 2）去网上乞讨一些比特币 这是我乞讨得到的1.03个比特币 该交易的hex表示为： 0200000001ae2e375fe76f30e3451e2f5fd7441c66ce884a189886abe1e6eccbeff6b6cda8000000006a473044022010ce551c1f7e1f8fa4a4a9d4d67c1acf9581ede52e0b1030c6974b798721c0ff02203191b63e3a19de477f30034c749056afce104d8d0e5365e95edc1aaa34392b360121037ca1f015fbaf30ca61d9a9e555c5fb35cb8ee63c6a5c4b28f6f1194ce289e408feffffff02f8ff43b3650000001976a91418022dedf153d20b8bf10adae95c12eb6deb8de488ac4eb62c060000000017a91418c1047730048de078cf35649aa6ef2b6827a07187c9a41400 接下里，实验一下将我乞讨得到的这1.03btc转出0.2btc到其他比特币地址上。 正式撸码： from pycoin.tx.Tx import Tx from pycoin.tx.tx_utils import create_tx tx_hex = &quot;0200000001ae2e375fe76f30e3451e2f5fd7441c66ce884a189886abe1e6eccbeff6b6cda8000000006a473044022010ce551c1f7e1f8fa4a4a9d4d67c1acf9581ede52e0b1030c6974b798721c0ff02203191b63e3a19de477f30034c749056afce104d8d0e5365e95edc1aaa34392b360121037ca1f015fbaf30ca61d9a9e555c5fb35cb8ee63c6a5c4b28f6f1194ce289e408feffffff02f8ff43b3650000001976a91418022dedf153d20b8bf10adae95c12eb6deb8de488ac4eb62c060000000017a91418c1047730048de078cf35649aa6ef2b6827a07187c9a41400&quot; tx = Tx.from_hex(tx_hex) spendable = tx.tx_outs_as_spendable()[1] to_address = &quot;mh4xx1pgjqLmjVUJxfdj3qV8BJaYARLdh9&quot; change_address = &quot;2MxrJiqSAhss8Hm8PJM76cFzX8RS6Ve3afn&quot; tx_hex即我乞讨的那次交易，将作为新交易的资金来源；to_address表示转账地址, change_address表示找零地址。 new_tx = create_tx([spendable],[(to_address, 20000000), change_address]) new_tx_hex = new_tx.as_hex() print(new_tx_hex) #0100000001d56e1e4579ac2b407c105eb02d9749a73defd082837229dc290260d199f828350100000000ffffffff02002d3101000000001976a9141105fb9ff85657afb12a5c814776346b23db3a6688ac3e62fb040000000017a9143d7b2397ebb714da591028219b1162d6f21b40378700000000 利用pycoin，创建此次转账交易，即new_tx。20000000的单位是聪，一聪是亿分之一btc，所以其等于0.2btc from bitcoinrpc.authproxy import AuthServiceProxy conn = AuthServiceProxy(&quot;http://%s:%s@192.168.1.103:18332&quot;%(&quot;fftest&quot;,&quot;fftest123&quot;)) print(conn.decoderawtransaction(new_tx_hex)) #{&#39;txid&#39;: &#39;d8088b4821057a3e9e168d58c7d4cbc85b1728b1145da3e4e773d0d65141effa&#39;, &#39;hash&#39;: &#39;d8088b4821057a3e9e168d58c7d4cbc85b1728b1145da3e4e773d0d65141effa&#39;, &#39;version&#39;: 1, &#39;size&#39;: 117, &#39;vsize&#39;: 117, &#39;locktime&#39;: 0, &#39;vin&#39;: [{&#39;txid&#39;: &#39;3528f899d1600229dc29728382d0ef3da749972db05e107c402bac79451e6ed5&#39;, &#39;vout&#39;: 1, &#39;scriptSig&#39;: {&#39;asm&#39;: &#39;&#39;, &#39;hex&#39;: &#39;&#39;}, &#39;sequence&#39;: 4294967295}], &#39;vout&#39;: [{&#39;value&#39;: Decimal(&#39;0.20000000&#39;), &#39;n&#39;: 0, &#39;scriptPubKey&#39;: {&#39;asm&#39;: &#39;OP_DUP OP_HASH160 1105fb9ff85657afb12a5c814776346b23db3a66 OP_EQUALVERIFY OP_CHECKSIG&#39;, &#39;hex&#39;: &#39;76a9141105fb9ff85657afb12a5c814776346b23db3a6688ac&#39;, &#39;reqSigs&#39;: 1, &#39;type&#39;: &#39;pubkeyhash&#39;, &#39;addresses&#39;: [&#39;mh4xx1pgjqLmjVUJxfdj3qV8BJaYARLdh9&#39;]}}, {&#39;value&#39;: Decimal(&#39;0.83583550&#39;), &#39;n&#39;: 1, &#39;scriptPubKey&#39;: {&#39;asm&#39;: &#39;OP_HASH160 3d7b2397ebb714da591028219b1162d6f21b4037 OP_EQUAL&#39;, &#39;hex&#39;: &#39;a9143d7b2397ebb714da591028219b1162d6f21b403787&#39;, &#39;reqSigs&#39;: 1, &#39;type&#39;: &#39;scripthash&#39;, &#39;addresses&#39;: [&#39;2MxrJiqSAhss8Hm8PJM76cFzX8RS6Ve3afn&#39;]}}]} print(conn.signrawtransaction(new_tx_hex)) #{&#39;hex&#39;: &#39;01000000000101d56e1e4579ac2b407c105eb02d9749a73defd082837229dc290260d199f8283501000000171600148c943eca5ee4d2fef125ba53efc267b1f012a7abffffffff02002d3101000000001976a9141105fb9ff85657afb12a5c814776346b23db3a6688ac3e62fb040000000017a9143d7b2397ebb714da591028219b1162d6f21b4037870247304402204069d19f33b5b3b2bbfd8808059b73fccb288d9bd7273eae9178c24232d0ab360220723dd5d2f16a63ff3794e4a8c5381a616c6f5266b4427dd9808674a51a914dc4012103edaad325dd4297b31a5953aec10e6a0240f404ba4a4eb72f51be2a4b7ae8c02100000000&#39;, &#39;complete&#39;: True} 此处连入bticoin core钱包提供的server，使用的库是python-bitcoinrpc。首先解码看一下new_tx，接下来对其进行签名。注意由于私钥在钱包里，所以此处不在本地离线签名，而是让钱包进行签名，并且返回签名结果。 signed_new_tx_hex = &quot;01000000000101d56e1e4579ac2b407c105eb02d9749a73defd082837229dc290260d199f8283501000000171600148c943eca5ee4d2fef125ba53efc267b1f012a7abffffffff02002d3101000000001976a9141105fb9ff85657afb12a5c814776346b23db3a6688ac3e62fb040000000017a9143d7b2397ebb714da591028219b1162d6f21b4037870247304402204069d19f33b5b3b2bbfd8808059b73fccb288d9bd7273eae9178c24232d0ab360220723dd5d2f16a63ff3794e4a8c5381a616c6f5266b4427dd9808674a51a914dc4012103edaad325dd4297b31a5953aec10e6a0240f404ba4a4eb72f51be2a4b7ae8c02100000000&quot; print(conn.sendrawtransaction(signed_new_tx_hex)) #15be84a268ff2747b1646010c1533213cba383b0cd920cc79ed97c927eb0e93f 这里也不用json解析签名结果了，直接手工黏贴，并且使用jsonrpc将签名好的交易广播到比特币网络中去。其返回结果即为交易id，再次查看之： 该交易已被比特币网络接受。地址mh4xx1pgjqLmjVUJxfdj3qV8BJaYARLdh9现在有了0.2btc。 本次实验中，最重要的一环“对交易进行签名“，是委托bitcoin core钱包做的，并且由于其地址是p2sh地址，如过要本地解锁，除了私钥外，还需要redeem script，这个还没研究如何获取。下一次实验，将使用地址mh4xx1pgjqLmjVUJxfdj3qV8BJaYARLdh9上的0.2btc作为资金来源，在本地离线对交易进行签名，然后再用jsonrpc将其广播出去。这样，第三方钱包的作用仅仅是广播交易，其重要性就不言而喻了。 阅读更多","@type":"BlogPosting","url":"/2018/07/12/e38e814ff63441ab1befec4175d0bcb5.html","headline":"pycoin学习笔记(4) 生成交易，使用jsonrpc签名并广播","dateModified":"2018-07-12T00:00:00+08:00","datePublished":"2018-07-12T00:00:00+08:00","mainEntityOfPage":{"@type":"WebPage","@id":"/2018/07/12/e38e814ff63441ab1befec4175d0bcb5.html"},"@context":"http://schema.org"}</script>
<!-- End Jekyll SEO tag -->


    <link rel="stylesheet" href="/assets/css/style.css?v=">
    <script src="/assets/js/scale.fix.js"></script>
    <meta name="viewport" content="width=device-width, initial-scale=1, user-scalable=no">

    <!--[if lt IE 9]>
    <script src="//html5shiv.googlecode.com/svn/trunk/html5.js"></script>
    <![endif]-->
    
    <!-- Global site tag (gtag.js) - Google Analytics -->
    <script async src="https://www.googletagmanager.com/gtag/js?id=UA-123344652-1"></script>
    <script>
      window.dataLayer = window.dataLayer || [];
      function gtag(){dataLayer.push(arguments);}
      gtag('js', new Date());

      gtag('config', 'UA-123344652-1');
    </script>
    
    <script async src="//pagead2.googlesyndication.com/pagead/js/adsbygoogle.js"></script>
    <script>
      (adsbygoogle = window.adsbygoogle || []).push({
        google_ad_client: "ca-pub-8889449066804352",
        enable_page_level_ads: true
      });
    </script>
    
    <script async custom-element="amp-auto-ads"
        src="https://cdn.ampproject.org/v0/amp-auto-ads-0.1.js">
    </script>
    
    <style>
      @media screen and (max-width:760px){
        .sm-hidden{display:none; }
      }
    </style>

  </head>
  <body>
    
        <amp-auto-ads type="adsense"
              data-ad-client="ca-pub-8889449066804352">
        </amp-auto-ads>
    
    <div class="wrapper">
      <header  class="without-description" >
        <h1>pycoin学习笔记(4) 生成交易，使用jsonrpc签名并广播</h1>
        
        
        <ul>
            <li><a href="https://uzshare.com/" style="line-height: unset;" target="_blank"><strong>柚子社区</strong></a></li>
        </ul>
        
        
        
      </header>
      <section>

<div style="margin:0 0 8px 0;">
<style>
table.gsc-input {
    margin: 0;
}
.cse .gsc-control-cse, .gsc-control-cse {
    padding: 0;
    width: auto;
}
.gsc-search-box td {
    border-bottom: none;
}
</style>
<script>
  (function() {
    var cx = '004431708863642777669:qan2_6ugotw';
    var gcse = document.createElement('script');
    gcse.type = 'text/javascript';
    gcse.async = true;
    gcse.src = 'https://cse.google.com/cse.js?cx=' + cx;
    var s = document.getElementsByTagName('script')[0];
    s.parentNode.insertBefore(gcse, s);
  })();
</script>
<gcse:search></gcse:search>
</div>
	

        <div id="article_content" class="article_content clearfix csdn-tracking-statistics" data-pid="blog" data-mod="popu_307" data-dsm="post"> 
 <link rel="stylesheet" href="https://csdnimg.cn/release/phoenix/template/css/ck_htmledit_views-e2445db1a8.css"> 
 <div class="htmledit_views"> 
  <p><strong>注：本篇所有实验均在比特币测试网络（testnet）下进行</strong></p>
  <p>前置步骤：</p>
  <p>1）下载比特币钱包客户端: bitcoin core. 选择testnet并开启jsonrpc的相关功能。</p>
  <p>2）去网上乞讨一些比特币</p>
  <p><img src="https://img-blog.csdn.net/20180712154917127?watermark/2/text/aHR0cHM6Ly9ibG9nLmNzZG4ubmV0L2x1Y3lUaGVTbGF5ZXI=/font/5a6L5L2T/fontsize/400/fill/I0JBQkFCMA==/dissolve/70" alt=""><br></p>
  <p>这是我乞讨得到的1.03个比特币</p>
  <p>该交易的hex表示为：</p>
  <p>0200000001ae2e375fe76f30e3451e2f5fd7441c66ce884a189886abe1e6eccbeff6b6cda8000000006a473044022010ce551c1f7e1f8fa4a4a9d4d67c1acf9581ede52e0b1030c6974b798721c0ff02203191b63e3a19de477f30034c749056afce104d8d0e5365e95edc1aaa34392b360121037ca1f015fbaf30ca61d9a9e555c5fb35cb8ee63c6a5c4b28f6f1194ce289e408feffffff02f8ff43b3650000001976a91418022dedf153d20b8bf10adae95c12eb6deb8de488ac4eb62c060000000017a91418c1047730048de078cf35649aa6ef2b6827a07187c9a41400</p>
  <p>接下里，实验一下将我乞讨得到的这1.03btc转出0.2btc到其他比特币地址上。</p>
  <p>正式撸码：</p>
  <pre><code class="language-python">from pycoin.tx.Tx import Tx
from pycoin.tx.tx_utils import create_tx

tx_hex = "0200000001ae2e375fe76f30e3451e2f5fd7441c66ce884a189886abe1e6eccbeff6b6cda8000000006a473044022010ce551c1f7e1f8fa4a4a9d4d67c1acf9581ede52e0b1030c6974b798721c0ff02203191b63e3a19de477f30034c749056afce104d8d0e5365e95edc1aaa34392b360121037ca1f015fbaf30ca61d9a9e555c5fb35cb8ee63c6a5c4b28f6f1194ce289e408feffffff02f8ff43b3650000001976a91418022dedf153d20b8bf10adae95c12eb6deb8de488ac4eb62c060000000017a91418c1047730048de078cf35649aa6ef2b6827a07187c9a41400"
tx = Tx.from_hex(tx_hex)
spendable = tx.tx_outs_as_spendable()[1]
to_address = "mh4xx1pgjqLmjVUJxfdj3qV8BJaYARLdh9"
change_address = "2MxrJiqSAhss8Hm8PJM76cFzX8RS6Ve3afn"</code></pre>
  <p>tx_hex即我乞讨的那次交易，将作为新交易的资金来源；to_address表示转账地址, change_address表示找零地址。</p>
  <pre><code class="language-python">new_tx = create_tx([spendable],[(to_address, 20000000), change_address])
new_tx_hex = new_tx.as_hex()
print(new_tx_hex)
#0100000001d56e1e4579ac2b407c105eb02d9749a73defd082837229dc290260d199f828350100000000ffffffff02002d3101000000001976a9141105fb9ff85657afb12a5c814776346b23db3a6688ac3e62fb040000000017a9143d7b2397ebb714da591028219b1162d6f21b40378700000000
</code></pre>
  <p>利用pycoin，创建此次转账交易，即new_tx。20000000的单位是聪，一聪是亿分之一btc，所以其等于0.2btc</p>
  <pre><code class="language-python">from bitcoinrpc.authproxy import AuthServiceProxy
conn = AuthServiceProxy("http://%s:%s@192.168.1.103:18332"%("fftest","fftest123"))
print(conn.decoderawtransaction(new_tx_hex))
#{'txid': 'd8088b4821057a3e9e168d58c7d4cbc85b1728b1145da3e4e773d0d65141effa', 'hash': 'd8088b4821057a3e9e168d58c7d4cbc85b1728b1145da3e4e773d0d65141effa', 'version': 1, 'size': 117, 'vsize': 117, 'locktime': 0, 'vin': [{'txid': '3528f899d1600229dc29728382d0ef3da749972db05e107c402bac79451e6ed5', 'vout': 1, 'scriptSig': {'asm': '', 'hex': ''}, 'sequence': 4294967295}], 'vout': [{'value': Decimal('0.20000000'), 'n': 0, 'scriptPubKey': {'asm': 'OP_DUP OP_HASH160 1105fb9ff85657afb12a5c814776346b23db3a66 OP_EQUALVERIFY OP_CHECKSIG', 'hex': '76a9141105fb9ff85657afb12a5c814776346b23db3a6688ac', 'reqSigs': 1, 'type': 'pubkeyhash', 'addresses': ['mh4xx1pgjqLmjVUJxfdj3qV8BJaYARLdh9']}}, {'value': Decimal('0.83583550'), 'n': 1, 'scriptPubKey': {'asm': 'OP_HASH160 3d7b2397ebb714da591028219b1162d6f21b4037 OP_EQUAL', 'hex': 'a9143d7b2397ebb714da591028219b1162d6f21b403787', 'reqSigs': 1, 'type': 'scripthash', 'addresses': ['2MxrJiqSAhss8Hm8PJM76cFzX8RS6Ve3afn']}}]}
print(conn.signrawtransaction(new_tx_hex))
#{'hex': '01000000000101d56e1e4579ac2b407c105eb02d9749a73defd082837229dc290260d199f8283501000000171600148c943eca5ee4d2fef125ba53efc267b1f012a7abffffffff02002d3101000000001976a9141105fb9ff85657afb12a5c814776346b23db3a6688ac3e62fb040000000017a9143d7b2397ebb714da591028219b1162d6f21b4037870247304402204069d19f33b5b3b2bbfd8808059b73fccb288d9bd7273eae9178c24232d0ab360220723dd5d2f16a63ff3794e4a8c5381a616c6f5266b4427dd9808674a51a914dc4012103edaad325dd4297b31a5953aec10e6a0240f404ba4a4eb72f51be2a4b7ae8c02100000000', 'complete': True}
</code></pre>
  <p>此处连入bticoin core钱包提供的server，使用的库是python-bitcoinrpc。首先解码看一下new_tx，接下来对其进行签名。注意由于私钥在钱包里，所以此处不在本地离线签名，而是让钱包进行签名，并且返回签名结果。</p>
  <pre><code class="language-python">signed_new_tx_hex = "01000000000101d56e1e4579ac2b407c105eb02d9749a73defd082837229dc290260d199f8283501000000171600148c943eca5ee4d2fef125ba53efc267b1f012a7abffffffff02002d3101000000001976a9141105fb9ff85657afb12a5c814776346b23db3a6688ac3e62fb040000000017a9143d7b2397ebb714da591028219b1162d6f21b4037870247304402204069d19f33b5b3b2bbfd8808059b73fccb288d9bd7273eae9178c24232d0ab360220723dd5d2f16a63ff3794e4a8c5381a616c6f5266b4427dd9808674a51a914dc4012103edaad325dd4297b31a5953aec10e6a0240f404ba4a4eb72f51be2a4b7ae8c02100000000"
print(conn.sendrawtransaction(signed_new_tx_hex))
#15be84a268ff2747b1646010c1533213cba383b0cd920cc79ed97c927eb0e93f</code></pre>
  <p>这里也不用json解析签名结果了，直接手工黏贴，并且使用jsonrpc将签名好的交易广播到比特币网络中去。其返回结果即为交易id，再次查看之：</p>
  <p><img src="https://img-blog.csdn.net/201807121603236?watermark/2/text/aHR0cHM6Ly9ibG9nLmNzZG4ubmV0L2x1Y3lUaGVTbGF5ZXI=/font/5a6L5L2T/fontsize/400/fill/I0JBQkFCMA==/dissolve/70" alt=""><br></p>
  <p>该交易已被比特币网络接受。地址mh4xx1pgjqLmjVUJxfdj3qV8BJaYARLdh9现在有了0.2btc。</p>
  <p><br></p>
  <p>本次实验中，最重要的一环“对交易进行签名“，是委托bitcoin core钱包做的，并且由于其地址是p2sh地址，如过要本地解锁，除了私钥外，还需要redeem script，这个还没研究如何获取。下一次实验，将使用地址mh4xx1pgjqLmjVUJxfdj3qV8BJaYARLdh9上的0.2btc作为资金来源，在本地离线对交易进行签名，然后再用jsonrpc将其广播出去。这样，第三方钱包的作用仅仅是广播交易，其重要性就不言而喻了。</p>
  <p><br></p>
  <br>
  <p><br></p> 
 </div> 
</div> 
<div class="hide-article-box text-center"> 
 <a class="btn btn-red-hollow" id="btn-readmore" data-track-view="{&quot;mod&quot;:&quot;popu_376&quot;,&quot;con&quot;:&quot;,https://blog.csdn.net/lucyTheSlayer/article/details/81017132,&quot;}" data-track-click="{&quot;mod&quot;:&quot;popu_376&quot;,&quot;con&quot;:&quot;,https://blog.csdn.net/lucyTheSlayer/article/details/81017132,&quot;}">阅读更多</a> 
</div>

	<script async src="//pagead2.googlesyndication.com/pagead/js/adsbygoogle.js"></script>
	<!-- 自定义广告 -->
	<ins class="adsbygoogle"
	     style="display:block"
	     data-ad-client="ca-pub-8889449066804352"
	     data-ad-slot="1494696990"
	     data-ad-format="auto"
	     data-full-width-responsive="true"></ins>
	<script>
		(adsbygoogle = window.adsbygoogle || []).push({});
	</script>


        <br />
        <a href="https://uzshare.com/">更多精彩内容</a>
      </section>
      
      <header style="right: 0;position: fixed;bottom: 60px;z-index: 100;background: none;border-bottom:none;">
        <ul style="display: block;">
          <li><a href="/" style="line-height: 40px;padding-top:0px;">回首页</a></li>
        </ul>
      </header>
      <header class="sm-hidden" style="right: 0;position: fixed;bottom: 60px;z-index: 100;background: none;border-bottom:none;">
          <img src="https://uzzz.org.cn/imgqcode.png" style="width:160px;" />
      </header>
      
      <header class="sm-hidden" style="left: 0;position: fixed;bottom: 60px;z-index: 100;background: none;border-bottom:none;">
          <img src="https://uzzz.org.cn/hou_imgqcode.png" style="width:160px;">
      </header>
    </div>
    
    <!--[if !IE]><script>fixScale(document);</script><![endif]-->

    <script>
    var _hmt = _hmt || [];
    (function() {
      var hm = document.createElement("script");
      hm.src = "https://hm.baidu.com/hm.js?ee64533f3c6a7a284cd39a37ee732c8b";
      var s = document.getElementsByTagName("script")[0]; 
      s.parentNode.insertBefore(hm, s);
    })();
    </script>

  </body>
</html>
